{
  "contractName": "FunctionsOrder",
  "abi": [
    {
      "constant": false,
      "inputs": [],
      "name": "b",
      "outputs": [],
      "payable": false,
      "stateMutability": "nonpayable",
      "type": "function"
    }
  ],
  "bytecode": "0x6080604052348015600f57600080fd5b50606c80601d6000396000f3fe6080604052348015600f57600080fd5b506004361060285760003560e01c80634df7e3d014602d575b600080fd5b60336035565b005b56fea265627a7a723158206824a4df8014cc3ea65cc7081ccf0b888d6dca8d4918d96aecc83d5343f8d02064736f6c63430005100032",
  "source": "// SPDX-License-Identifier: MIT\npragma solidity >=0.4.22 <0.9.0;\n\ncontract FunctionsOrder {\n  function b() public {\n  }\n}\n",
  "sourcePath": "C:/GitHub/masterthesis/truffle/functions-order/contracts/FunctionsOrder.sol",
  "compiler": {
    "name": "solc",
    "version": "0.5.16+commit.9c3226ce.Emscripten.clang"
  },
  "schemaVersion": "3.3.3",
  "updatedAt": "2021-03-08T09:23:08.443Z",
  "devdoc": {
    "methods": {}
  },
  "userdoc": {
    "methods": {}
  }
}