{
	"data": {
		"bytecode": {
			"linkReferences": {},
			"object": "608060405234801561001057600080fd5b50610263806100206000396000f3fe608060405234801561001057600080fd5b50600436106100365760003560e01c80632dbc23661461003b578063df201a4614610045575b600080fd5b61004361004f565b005b61004d610224565b005b67111111111111111160008060048110610092577f4e487b7100000000000000000000000000000000000000000000000000000000600052603260045260246000fd5b600491828204019190066008026101000a81548167ffffffffffffffff021916908367ffffffffffffffff1602179055506722222222222222226000600160048110610107577f4e487b7100000000000000000000000000000000000000000000000000000000600052603260045260246000fd5b600491828204019190066008026101000a81548167ffffffffffffffff021916908367ffffffffffffffff160217905550673333333333333333600060026004811061017c577f4e487b7100000000000000000000000000000000000000000000000000000000600052603260045260246000fd5b600491828204019190066008026101000a81548167ffffffffffffffff021916908367ffffffffffffffff16021790555067444444444444444460006003600481106101f1577f4e487b7100000000000000000000000000000000000000000000000000000000600052603260045260246000fd5b600491828204019190066008026101000a81548167ffffffffffffffff021916908367ffffffffffffffff160217905550565b6000600590505056fea2646970667358221220c9abe6590e85f834f4b3573d1b15e99aa6847681de3df9233404d8a36831ab7b64736f6c63430008010033",
			"opcodes": "PUSH1 0x80 PUSH1 0x40 MSTORE CALLVALUE DUP1 ISZERO PUSH2 0x10 JUMPI PUSH1 0x0 DUP1 REVERT JUMPDEST POP PUSH2 0x263 DUP1 PUSH2 0x20 PUSH1 0x0 CODECOPY PUSH1 0x0 RETURN INVALID PUSH1 0x80 PUSH1 0x40 MSTORE CALLVALUE DUP1 ISZERO PUSH2 0x10 JUMPI PUSH1 0x0 DUP1 REVERT JUMPDEST POP PUSH1 0x4 CALLDATASIZE LT PUSH2 0x36 JUMPI PUSH1 0x0 CALLDATALOAD PUSH1 0xE0 SHR DUP1 PUSH4 0x2DBC2366 EQ PUSH2 0x3B JUMPI DUP1 PUSH4 0xDF201A46 EQ PUSH2 0x45 JUMPI JUMPDEST PUSH1 0x0 DUP1 REVERT JUMPDEST PUSH2 0x43 PUSH2 0x4F JUMP JUMPDEST STOP JUMPDEST PUSH2 0x4D PUSH2 0x224 JUMP JUMPDEST STOP JUMPDEST PUSH8 0x1111111111111111 PUSH1 0x0 DUP1 PUSH1 0x4 DUP2 LT PUSH2 0x92 JUMPI PUSH32 0x4E487B7100000000000000000000000000000000000000000000000000000000 PUSH1 0x0 MSTORE PUSH1 0x32 PUSH1 0x4 MSTORE PUSH1 0x24 PUSH1 0x0 REVERT JUMPDEST PUSH1 0x4 SWAP2 DUP3 DUP3 DIV ADD SWAP2 SWAP1 MOD PUSH1 0x8 MUL PUSH2 0x100 EXP DUP2 SLOAD DUP2 PUSH8 0xFFFFFFFFFFFFFFFF MUL NOT AND SWAP1 DUP4 PUSH8 0xFFFFFFFFFFFFFFFF AND MUL OR SWAP1 SSTORE POP PUSH8 0x2222222222222222 PUSH1 0x0 PUSH1 0x1 PUSH1 0x4 DUP2 LT PUSH2 0x107 JUMPI PUSH32 0x4E487B7100000000000000000000000000000000000000000000000000000000 PUSH1 0x0 MSTORE PUSH1 0x32 PUSH1 0x4 MSTORE PUSH1 0x24 PUSH1 0x0 REVERT JUMPDEST PUSH1 0x4 SWAP2 DUP3 DUP3 DIV ADD SWAP2 SWAP1 MOD PUSH1 0x8 MUL PUSH2 0x100 EXP DUP2 SLOAD DUP2 PUSH8 0xFFFFFFFFFFFFFFFF MUL NOT AND SWAP1 DUP4 PUSH8 0xFFFFFFFFFFFFFFFF AND MUL OR SWAP1 SSTORE POP PUSH8 0x3333333333333333 PUSH1 0x0 PUSH1 0x2 PUSH1 0x4 DUP2 LT PUSH2 0x17C JUMPI PUSH32 0x4E487B7100000000000000000000000000000000000000000000000000000000 PUSH1 0x0 MSTORE PUSH1 0x32 PUSH1 0x4 MSTORE PUSH1 0x24 PUSH1 0x0 REVERT JUMPDEST PUSH1 0x4 SWAP2 DUP3 DUP3 DIV ADD SWAP2 SWAP1 MOD PUSH1 0x8 MUL PUSH2 0x100 EXP DUP2 SLOAD DUP2 PUSH8 0xFFFFFFFFFFFFFFFF MUL NOT AND SWAP1 DUP4 PUSH8 0xFFFFFFFFFFFFFFFF AND MUL OR SWAP1 SSTORE POP PUSH8 0x4444444444444444 PUSH1 0x0 PUSH1 0x3 PUSH1 0x4 DUP2 LT PUSH2 0x1F1 JUMPI PUSH32 0x4E487B7100000000000000000000000000000000000000000000000000000000 PUSH1 0x0 MSTORE PUSH1 0x32 PUSH1 0x4 MSTORE PUSH1 0x24 PUSH1 0x0 REVERT JUMPDEST PUSH1 0x4 SWAP2 DUP3 DUP3 DIV ADD SWAP2 SWAP1 MOD PUSH1 0x8 MUL PUSH2 0x100 EXP DUP2 SLOAD DUP2 PUSH8 0xFFFFFFFFFFFFFFFF MUL NOT AND SWAP1 DUP4 PUSH8 0xFFFFFFFFFFFFFFFF AND MUL OR SWAP1 SSTORE POP JUMP JUMPDEST PUSH1 0x0 PUSH1 0x5 SWAP1 POP POP JUMP INVALID LOG2 PUSH5 0x6970667358 0x22 SLT KECCAK256 0xC9 0xAB 0xE6 MSIZE 0xE DUP6 0xF8 CALLVALUE DELEGATECALL 0xB3 JUMPI RETURNDATASIZE SHL ISZERO 0xE9 SWAP11 0xA6 DUP5 PUSH23 0x81DE3DF9233404D8A36831AB7B64736F6C634300080100 CALLER "
		},
		"gasEstimates": {
			"creation": {
				"codeDepositCost": "122200",
				"executionCost": "171",
				"totalCost": "122371"
			},
			"external": {
				"fixed12()": "83988",
				"simple()": "157"
			}
		},
		"methodIdentifiers": {
			"fixed12()": "2dbc2366",
			"simple()": "df201a46"
		}
	},
	"abi": [
		{
			"inputs": [],
			"name": "fixed12",
			"outputs": [],
			"stateMutability": "nonpayable",
			"type": "function"
		},
		{
			"inputs": [],
			"name": "simple",
			"outputs": [],
			"stateMutability": "nonpayable",
			"type": "function"
		}
	]
}