{
  "contractName": "Fixed1",
  "abi": [
    {
      "inputs": [],
      "name": "fixed12",
      "outputs": [],
      "stateMutability": "nonpayable",
      "type": "function"
    }
  ],
  "bytecode": "0x6080604052348015600f57600080fd5b5060d68061001e6000396000f3fe6080604052348015600f57600080fd5b506004361060285760003560e01c80632dbc236614602d575b600080fd5b6000805467ffffffffffffffff1916671111111111111111176fffffffffffffffff000000000000000019166f222222222222222200000000000000001767ffffffffffffffff60801b191667333333333333333360801b176001600160c01b031667111111111111111160c21b17905500fea264697066735822122058ddc1caf07f152bf7b5285e2944b966fdcf395cd8392e6c82ab4439e23a5fd664736f6c63430008020033",
  "immutableReferences": {},
  "source": "// SPDX-License-Identifier: MIT\npragma solidity >=0.7.22 <0.9.0;\n\ncontract Fixed1 {\n    uint64[4] numbers;    \n    \n    function fixed12() public {\n      numbers[0] = 0x1111111111111111;\n      numbers[1] = 0x2222222222222222;\n      numbers[2] = 0x3333333333333333;\n      numbers[3] = 0x4444444444444444;\n    }\n}",
  "sourcePath": "C:/GitHub/masterthesis/code/fixed/contracts/Fixed1.sol",
  "compiler": {
    "name": "solc",
    "version": "0.8.2+commit.661d1103.Emscripten.clang"
  },
  "schemaVersion": "3.3.4",
  "updatedAt": "2021-04-12T12:42:49.913Z",
  "networkType": "ethereum",
  "devdoc": {
    "kind": "dev",
    "methods": {},
    "version": 1
  },
  "userdoc": {
    "kind": "user",
    "methods": {},
    "version": 1
  }
}