{
  "contractName": "Array",
  "abi": [
    {
      "inputs": [
        {
          "internalType": "uint256",
          "name": "x",
          "type": "uint256"
        }
      ],
      "name": "bar1",
      "outputs": [],
      "stateMutability": "nonpayable",
      "type": "function"
    },
    {
      "inputs": [
        {
          "internalType": "uint256",
          "name": "x",
          "type": "uint256"
        }
      ],
      "name": "bar2",
      "outputs": [],
      "stateMutability": "nonpayable",
      "type": "function"
    }
  ],
  "bytecode": "0x608060405234801561001057600080fd5b5060c78061001f6000396000f3fe6080604052348015600f57600080fd5b506004361060325760003560e01c806313ec6f481460375780634a0896c6146047575b600080fd5b60456042366004607a565b50565b005b60456052366004607a565b6058605c565b5050565b6040518060e001604052806007906020820280368337509192915050565b600060208284031215608a578081fd5b503591905056fea26469706673582212209028caec30d00c464c2711ecfb51abb6650975d80d059feef0f6a165ee97be7d64736f6c63430008020033",
  "immutableReferences": {},
  "source": "// SPDX-License-Identifier: MIT\npragma solidity >=0.8.0 <0.9.0;\n\ncontract Array {\n    // Array a dimensione fissa T[k]\n    function bar1(uint x) public {\n        uint[7] memory foo1;\n        uint[7] storage foo2;\n        //uint[x] memory foo3; // Compile-time Error\n        //uint[x] storage foo4; // Compile-time Error\n    }\n    \n    // Array a dimensione dinamica T[]\n    function bar2(uint x) public {\n        uint[] memory foo1;\n        uint[] storage foo2;\n    }\n}\n",
  "sourcePath": "C:/GitHub/masterthesis/solidity/analysis-truffle/contracts/Array.sol",
  "compiler": {
    "name": "solc",
    "version": "0.8.2+commit.661d1103.Emscripten.clang"
  },
  "schemaVersion": "3.3.4",
  "updatedAt": "2021-05-11T13:29:28.993Z",
  "devdoc": {
    "kind": "dev",
    "methods": {},
    "version": 1
  },
  "userdoc": {
    "kind": "user",
    "methods": {},
    "version": 1
  }
}