{
	"data": {
		"bytecode": {
			"linkReferences": {},
			"object": "6080604052348015600f57600080fd5b50606f80601d6000396000f3fe6080604052348015600f57600080fd5b506004361060325760003560e01c80630dbe671f1460375780634df7e3d0146037575b600080fd5b00fea264697066735822122046b4e9a6e0fb13a9f2da2705a958e5eadd9ddf6853d892a297fa3d634e77def564736f6c63430008020033",
			"opcodes": "PUSH1 0x80 PUSH1 0x40 MSTORE CALLVALUE DUP1 ISZERO PUSH1 0xF JUMPI PUSH1 0x0 DUP1 REVERT JUMPDEST POP PUSH1 0x6F DUP1 PUSH1 0x1D PUSH1 0x0 CODECOPY PUSH1 0x0 RETURN INVALID PUSH1 0x80 PUSH1 0x40 MSTORE CALLVALUE DUP1 ISZERO PUSH1 0xF JUMPI PUSH1 0x0 DUP1 REVERT JUMPDEST POP PUSH1 0x4 CALLDATASIZE LT PUSH1 0x32 JUMPI PUSH1 0x0 CALLDATALOAD PUSH1 0xE0 SHR DUP1 PUSH4 0xDBE671F EQ PUSH1 0x37 JUMPI DUP1 PUSH4 0x4DF7E3D0 EQ PUSH1 0x37 JUMPI JUMPDEST PUSH1 0x0 DUP1 REVERT JUMPDEST STOP INVALID LOG2 PUSH5 0x6970667358 0x22 SLT KECCAK256 CHAINID 0xB4 0xE9 0xA6 0xE0 0xFB SGT 0xA9 CALLCODE 0xDA 0x27 SDIV 0xA9 PC 0xE5 0xEA 0xDD SWAP14 0xDF PUSH9 0x53D892A297FA3D634E PUSH24 0xDEF564736F6C634300080200330000000000000000000000 "
		},
		"gasEstimates": {
			"creation": {
				"codeDepositCost": "22200",
				"executionCost": "75",
				"totalCost": "22275"
			},
			"external": {
				"a()": "98",
				"b()": "120"
			}
		},
		"methodIdentifiers": {
			"a()": "0dbe671f",
			"b()": "4df7e3d0"
		}
	},
	"abi": [
		{
			"inputs": [],
			"name": "a",
			"outputs": [],
			"stateMutability": "nonpayable",
			"type": "function"
		},
		{
			"inputs": [],
			"name": "b",
			"outputs": [],
			"stateMutability": "nonpayable",
			"type": "function"
		}
	]
}