{
	"data": {
		"bytecode": {
			"linkReferences": {},
			"object": "60806040526040516100109061005f565b604051809103906000f08015801561002c573d6000803e3d6000fd5b50600080546001600160a01b0319166001600160a01b039290921691909117905534801561005957600080fd5b5061006c565b6102f28061035f83390190565b6102e48061007b6000396000f3fe608060405234801561001057600080fd5b50600436106100415760003560e01c80635cdd2a8c146100465780636c1990a51461006b578063dd417ee71461007e575b600080fd5b610059610054366004610257565b610091565b60405190815260200160405180910390f35b610059610079366004610257565b61011a565b61005961008c366004610257565b610226565b6000805460405163224d9edd60e01b81526001600160a01b039091169063224d9edd906100c2908590600401610298565b602060405180830381600087803b1580156100dc57600080fd5b505af11580156100f0573d6000803e3d6000fd5b505050506040513d601f19601f820116820180604052508101906101149190610280565b92915050565b6000805460405163224d9edd60e01b81526001600160a01b039091169063224d9edd9061014b908590600401610298565b602060405180830381600087803b15801561016557600080fd5b505af1158015610179573d6000803e3d6000fd5b505050506040513d601f19601f8201168201806040525081019061019d9190610280565b5060005460405163dbfdff6160e01b81526001600160a01b039091169063dbfdff61906101ce908590600401610298565b602060405180830381600087803b1580156101e857600080fd5b505af11580156101fc573d6000803e3d6000fd5b505050506040513d601f19601f820116820180604052508101906102209190610280565b50919050565b6000805460405163dbfdff6160e01b81526001600160a01b039091169063dbfdff61906100c2908590600401610298565b600061028080838503121561026a578182fd5b838184011115610278578182fd5b509092915050565b600060208284031215610291578081fd5b5051919050565b610280818101908084843750600081529291505056fea2646970667358221220ab260540e8648f04d78c90f8e0929fffaa08063544d960d34a95cfef93dcdd0864736f6c63430008020033608060405234801561001057600080fd5b506102d2806100206000396000f3fe608060405234801561001057600080fd5b50600436106100415760003560e01c8063224d9edd146100465780636c1990a51461006b578063dbfdff611461007e575b600080fd5b6100596100543660046101a8565b610091565b60405190815260200160405180910390f35b61005961007936600461017f565b6100aa565b61005961008c36600461017f565b61016e565b60208101516000906100a490600261025b565b92915050565b60006100de826014806020026040519081016040528092919082601460200280828437600092019190915250610091915050565b5060405163dbfdff6160e01b8152309063dbfdff6190610102908590600401610245565b602060405180830381600087803b15801561011c57600080fd5b505af1158015610130573d6000803e3d6000fd5b505050506040513d601f19601f82011682018060405250810190610154919061022d565b5061015e8261016e565b506101688261016e565b50919050565b60006100a46020830135600261025b565b6000610280808385031215610192578182fd5b8381840111156101a0578182fd5b509092915050565b60006102808083850312156101bb578182fd5b83601f8401126101c9578182fd5b60405181810181811067ffffffffffffffff821117156101eb576101eb610286565b60405280848381018710156101fe578485fd5b8493505b601484101561022257803582526001939093019260209182019101610202565b509095945050505050565b60006020828403121561023e578081fd5b5051919050565b6102808181019080848437506000815292915050565b600081600019048311821515161561028157634e487b7160e01b81526011600452602481fd5b500290565b634e487b7160e01b600052604160045260246000fdfea26469706673582212209250eac39035ab7acde9525a1d8fdfcc91023bd90b1e39d3d70f959b1514d56e64736f6c63430008020033",
			"opcodes": "PUSH1 0x80 PUSH1 0x40 MSTORE PUSH1 0x40 MLOAD PUSH2 0x10 SWAP1 PUSH2 0x5F JUMP JUMPDEST PUSH1 0x40 MLOAD DUP1 SWAP2 SUB SWAP1 PUSH1 0x0 CREATE DUP1 ISZERO DUP1 ISZERO PUSH2 0x2C JUMPI RETURNDATASIZE PUSH1 0x0 DUP1 RETURNDATACOPY RETURNDATASIZE PUSH1 0x0 REVERT JUMPDEST POP PUSH1 0x0 DUP1 SLOAD PUSH1 0x1 PUSH1 0x1 PUSH1 0xA0 SHL SUB NOT AND PUSH1 0x1 PUSH1 0x1 PUSH1 0xA0 SHL SUB SWAP3 SWAP1 SWAP3 AND SWAP2 SWAP1 SWAP2 OR SWAP1 SSTORE CALLVALUE DUP1 ISZERO PUSH2 0x59 JUMPI PUSH1 0x0 DUP1 REVERT JUMPDEST POP PUSH2 0x6C JUMP JUMPDEST PUSH2 0x2F2 DUP1 PUSH2 0x35F DUP4 CODECOPY ADD SWAP1 JUMP JUMPDEST PUSH2 0x2E4 DUP1 PUSH2 0x7B PUSH1 0x0 CODECOPY PUSH1 0x0 RETURN INVALID PUSH1 0x80 PUSH1 0x40 MSTORE CALLVALUE DUP1 ISZERO PUSH2 0x10 JUMPI PUSH1 0x0 DUP1 REVERT JUMPDEST POP PUSH1 0x4 CALLDATASIZE LT PUSH2 0x41 JUMPI PUSH1 0x0 CALLDATALOAD PUSH1 0xE0 SHR DUP1 PUSH4 0x5CDD2A8C EQ PUSH2 0x46 JUMPI DUP1 PUSH4 0x6C1990A5 EQ PUSH2 0x6B JUMPI DUP1 PUSH4 0xDD417EE7 EQ PUSH2 0x7E JUMPI JUMPDEST PUSH1 0x0 DUP1 REVERT JUMPDEST PUSH2 0x59 PUSH2 0x54 CALLDATASIZE PUSH1 0x4 PUSH2 0x257 JUMP JUMPDEST PUSH2 0x91 JUMP JUMPDEST PUSH1 0x40 MLOAD SWAP1 DUP2 MSTORE PUSH1 0x20 ADD PUSH1 0x40 MLOAD DUP1 SWAP2 SUB SWAP1 RETURN JUMPDEST PUSH2 0x59 PUSH2 0x79 CALLDATASIZE PUSH1 0x4 PUSH2 0x257 JUMP JUMPDEST PUSH2 0x11A JUMP JUMPDEST PUSH2 0x59 PUSH2 0x8C CALLDATASIZE PUSH1 0x4 PUSH2 0x257 JUMP JUMPDEST PUSH2 0x226 JUMP JUMPDEST PUSH1 0x0 DUP1 SLOAD PUSH1 0x40 MLOAD PUSH4 0x224D9EDD PUSH1 0xE0 SHL DUP2 MSTORE PUSH1 0x1 PUSH1 0x1 PUSH1 0xA0 SHL SUB SWAP1 SWAP2 AND SWAP1 PUSH4 0x224D9EDD SWAP1 PUSH2 0xC2 SWAP1 DUP6 SWAP1 PUSH1 0x4 ADD PUSH2 0x298 JUMP JUMPDEST PUSH1 0x20 PUSH1 0x40 MLOAD DUP1 DUP4 SUB DUP2 PUSH1 0x0 DUP8 DUP1 EXTCODESIZE ISZERO DUP1 ISZERO PUSH2 0xDC JUMPI PUSH1 0x0 DUP1 REVERT JUMPDEST POP GAS CALL ISZERO DUP1 ISZERO PUSH2 0xF0 JUMPI RETURNDATASIZE PUSH1 0x0 DUP1 RETURNDATACOPY RETURNDATASIZE PUSH1 0x0 REVERT JUMPDEST POP POP POP POP PUSH1 0x40 MLOAD RETURNDATASIZE PUSH1 0x1F NOT PUSH1 0x1F DUP3 ADD AND DUP3 ADD DUP1 PUSH1 0x40 MSTORE POP DUP2 ADD SWAP1 PUSH2 0x114 SWAP2 SWAP1 PUSH2 0x280 JUMP JUMPDEST SWAP3 SWAP2 POP POP JUMP JUMPDEST PUSH1 0x0 DUP1 SLOAD PUSH1 0x40 MLOAD PUSH4 0x224D9EDD PUSH1 0xE0 SHL DUP2 MSTORE PUSH1 0x1 PUSH1 0x1 PUSH1 0xA0 SHL SUB SWAP1 SWAP2 AND SWAP1 PUSH4 0x224D9EDD SWAP1 PUSH2 0x14B SWAP1 DUP6 SWAP1 PUSH1 0x4 ADD PUSH2 0x298 JUMP JUMPDEST PUSH1 0x20 PUSH1 0x40 MLOAD DUP1 DUP4 SUB DUP2 PUSH1 0x0 DUP8 DUP1 EXTCODESIZE ISZERO DUP1 ISZERO PUSH2 0x165 JUMPI PUSH1 0x0 DUP1 REVERT JUMPDEST POP GAS CALL ISZERO DUP1 ISZERO PUSH2 0x179 JUMPI RETURNDATASIZE PUSH1 0x0 DUP1 RETURNDATACOPY RETURNDATASIZE PUSH1 0x0 REVERT JUMPDEST POP POP POP POP PUSH1 0x40 MLOAD RETURNDATASIZE PUSH1 0x1F NOT PUSH1 0x1F DUP3 ADD AND DUP3 ADD DUP1 PUSH1 0x40 MSTORE POP DUP2 ADD SWAP1 PUSH2 0x19D SWAP2 SWAP1 PUSH2 0x280 JUMP JUMPDEST POP PUSH1 0x0 SLOAD PUSH1 0x40 MLOAD PUSH4 0xDBFDFF61 PUSH1 0xE0 SHL DUP2 MSTORE PUSH1 0x1 PUSH1 0x1 PUSH1 0xA0 SHL SUB SWAP1 SWAP2 AND SWAP1 PUSH4 0xDBFDFF61 SWAP1 PUSH2 0x1CE SWAP1 DUP6 SWAP1 PUSH1 0x4 ADD PUSH2 0x298 JUMP JUMPDEST PUSH1 0x20 PUSH1 0x40 MLOAD DUP1 DUP4 SUB DUP2 PUSH1 0x0 DUP8 DUP1 EXTCODESIZE ISZERO DUP1 ISZERO PUSH2 0x1E8 JUMPI PUSH1 0x0 DUP1 REVERT JUMPDEST POP GAS CALL ISZERO DUP1 ISZERO PUSH2 0x1FC JUMPI RETURNDATASIZE PUSH1 0x0 DUP1 RETURNDATACOPY RETURNDATASIZE PUSH1 0x0 REVERT JUMPDEST POP POP POP POP PUSH1 0x40 MLOAD RETURNDATASIZE PUSH1 0x1F NOT PUSH1 0x1F DUP3 ADD AND DUP3 ADD DUP1 PUSH1 0x40 MSTORE POP DUP2 ADD SWAP1 PUSH2 0x220 SWAP2 SWAP1 PUSH2 0x280 JUMP JUMPDEST POP SWAP2 SWAP1 POP JUMP JUMPDEST PUSH1 0x0 DUP1 SLOAD PUSH1 0x40 MLOAD PUSH4 0xDBFDFF61 PUSH1 0xE0 SHL DUP2 MSTORE PUSH1 0x1 PUSH1 0x1 PUSH1 0xA0 SHL SUB SWAP1 SWAP2 AND SWAP1 PUSH4 0xDBFDFF61 SWAP1 PUSH2 0xC2 SWAP1 DUP6 SWAP1 PUSH1 0x4 ADD PUSH2 0x298 JUMP JUMPDEST PUSH1 0x0 PUSH2 0x280 DUP1 DUP4 DUP6 SUB SLT ISZERO PUSH2 0x26A JUMPI DUP2 DUP3 REVERT JUMPDEST DUP4 DUP2 DUP5 ADD GT ISZERO PUSH2 0x278 JUMPI DUP2 DUP3 REVERT JUMPDEST POP SWAP1 SWAP3 SWAP2 POP POP JUMP JUMPDEST PUSH1 0x0 PUSH1 0x20 DUP3 DUP5 SUB SLT ISZERO PUSH2 0x291 JUMPI DUP1 DUP2 REVERT JUMPDEST POP MLOAD SWAP2 SWAP1 POP JUMP JUMPDEST PUSH2 0x280 DUP2 DUP2 ADD SWAP1 DUP1 DUP5 DUP5 CALLDATACOPY POP PUSH1 0x0 DUP2 MSTORE SWAP3 SWAP2 POP POP JUMP INVALID LOG2 PUSH5 0x6970667358 0x22 SLT KECCAK256 0xAB 0x26 SDIV BLOCKHASH 0xE8 PUSH5 0x8F04D78C90 0xF8 0xE0 SWAP3 SWAP16 SELFDESTRUCT 0xAA ADDMOD MOD CALLDATALOAD DIFFICULTY 0xD9 PUSH1 0xD3 0x4A SWAP6 0xCF 0xEF SWAP4 0xDC 0xDD ADDMOD PUSH5 0x736F6C6343 STOP ADDMOD MUL STOP CALLER PUSH1 0x80 PUSH1 0x40 MSTORE CALLVALUE DUP1 ISZERO PUSH2 0x10 JUMPI PUSH1 0x0 DUP1 REVERT JUMPDEST POP PUSH2 0x2D2 DUP1 PUSH2 0x20 PUSH1 0x0 CODECOPY PUSH1 0x0 RETURN INVALID PUSH1 0x80 PUSH1 0x40 MSTORE CALLVALUE DUP1 ISZERO PUSH2 0x10 JUMPI PUSH1 0x0 DUP1 REVERT JUMPDEST POP PUSH1 0x4 CALLDATASIZE LT PUSH2 0x41 JUMPI PUSH1 0x0 CALLDATALOAD PUSH1 0xE0 SHR DUP1 PUSH4 0x224D9EDD EQ PUSH2 0x46 JUMPI DUP1 PUSH4 0x6C1990A5 EQ PUSH2 0x6B JUMPI DUP1 PUSH4 0xDBFDFF61 EQ PUSH2 0x7E JUMPI JUMPDEST PUSH1 0x0 DUP1 REVERT JUMPDEST PUSH2 0x59 PUSH2 0x54 CALLDATASIZE PUSH1 0x4 PUSH2 0x1A8 JUMP JUMPDEST PUSH2 0x91 JUMP JUMPDEST PUSH1 0x40 MLOAD SWAP1 DUP2 MSTORE PUSH1 0x20 ADD PUSH1 0x40 MLOAD DUP1 SWAP2 SUB SWAP1 RETURN JUMPDEST PUSH2 0x59 PUSH2 0x79 CALLDATASIZE PUSH1 0x4 PUSH2 0x17F JUMP JUMPDEST PUSH2 0xAA JUMP JUMPDEST PUSH2 0x59 PUSH2 0x8C CALLDATASIZE PUSH1 0x4 PUSH2 0x17F JUMP JUMPDEST PUSH2 0x16E JUMP JUMPDEST PUSH1 0x20 DUP2 ADD MLOAD PUSH1 0x0 SWAP1 PUSH2 0xA4 SWAP1 PUSH1 0x2 PUSH2 0x25B JUMP JUMPDEST SWAP3 SWAP2 POP POP JUMP JUMPDEST PUSH1 0x0 PUSH2 0xDE DUP3 PUSH1 0x14 DUP1 PUSH1 0x20 MUL PUSH1 0x40 MLOAD SWAP1 DUP2 ADD PUSH1 0x40 MSTORE DUP1 SWAP3 SWAP2 SWAP1 DUP3 PUSH1 0x14 PUSH1 0x20 MUL DUP1 DUP3 DUP5 CALLDATACOPY PUSH1 0x0 SWAP3 ADD SWAP2 SWAP1 SWAP2 MSTORE POP PUSH2 0x91 SWAP2 POP POP JUMP JUMPDEST POP PUSH1 0x40 MLOAD PUSH4 0xDBFDFF61 PUSH1 0xE0 SHL DUP2 MSTORE ADDRESS SWAP1 PUSH4 0xDBFDFF61 SWAP1 PUSH2 0x102 SWAP1 DUP6 SWAP1 PUSH1 0x4 ADD PUSH2 0x245 JUMP JUMPDEST PUSH1 0x20 PUSH1 0x40 MLOAD DUP1 DUP4 SUB DUP2 PUSH1 0x0 DUP8 DUP1 EXTCODESIZE ISZERO DUP1 ISZERO PUSH2 0x11C JUMPI PUSH1 0x0 DUP1 REVERT JUMPDEST POP GAS CALL ISZERO DUP1 ISZERO PUSH2 0x130 JUMPI RETURNDATASIZE PUSH1 0x0 DUP1 RETURNDATACOPY RETURNDATASIZE PUSH1 0x0 REVERT JUMPDEST POP POP POP POP PUSH1 0x40 MLOAD RETURNDATASIZE PUSH1 0x1F NOT PUSH1 0x1F DUP3 ADD AND DUP3 ADD DUP1 PUSH1 0x40 MSTORE POP DUP2 ADD SWAP1 PUSH2 0x154 SWAP2 SWAP1 PUSH2 0x22D JUMP JUMPDEST POP PUSH2 0x15E DUP3 PUSH2 0x16E JUMP JUMPDEST POP PUSH2 0x168 DUP3 PUSH2 0x16E JUMP JUMPDEST POP SWAP2 SWAP1 POP JUMP JUMPDEST PUSH1 0x0 PUSH2 0xA4 PUSH1 0x20 DUP4 ADD CALLDATALOAD PUSH1 0x2 PUSH2 0x25B JUMP JUMPDEST PUSH1 0x0 PUSH2 0x280 DUP1 DUP4 DUP6 SUB SLT ISZERO PUSH2 0x192 JUMPI DUP2 DUP3 REVERT JUMPDEST DUP4 DUP2 DUP5 ADD GT ISZERO PUSH2 0x1A0 JUMPI DUP2 DUP3 REVERT JUMPDEST POP SWAP1 SWAP3 SWAP2 POP POP JUMP JUMPDEST PUSH1 0x0 PUSH2 0x280 DUP1 DUP4 DUP6 SUB SLT ISZERO PUSH2 0x1BB JUMPI DUP2 DUP3 REVERT JUMPDEST DUP4 PUSH1 0x1F DUP5 ADD SLT PUSH2 0x1C9 JUMPI DUP2 DUP3 REVERT JUMPDEST PUSH1 0x40 MLOAD DUP2 DUP2 ADD DUP2 DUP2 LT PUSH8 0xFFFFFFFFFFFFFFFF DUP3 GT OR ISZERO PUSH2 0x1EB JUMPI PUSH2 0x1EB PUSH2 0x286 JUMP JUMPDEST PUSH1 0x40 MSTORE DUP1 DUP5 DUP4 DUP2 ADD DUP8 LT ISZERO PUSH2 0x1FE JUMPI DUP5 DUP6 REVERT JUMPDEST DUP5 SWAP4 POP JUMPDEST PUSH1 0x14 DUP5 LT ISZERO PUSH2 0x222 JUMPI DUP1 CALLDATALOAD DUP3 MSTORE PUSH1 0x1 SWAP4 SWAP1 SWAP4 ADD SWAP3 PUSH1 0x20 SWAP2 DUP3 ADD SWAP2 ADD PUSH2 0x202 JUMP JUMPDEST POP SWAP1 SWAP6 SWAP5 POP POP POP POP POP JUMP JUMPDEST PUSH1 0x0 PUSH1 0x20 DUP3 DUP5 SUB SLT ISZERO PUSH2 0x23E JUMPI DUP1 DUP2 REVERT JUMPDEST POP MLOAD SWAP2 SWAP1 POP JUMP JUMPDEST PUSH2 0x280 DUP2 DUP2 ADD SWAP1 DUP1 DUP5 DUP5 CALLDATACOPY POP PUSH1 0x0 DUP2 MSTORE SWAP3 SWAP2 POP POP JUMP JUMPDEST PUSH1 0x0 DUP2 PUSH1 0x0 NOT DIV DUP4 GT DUP3 ISZERO ISZERO AND ISZERO PUSH2 0x281 JUMPI PUSH4 0x4E487B71 PUSH1 0xE0 SHL DUP2 MSTORE PUSH1 0x11 PUSH1 0x4 MSTORE PUSH1 0x24 DUP2 REVERT JUMPDEST POP MUL SWAP1 JUMP JUMPDEST PUSH4 0x4E487B71 PUSH1 0xE0 SHL PUSH1 0x0 MSTORE PUSH1 0x41 PUSH1 0x4 MSTORE PUSH1 0x24 PUSH1 0x0 REVERT INVALID LOG2 PUSH5 0x6970667358 0x22 SLT KECCAK256 SWAP3 POP 0xEA 0xC3 SWAP1 CALLDATALOAD 0xAB PUSH27 0xCDE9525A1D8FDFCC91023BD90B1E39D3D70F959B1514D56E64736F PUSH13 0x63430008020033000000000000 "
		},
		"gasEstimates": {
			"creation": {
				"codeDepositCost": "148000",
				"executionCost": "infinite",
				"totalCost": "infinite"
			},
			"external": {
				"call(uint256[20])": "infinite",
				"callExt(uint256[20])": "infinite",
				"callPub(uint256[20])": "infinite"
			}
		},
		"methodIdentifiers": {
			"call(uint256[20])": "6c1990a5",
			"callExt(uint256[20])": "dd417ee7",
			"callPub(uint256[20])": "5cdd2a8c"
		}
	},
	"abi": [
		{
			"inputs": [
				{
					"internalType": "uint256[20]",
					"name": "x",
					"type": "uint256[20]"
				}
			],
			"name": "call",
			"outputs": [
				{
					"internalType": "uint256",
					"name": "",
					"type": "uint256"
				}
			],
			"stateMutability": "nonpayable",
			"type": "function"
		},
		{
			"inputs": [
				{
					"internalType": "uint256[20]",
					"name": "x",
					"type": "uint256[20]"
				}
			],
			"name": "callExt",
			"outputs": [
				{
					"internalType": "uint256",
					"name": "",
					"type": "uint256"
				}
			],
			"stateMutability": "nonpayable",
			"type": "function"
		},
		{
			"inputs": [
				{
					"internalType": "uint256[20]",
					"name": "x",
					"type": "uint256[20]"
				}
			],
			"name": "callPub",
			"outputs": [
				{
					"internalType": "uint256",
					"name": "",
					"type": "uint256"
				}
			],
			"stateMutability": "nonpayable",
			"type": "function"
		}
	]
}