{
	"data": {
		"bytecode": {
			"linkReferences": {},
			"object": "608060405234801561001057600080fd5b5060c78061001f6000396000f3fe6080604052348015600f57600080fd5b506004361060325760003560e01c806313ec6f481460375780634a0896c6146047575b600080fd5b60456042366004607a565b50565b005b60456052366004607a565b6058605c565b5050565b6040518060e001604052806007906020820280368337509192915050565b600060208284031215608a578081fd5b503591905056fea264697066735822122026f1e8545cb849ddf1d5ae844ce15c49a2fb1f9e82f92992462b7746dde9c7f764736f6c63430008020033",
			"opcodes": "PUSH1 0x80 PUSH1 0x40 MSTORE CALLVALUE DUP1 ISZERO PUSH2 0x10 JUMPI PUSH1 0x0 DUP1 REVERT JUMPDEST POP PUSH1 0xC7 DUP1 PUSH2 0x1F PUSH1 0x0 CODECOPY PUSH1 0x0 RETURN INVALID PUSH1 0x80 PUSH1 0x40 MSTORE CALLVALUE DUP1 ISZERO PUSH1 0xF JUMPI PUSH1 0x0 DUP1 REVERT JUMPDEST POP PUSH1 0x4 CALLDATASIZE LT PUSH1 0x32 JUMPI PUSH1 0x0 CALLDATALOAD PUSH1 0xE0 SHR DUP1 PUSH4 0x13EC6F48 EQ PUSH1 0x37 JUMPI DUP1 PUSH4 0x4A0896C6 EQ PUSH1 0x47 JUMPI JUMPDEST PUSH1 0x0 DUP1 REVERT JUMPDEST PUSH1 0x45 PUSH1 0x42 CALLDATASIZE PUSH1 0x4 PUSH1 0x7A JUMP JUMPDEST POP JUMP JUMPDEST STOP JUMPDEST PUSH1 0x45 PUSH1 0x52 CALLDATASIZE PUSH1 0x4 PUSH1 0x7A JUMP JUMPDEST PUSH1 0x58 PUSH1 0x5C JUMP JUMPDEST POP POP JUMP JUMPDEST PUSH1 0x40 MLOAD DUP1 PUSH1 0xE0 ADD PUSH1 0x40 MSTORE DUP1 PUSH1 0x7 SWAP1 PUSH1 0x20 DUP3 MUL DUP1 CALLDATASIZE DUP4 CALLDATACOPY POP SWAP2 SWAP3 SWAP2 POP POP JUMP JUMPDEST PUSH1 0x0 PUSH1 0x20 DUP3 DUP5 SUB SLT ISZERO PUSH1 0x8A JUMPI DUP1 DUP2 REVERT JUMPDEST POP CALLDATALOAD SWAP2 SWAP1 POP JUMP INVALID LOG2 PUSH5 0x6970667358 0x22 SLT KECCAK256 0x26 CALL 0xE8 SLOAD 0x5C 0xB8 0x49 0xDD CALL 0xD5 0xAE DUP5 0x4C 0xE1 0x5C 0x49 LOG2 0xFB 0x1F SWAP15 DUP3 0xF9 0x29 SWAP3 CHAINID 0x2B PUSH24 0x46DDE9C7F764736F6C634300080200330000000000000000 "
		},
		"gasEstimates": {
			"creation": {
				"codeDepositCost": "39800",
				"executionCost": "93",
				"totalCost": "39893"
			},
			"external": {
				"bar1(uint256)": "349",
				"bar2(uint256)": "189"
			}
		},
		"methodIdentifiers": {
			"bar1(uint256)": "4a0896c6",
			"bar2(uint256)": "13ec6f48"
		}
	},
	"abi": [
		{
			"inputs": [
				{
					"internalType": "uint256",
					"name": "x",
					"type": "uint256"
				}
			],
			"name": "bar1",
			"outputs": [],
			"stateMutability": "nonpayable",
			"type": "function"
		},
		{
			"inputs": [
				{
					"internalType": "uint256",
					"name": "x",
					"type": "uint256"
				}
			],
			"name": "bar2",
			"outputs": [],
			"stateMutability": "nonpayable",
			"type": "function"
		}
	]
}