{
	"data": {
		"bytecode": {
			"linkReferences": {},
			"object": "608060405234801561001057600080fd5b506102b7806100206000396000f3fe608060405234801561001057600080fd5b506004361061002b5760003560e01c8063fe7fb65d14610030575b600080fd5b61004a600480360381019061004591906100eb565b610060565b60405161005791906101c0565b60405180910390f35b6000806000905086888a8c8e61007691906101db565b61008091906101db565b61008a91906101db565b61009491906101db565b905082848688846100a591906101db565b6100af91906101db565b6100b991906101db565b6100c391906101db565b9050809150509998505050505050505050565b6000813590506100e58161026a565b92915050565b60008060008060008060008060006101208a8c03121561010a57600080fd5b60006101188c828d016100d6565b99505060206101298c828d016100d6565b985050604061013a8c828d016100d6565b975050606061014b8c828d016100d6565b965050608061015c8c828d016100d6565b95505060a061016d8c828d016100d6565b94505060c061017e8c828d016100d6565b93505060e061018f8c828d016100d6565b9250506101006101a18c828d016100d6565b9150509295985092959850929598565b6101ba81610231565b82525050565b60006020820190506101d560008301846101b1565b92915050565b60006101e682610231565b91506101f183610231565b9250827fffffffffffffffffffffffffffffffffffffffffffffffffffffffffffffffff038211156102265761022561023b565b5b828201905092915050565b6000819050919050565b7f4e487b7100000000000000000000000000000000000000000000000000000000600052601160045260246000fd5b61027381610231565b811461027e57600080fd5b5056fea2646970667358221220d0f0799faa17e335ef8e6af6261a6862854e21e687242a62abdefdc65c423ecf64736f6c63430008010033",
			"opcodes": "PUSH1 0x80 PUSH1 0x40 MSTORE CALLVALUE DUP1 ISZERO PUSH2 0x10 JUMPI PUSH1 0x0 DUP1 REVERT JUMPDEST POP PUSH2 0x2B7 DUP1 PUSH2 0x20 PUSH1 0x0 CODECOPY PUSH1 0x0 RETURN INVALID PUSH1 0x80 PUSH1 0x40 MSTORE CALLVALUE DUP1 ISZERO PUSH2 0x10 JUMPI PUSH1 0x0 DUP1 REVERT JUMPDEST POP PUSH1 0x4 CALLDATASIZE LT PUSH2 0x2B JUMPI PUSH1 0x0 CALLDATALOAD PUSH1 0xE0 SHR DUP1 PUSH4 0xFE7FB65D EQ PUSH2 0x30 JUMPI JUMPDEST PUSH1 0x0 DUP1 REVERT JUMPDEST PUSH2 0x4A PUSH1 0x4 DUP1 CALLDATASIZE SUB DUP2 ADD SWAP1 PUSH2 0x45 SWAP2 SWAP1 PUSH2 0xEB JUMP JUMPDEST PUSH2 0x60 JUMP JUMPDEST PUSH1 0x40 MLOAD PUSH2 0x57 SWAP2 SWAP1 PUSH2 0x1C0 JUMP JUMPDEST PUSH1 0x40 MLOAD DUP1 SWAP2 SUB SWAP1 RETURN JUMPDEST PUSH1 0x0 DUP1 PUSH1 0x0 SWAP1 POP DUP7 DUP9 DUP11 DUP13 DUP15 PUSH2 0x76 SWAP2 SWAP1 PUSH2 0x1DB JUMP JUMPDEST PUSH2 0x80 SWAP2 SWAP1 PUSH2 0x1DB JUMP JUMPDEST PUSH2 0x8A SWAP2 SWAP1 PUSH2 0x1DB JUMP JUMPDEST PUSH2 0x94 SWAP2 SWAP1 PUSH2 0x1DB JUMP JUMPDEST SWAP1 POP DUP3 DUP5 DUP7 DUP9 DUP5 PUSH2 0xA5 SWAP2 SWAP1 PUSH2 0x1DB JUMP JUMPDEST PUSH2 0xAF SWAP2 SWAP1 PUSH2 0x1DB JUMP JUMPDEST PUSH2 0xB9 SWAP2 SWAP1 PUSH2 0x1DB JUMP JUMPDEST PUSH2 0xC3 SWAP2 SWAP1 PUSH2 0x1DB JUMP JUMPDEST SWAP1 POP DUP1 SWAP2 POP POP SWAP10 SWAP9 POP POP POP POP POP POP POP POP POP JUMP JUMPDEST PUSH1 0x0 DUP2 CALLDATALOAD SWAP1 POP PUSH2 0xE5 DUP2 PUSH2 0x26A JUMP JUMPDEST SWAP3 SWAP2 POP POP JUMP JUMPDEST PUSH1 0x0 DUP1 PUSH1 0x0 DUP1 PUSH1 0x0 DUP1 PUSH1 0x0 DUP1 PUSH1 0x0 PUSH2 0x120 DUP11 DUP13 SUB SLT ISZERO PUSH2 0x10A JUMPI PUSH1 0x0 DUP1 REVERT JUMPDEST PUSH1 0x0 PUSH2 0x118 DUP13 DUP3 DUP14 ADD PUSH2 0xD6 JUMP JUMPDEST SWAP10 POP POP PUSH1 0x20 PUSH2 0x129 DUP13 DUP3 DUP14 ADD PUSH2 0xD6 JUMP JUMPDEST SWAP9 POP POP PUSH1 0x40 PUSH2 0x13A DUP13 DUP3 DUP14 ADD PUSH2 0xD6 JUMP JUMPDEST SWAP8 POP POP PUSH1 0x60 PUSH2 0x14B DUP13 DUP3 DUP14 ADD PUSH2 0xD6 JUMP JUMPDEST SWAP7 POP POP PUSH1 0x80 PUSH2 0x15C DUP13 DUP3 DUP14 ADD PUSH2 0xD6 JUMP JUMPDEST SWAP6 POP POP PUSH1 0xA0 PUSH2 0x16D DUP13 DUP3 DUP14 ADD PUSH2 0xD6 JUMP JUMPDEST SWAP5 POP POP PUSH1 0xC0 PUSH2 0x17E DUP13 DUP3 DUP14 ADD PUSH2 0xD6 JUMP JUMPDEST SWAP4 POP POP PUSH1 0xE0 PUSH2 0x18F DUP13 DUP3 DUP14 ADD PUSH2 0xD6 JUMP JUMPDEST SWAP3 POP POP PUSH2 0x100 PUSH2 0x1A1 DUP13 DUP3 DUP14 ADD PUSH2 0xD6 JUMP JUMPDEST SWAP2 POP POP SWAP3 SWAP6 SWAP9 POP SWAP3 SWAP6 SWAP9 POP SWAP3 SWAP6 SWAP9 JUMP JUMPDEST PUSH2 0x1BA DUP2 PUSH2 0x231 JUMP JUMPDEST DUP3 MSTORE POP POP JUMP JUMPDEST PUSH1 0x0 PUSH1 0x20 DUP3 ADD SWAP1 POP PUSH2 0x1D5 PUSH1 0x0 DUP4 ADD DUP5 PUSH2 0x1B1 JUMP JUMPDEST SWAP3 SWAP2 POP POP JUMP JUMPDEST PUSH1 0x0 PUSH2 0x1E6 DUP3 PUSH2 0x231 JUMP JUMPDEST SWAP2 POP PUSH2 0x1F1 DUP4 PUSH2 0x231 JUMP JUMPDEST SWAP3 POP DUP3 PUSH32 0xFFFFFFFFFFFFFFFFFFFFFFFFFFFFFFFFFFFFFFFFFFFFFFFFFFFFFFFFFFFFFFFF SUB DUP3 GT ISZERO PUSH2 0x226 JUMPI PUSH2 0x225 PUSH2 0x23B JUMP JUMPDEST JUMPDEST DUP3 DUP3 ADD SWAP1 POP SWAP3 SWAP2 POP POP JUMP JUMPDEST PUSH1 0x0 DUP2 SWAP1 POP SWAP2 SWAP1 POP JUMP JUMPDEST PUSH32 0x4E487B7100000000000000000000000000000000000000000000000000000000 PUSH1 0x0 MSTORE PUSH1 0x11 PUSH1 0x4 MSTORE PUSH1 0x24 PUSH1 0x0 REVERT JUMPDEST PUSH2 0x273 DUP2 PUSH2 0x231 JUMP JUMPDEST DUP2 EQ PUSH2 0x27E JUMPI PUSH1 0x0 DUP1 REVERT JUMPDEST POP JUMP INVALID LOG2 PUSH5 0x6970667358 0x22 SLT KECCAK256 0xD0 CREATE PUSH26 0x9FAA17E335EF8E6AF6261A6862854E21E687242A62ABDEFDC65C TIMESTAMP RETURNDATACOPY 0xCF PUSH5 0x736F6C6343 STOP ADDMOD ADD STOP CALLER "
		},
		"gasEstimates": {
			"creation": {
				"codeDepositCost": "139000",
				"executionCost": "183",
				"totalCost": "139183"
			},
			"external": {
				"functionStack(uint256,uint256,uint256,uint256,uint256,uint256,uint256,uint256,uint256)": "infinite"
			}
		},
		"methodIdentifiers": {
			"functionStack(uint256,uint256,uint256,uint256,uint256,uint256,uint256,uint256,uint256)": "fe7fb65d"
		}
	},
	"abi": [
		{
			"inputs": [
				{
					"internalType": "uint256",
					"name": "X1",
					"type": "uint256"
				},
				{
					"internalType": "uint256",
					"name": "X2",
					"type": "uint256"
				},
				{
					"internalType": "uint256",
					"name": "X3",
					"type": "uint256"
				},
				{
					"internalType": "uint256",
					"name": "X4",
					"type": "uint256"
				},
				{
					"internalType": "uint256",
					"name": "X5",
					"type": "uint256"
				},
				{
					"internalType": "uint256",
					"name": "X6",
					"type": "uint256"
				},
				{
					"internalType": "uint256",
					"name": "X7",
					"type": "uint256"
				},
				{
					"internalType": "uint256",
					"name": "X8",
					"type": "uint256"
				},
				{
					"internalType": "uint256",
					"name": "X9",
					"type": "uint256"
				}
			],
			"name": "functionStack",
			"outputs": [
				{
					"internalType": "uint256",
					"name": "result",
					"type": "uint256"
				}
			],
			"stateMutability": "pure",
			"type": "function"
		}
	]
}