{
	"data": {
		"bytecode": {
			"linkReferences": {},
			"object": "608060405234801561001057600080fd5b5061019c806100206000396000f3fe608060405234801561001057600080fd5b50600436106100415760003560e01c8063995e922814610046578063e0f989551461006e578063f8a8fd6d1461008f575b600080fd5b610059610054366004610109565b610097565b60405190151581526020015b60405180910390f35b61008161007c36600461012a565b6100b9565b604051908152602001610065565b6100596100dd565b6000600183831c81169081146100ae5760006100b1565b60015b949350505050565b600081156100cd57506001821b83176100d6565b506001821b1983165b9392505050565b6000806001905060006100f360005482846100b9565b60008190556101029082610097565b9250505090565b6000806040838503121561011b578182fd5b50508035926020909101359150565b60008060006060848603121561013e578081fd5b83359250602084013591506040840135801515811461015b578182fd5b80915050925092509256fea264697066735822122025a76a48dc2abd8391728ebaaf0dff2afc2cd3f0bda3691e955e03d6c74915b464736f6c63430008020033",
			"opcodes": "PUSH1 0x80 PUSH1 0x40 MSTORE CALLVALUE DUP1 ISZERO PUSH2 0x10 JUMPI PUSH1 0x0 DUP1 REVERT JUMPDEST POP PUSH2 0x19C DUP1 PUSH2 0x20 PUSH1 0x0 CODECOPY PUSH1 0x0 RETURN INVALID PUSH1 0x80 PUSH1 0x40 MSTORE CALLVALUE DUP1 ISZERO PUSH2 0x10 JUMPI PUSH1 0x0 DUP1 REVERT JUMPDEST POP PUSH1 0x4 CALLDATASIZE LT PUSH2 0x41 JUMPI PUSH1 0x0 CALLDATALOAD PUSH1 0xE0 SHR DUP1 PUSH4 0x995E9228 EQ PUSH2 0x46 JUMPI DUP1 PUSH4 0xE0F98955 EQ PUSH2 0x6E JUMPI DUP1 PUSH4 0xF8A8FD6D EQ PUSH2 0x8F JUMPI JUMPDEST PUSH1 0x0 DUP1 REVERT JUMPDEST PUSH2 0x59 PUSH2 0x54 CALLDATASIZE PUSH1 0x4 PUSH2 0x109 JUMP JUMPDEST PUSH2 0x97 JUMP JUMPDEST PUSH1 0x40 MLOAD SWAP1 ISZERO ISZERO DUP2 MSTORE PUSH1 0x20 ADD JUMPDEST PUSH1 0x40 MLOAD DUP1 SWAP2 SUB SWAP1 RETURN JUMPDEST PUSH2 0x81 PUSH2 0x7C CALLDATASIZE PUSH1 0x4 PUSH2 0x12A JUMP JUMPDEST PUSH2 0xB9 JUMP JUMPDEST PUSH1 0x40 MLOAD SWAP1 DUP2 MSTORE PUSH1 0x20 ADD PUSH2 0x65 JUMP JUMPDEST PUSH2 0x59 PUSH2 0xDD JUMP JUMPDEST PUSH1 0x0 PUSH1 0x1 DUP4 DUP4 SHR DUP2 AND SWAP1 DUP2 EQ PUSH2 0xAE JUMPI PUSH1 0x0 PUSH2 0xB1 JUMP JUMPDEST PUSH1 0x1 JUMPDEST SWAP5 SWAP4 POP POP POP POP JUMP JUMPDEST PUSH1 0x0 DUP2 ISZERO PUSH2 0xCD JUMPI POP PUSH1 0x1 DUP3 SHL DUP4 OR PUSH2 0xD6 JUMP JUMPDEST POP PUSH1 0x1 DUP3 SHL NOT DUP4 AND JUMPDEST SWAP4 SWAP3 POP POP POP JUMP JUMPDEST PUSH1 0x0 DUP1 PUSH1 0x1 SWAP1 POP PUSH1 0x0 PUSH2 0xF3 PUSH1 0x0 SLOAD DUP3 DUP5 PUSH2 0xB9 JUMP JUMPDEST PUSH1 0x0 DUP2 SWAP1 SSTORE PUSH2 0x102 SWAP1 DUP3 PUSH2 0x97 JUMP JUMPDEST SWAP3 POP POP POP SWAP1 JUMP JUMPDEST PUSH1 0x0 DUP1 PUSH1 0x40 DUP4 DUP6 SUB SLT ISZERO PUSH2 0x11B JUMPI DUP2 DUP3 REVERT JUMPDEST POP POP DUP1 CALLDATALOAD SWAP3 PUSH1 0x20 SWAP1 SWAP2 ADD CALLDATALOAD SWAP2 POP JUMP JUMPDEST PUSH1 0x0 DUP1 PUSH1 0x0 PUSH1 0x60 DUP5 DUP7 SUB SLT ISZERO PUSH2 0x13E JUMPI DUP1 DUP2 REVERT JUMPDEST DUP4 CALLDATALOAD SWAP3 POP PUSH1 0x20 DUP5 ADD CALLDATALOAD SWAP2 POP PUSH1 0x40 DUP5 ADD CALLDATALOAD DUP1 ISZERO ISZERO DUP2 EQ PUSH2 0x15B JUMPI DUP2 DUP3 REVERT JUMPDEST DUP1 SWAP2 POP POP SWAP3 POP SWAP3 POP SWAP3 JUMP INVALID LOG2 PUSH5 0x6970667358 0x22 SLT KECCAK256 0x25 0xA7 PUSH11 0x48DC2ABD8391728EBAAF0D SELFDESTRUCT 0x2A 0xFC 0x2C 0xD3 CREATE 0xBD LOG3 PUSH10 0x1E955E03D6C74915B464 PUSH20 0x6F6C634300080200330000000000000000000000 "
		},
		"gasEstimates": {
			"creation": {
				"codeDepositCost": "82400",
				"executionCost": "129",
				"totalCost": "82529"
			},
			"external": {
				"getBoolean(uint256,uint256)": "346",
				"setBoolean(uint256,uint256,bool)": "426",
				"test()": "21244"
			}
		},
		"methodIdentifiers": {
			"getBoolean(uint256,uint256)": "995e9228",
			"setBoolean(uint256,uint256,bool)": "e0f98955",
			"test()": "f8a8fd6d"
		}
	},
	"abi": [
		{
			"inputs": [
				{
					"internalType": "uint256",
					"name": "packedBools",
					"type": "uint256"
				},
				{
					"internalType": "uint256",
					"name": "boolNumber",
					"type": "uint256"
				}
			],
			"name": "getBoolean",
			"outputs": [
				{
					"internalType": "bool",
					"name": "",
					"type": "bool"
				}
			],
			"stateMutability": "view",
			"type": "function"
		},
		{
			"inputs": [
				{
					"internalType": "uint256",
					"name": "packedBools",
					"type": "uint256"
				},
				{
					"internalType": "uint256",
					"name": "boolNumber",
					"type": "uint256"
				},
				{
					"internalType": "bool",
					"name": "value",
					"type": "bool"
				}
			],
			"name": "setBoolean",
			"outputs": [
				{
					"internalType": "uint256",
					"name": "",
					"type": "uint256"
				}
			],
			"stateMutability": "view",
			"type": "function"
		},
		{
			"inputs": [],
			"name": "test",
			"outputs": [
				{
					"internalType": "bool",
					"name": "",
					"type": "bool"
				}
			],
			"stateMutability": "nonpayable",
			"type": "function"
		}
	]
}