{
	"data": {
		"bytecode": {
			"linkReferences": {},
			"object": "608060405234801561001057600080fd5b5061017d806100206000396000f3fe608060405234801561001057600080fd5b50600436106100365760003560e01c80637e4406a51461003b578063bbcb77a11461005e575b600080fd5b61004c61004936600461012f565b90565b60405190815260200160405180910390f35b61004c61006c3660046100a1565b505050505050506001600160a01b039490941660c09390931b9290921760d09190911b1760e09190911b1760fc9190911b1790565b6000806000806000806000806000806000806101808d8f0312156100c3578788fd5b8c356001600160a01b03811681146100d9578889fd5b9e60208e01359e5060408e01359d60608101359d5060808101359c5060a08101359b5060c08101359a5060e081013599506101008101359850610120810135975061014081013596506101600135945092505050565b600060208284031215610140578081fd5b503591905056fea26469706673582212203f3756fb56f6bd59c51a8cb4eb3681dc269920084721a54c92187920b5622cd664736f6c63430008020033",
			"opcodes": "PUSH1 0x80 PUSH1 0x40 MSTORE CALLVALUE DUP1 ISZERO PUSH2 0x10 JUMPI PUSH1 0x0 DUP1 REVERT JUMPDEST POP PUSH2 0x17D DUP1 PUSH2 0x20 PUSH1 0x0 CODECOPY PUSH1 0x0 RETURN INVALID PUSH1 0x80 PUSH1 0x40 MSTORE CALLVALUE DUP1 ISZERO PUSH2 0x10 JUMPI PUSH1 0x0 DUP1 REVERT JUMPDEST POP PUSH1 0x4 CALLDATASIZE LT PUSH2 0x36 JUMPI PUSH1 0x0 CALLDATALOAD PUSH1 0xE0 SHR DUP1 PUSH4 0x7E4406A5 EQ PUSH2 0x3B JUMPI DUP1 PUSH4 0xBBCB77A1 EQ PUSH2 0x5E JUMPI JUMPDEST PUSH1 0x0 DUP1 REVERT JUMPDEST PUSH2 0x4C PUSH2 0x49 CALLDATASIZE PUSH1 0x4 PUSH2 0x12F JUMP JUMPDEST SWAP1 JUMP JUMPDEST PUSH1 0x40 MLOAD SWAP1 DUP2 MSTORE PUSH1 0x20 ADD PUSH1 0x40 MLOAD DUP1 SWAP2 SUB SWAP1 RETURN JUMPDEST PUSH2 0x4C PUSH2 0x6C CALLDATASIZE PUSH1 0x4 PUSH2 0xA1 JUMP JUMPDEST POP POP POP POP POP POP POP PUSH1 0x1 PUSH1 0x1 PUSH1 0xA0 SHL SUB SWAP5 SWAP1 SWAP5 AND PUSH1 0xC0 SWAP4 SWAP1 SWAP4 SHL SWAP3 SWAP1 SWAP3 OR PUSH1 0xD0 SWAP2 SWAP1 SWAP2 SHL OR PUSH1 0xE0 SWAP2 SWAP1 SWAP2 SHL OR PUSH1 0xFC SWAP2 SWAP1 SWAP2 SHL OR SWAP1 JUMP JUMPDEST PUSH1 0x0 DUP1 PUSH1 0x0 DUP1 PUSH1 0x0 DUP1 PUSH1 0x0 DUP1 PUSH1 0x0 DUP1 PUSH1 0x0 DUP1 PUSH2 0x180 DUP14 DUP16 SUB SLT ISZERO PUSH2 0xC3 JUMPI DUP8 DUP9 REVERT JUMPDEST DUP13 CALLDATALOAD PUSH1 0x1 PUSH1 0x1 PUSH1 0xA0 SHL SUB DUP2 AND DUP2 EQ PUSH2 0xD9 JUMPI DUP9 DUP10 REVERT JUMPDEST SWAP15 PUSH1 0x20 DUP15 ADD CALLDATALOAD SWAP15 POP PUSH1 0x40 DUP15 ADD CALLDATALOAD SWAP14 PUSH1 0x60 DUP2 ADD CALLDATALOAD SWAP14 POP PUSH1 0x80 DUP2 ADD CALLDATALOAD SWAP13 POP PUSH1 0xA0 DUP2 ADD CALLDATALOAD SWAP12 POP PUSH1 0xC0 DUP2 ADD CALLDATALOAD SWAP11 POP PUSH1 0xE0 DUP2 ADD CALLDATALOAD SWAP10 POP PUSH2 0x100 DUP2 ADD CALLDATALOAD SWAP9 POP PUSH2 0x120 DUP2 ADD CALLDATALOAD SWAP8 POP PUSH2 0x140 DUP2 ADD CALLDATALOAD SWAP7 POP PUSH2 0x160 ADD CALLDATALOAD SWAP5 POP SWAP3 POP POP POP JUMP JUMPDEST PUSH1 0x0 PUSH1 0x20 DUP3 DUP5 SUB SLT ISZERO PUSH2 0x140 JUMPI DUP1 DUP2 REVERT JUMPDEST POP CALLDATALOAD SWAP2 SWAP1 POP JUMP INVALID LOG2 PUSH5 0x6970667358 0x22 SLT KECCAK256 EXTCODEHASH CALLDATACOPY JUMP 0xFB JUMP 0xF6 0xBD MSIZE 0xC5 BYTE DUP13 0xB4 0xEB CALLDATASIZE DUP2 0xDC 0x26 SWAP10 KECCAK256 ADDMOD SELFBALANCE 0x21 0xA5 0x4C SWAP3 XOR PUSH26 0x20B5622CD664736F6C6343000802003300000000000000000000 "
		},
		"gasEstimates": {
			"creation": {
				"codeDepositCost": "76200",
				"executionCost": "123",
				"totalCost": "76323"
			},
			"external": {
				"functionBig(address,uint256,uint256,uint256,uint256,uint256,uint256,uint256,uint256,uint256,uint256,uint256)": "640",
				"functionCompress(bytes32)": "235"
			}
		},
		"methodIdentifiers": {
			"functionBig(address,uint256,uint256,uint256,uint256,uint256,uint256,uint256,uint256,uint256,uint256,uint256)": "bbcb77a1",
			"functionCompress(bytes32)": "7e4406a5"
		}
	},
	"abi": [
		{
			"inputs": [
				{
					"internalType": "address",
					"name": "adr",
					"type": "address"
				},
				{
					"internalType": "uint256",
					"name": "nonce",
					"type": "uint256"
				},
				{
					"internalType": "uint256",
					"name": "takerFee",
					"type": "uint256"
				},
				{
					"internalType": "uint256",
					"name": "makerFee",
					"type": "uint256"
				},
				{
					"internalType": "uint256",
					"name": "price",
					"type": "uint256"
				},
				{
					"internalType": "uint256",
					"name": "isBool",
					"type": "uint256"
				},
				{
					"internalType": "uint256",
					"name": "X1",
					"type": "uint256"
				},
				{
					"internalType": "uint256",
					"name": "X2",
					"type": "uint256"
				},
				{
					"internalType": "uint256",
					"name": "X3",
					"type": "uint256"
				},
				{
					"internalType": "uint256",
					"name": "X4",
					"type": "uint256"
				},
				{
					"internalType": "uint256",
					"name": "X5",
					"type": "uint256"
				},
				{
					"internalType": "uint256",
					"name": "X6",
					"type": "uint256"
				}
			],
			"name": "functionBig",
			"outputs": [
				{
					"internalType": "bytes32",
					"name": "out",
					"type": "bytes32"
				}
			],
			"stateMutability": "nonpayable",
			"type": "function"
		},
		{
			"inputs": [
				{
					"internalType": "bytes32",
					"name": "variabile",
					"type": "bytes32"
				}
			],
			"name": "functionCompress",
			"outputs": [
				{
					"internalType": "bytes32",
					"name": "out",
					"type": "bytes32"
				}
			],
			"stateMutability": "nonpayable",
			"type": "function"
		}
	]
}