{
	"data": {
		"bytecode": {
			"linkReferences": {},
			"object": "608060405234801561001057600080fd5b5061014e806100206000396000f3fe608060405234801561001057600080fd5b50600436106100365760003560e01c8063619250221461003b57806367711f8f14610060575b600080fd5b61004e6100493660046100d3565b610073565b60405190815260200160405180910390f35b61004e61006e3660046100d3565b610086565b600061007f82846100f4565b9392505050565b600061009282846100f4565b90507fa9bb0fa194e939eadb11be8d62dd4a16e0f5e89f37fb73fa7f0f8446f1abba61816040516100c591815260200190565b60405180910390a192915050565b600080604083850312156100e5578182fd5b50508035926020909101359150565b6000821982111561011357634e487b7160e01b81526011600452602481fd5b50019056fea2646970667358221220d79a1f1424eaf68064352cd4e7328993cde59e3ec48259c76f69d3ebd310a6ac64736f6c63430008020033",
			"opcodes": "PUSH1 0x80 PUSH1 0x40 MSTORE CALLVALUE DUP1 ISZERO PUSH2 0x10 JUMPI PUSH1 0x0 DUP1 REVERT JUMPDEST POP PUSH2 0x14E DUP1 PUSH2 0x20 PUSH1 0x0 CODECOPY PUSH1 0x0 RETURN INVALID PUSH1 0x80 PUSH1 0x40 MSTORE CALLVALUE DUP1 ISZERO PUSH2 0x10 JUMPI PUSH1 0x0 DUP1 REVERT JUMPDEST POP PUSH1 0x4 CALLDATASIZE LT PUSH2 0x36 JUMPI PUSH1 0x0 CALLDATALOAD PUSH1 0xE0 SHR DUP1 PUSH4 0x61925022 EQ PUSH2 0x3B JUMPI DUP1 PUSH4 0x67711F8F EQ PUSH2 0x60 JUMPI JUMPDEST PUSH1 0x0 DUP1 REVERT JUMPDEST PUSH2 0x4E PUSH2 0x49 CALLDATASIZE PUSH1 0x4 PUSH2 0xD3 JUMP JUMPDEST PUSH2 0x73 JUMP JUMPDEST PUSH1 0x40 MLOAD SWAP1 DUP2 MSTORE PUSH1 0x20 ADD PUSH1 0x40 MLOAD DUP1 SWAP2 SUB SWAP1 RETURN JUMPDEST PUSH2 0x4E PUSH2 0x6E CALLDATASIZE PUSH1 0x4 PUSH2 0xD3 JUMP JUMPDEST PUSH2 0x86 JUMP JUMPDEST PUSH1 0x0 PUSH2 0x7F DUP3 DUP5 PUSH2 0xF4 JUMP JUMPDEST SWAP4 SWAP3 POP POP POP JUMP JUMPDEST PUSH1 0x0 PUSH2 0x92 DUP3 DUP5 PUSH2 0xF4 JUMP JUMPDEST SWAP1 POP PUSH32 0xA9BB0FA194E939EADB11BE8D62DD4A16E0F5E89F37FB73FA7F0F8446F1ABBA61 DUP2 PUSH1 0x40 MLOAD PUSH2 0xC5 SWAP2 DUP2 MSTORE PUSH1 0x20 ADD SWAP1 JUMP JUMPDEST PUSH1 0x40 MLOAD DUP1 SWAP2 SUB SWAP1 LOG1 SWAP3 SWAP2 POP POP JUMP JUMPDEST PUSH1 0x0 DUP1 PUSH1 0x40 DUP4 DUP6 SUB SLT ISZERO PUSH2 0xE5 JUMPI DUP2 DUP3 REVERT JUMPDEST POP POP DUP1 CALLDATALOAD SWAP3 PUSH1 0x20 SWAP1 SWAP2 ADD CALLDATALOAD SWAP2 POP JUMP JUMPDEST PUSH1 0x0 DUP3 NOT DUP3 GT ISZERO PUSH2 0x113 JUMPI PUSH4 0x4E487B71 PUSH1 0xE0 SHL DUP2 MSTORE PUSH1 0x11 PUSH1 0x4 MSTORE PUSH1 0x24 DUP2 REVERT JUMPDEST POP ADD SWAP1 JUMP INVALID LOG2 PUSH5 0x6970667358 0x22 SLT KECCAK256 0xD7 SWAP11 0x1F EQ 0x24 0xEA 0xF6 DUP1 PUSH5 0x352CD4E732 DUP10 SWAP4 0xCD 0xE5 SWAP15 RETURNDATACOPY 0xC4 DUP3 MSIZE 0xC7 PUSH16 0x69D3EBD310A6AC64736F6C6343000802 STOP CALLER "
		},
		"gasEstimates": {
			"creation": {
				"codeDepositCost": "66800",
				"executionCost": "117",
				"totalCost": "66917"
			},
			"external": {
				"hasEvent(uint256,uint256)": "1443",
				"noEvent(uint256,uint256)": "352"
			}
		},
		"methodIdentifiers": {
			"hasEvent(uint256,uint256)": "67711f8f",
			"noEvent(uint256,uint256)": "61925022"
		}
	},
	"abi": [
		{
			"anonymous": false,
			"inputs": [
				{
					"indexed": false,
					"internalType": "uint256",
					"name": "c",
					"type": "uint256"
				}
			],
			"name": "Result",
			"type": "event"
		},
		{
			"inputs": [
				{
					"internalType": "uint256",
					"name": "a",
					"type": "uint256"
				},
				{
					"internalType": "uint256",
					"name": "b",
					"type": "uint256"
				}
			],
			"name": "hasEvent",
			"outputs": [
				{
					"internalType": "uint256",
					"name": "c",
					"type": "uint256"
				}
			],
			"stateMutability": "nonpayable",
			"type": "function"
		},
		{
			"inputs": [
				{
					"internalType": "uint256",
					"name": "a",
					"type": "uint256"
				},
				{
					"internalType": "uint256",
					"name": "b",
					"type": "uint256"
				}
			],
			"name": "noEvent",
			"outputs": [
				{
					"internalType": "uint256",
					"name": "c",
					"type": "uint256"
				}
			],
			"stateMutability": "pure",
			"type": "function"
		}
	]
}