{
	"data": {
		"bytecode": {
			"linkReferences": {},
			"object": "6080604052348015600f57600080fd5b5060d68061001e6000396000f3fe6080604052348015600f57600080fd5b506004361060285760003560e01c80632dbc236614602d575b600080fd5b6000805467ffffffffffffffff1916671111111111111111176fffffffffffffffff000000000000000019166f222222222222222200000000000000001767ffffffffffffffff60801b191667333333333333333360801b176001600160c01b031667111111111111111160c21b17905500fea26469706673582212205d3d12fb251732f794d3fe7733c9ef8ae815f79874ab3f6af4340f091116976864736f6c63430008020033",
			"opcodes": "PUSH1 0x80 PUSH1 0x40 MSTORE CALLVALUE DUP1 ISZERO PUSH1 0xF JUMPI PUSH1 0x0 DUP1 REVERT JUMPDEST POP PUSH1 0xD6 DUP1 PUSH2 0x1E PUSH1 0x0 CODECOPY PUSH1 0x0 RETURN INVALID PUSH1 0x80 PUSH1 0x40 MSTORE CALLVALUE DUP1 ISZERO PUSH1 0xF JUMPI PUSH1 0x0 DUP1 REVERT JUMPDEST POP PUSH1 0x4 CALLDATASIZE LT PUSH1 0x28 JUMPI PUSH1 0x0 CALLDATALOAD PUSH1 0xE0 SHR DUP1 PUSH4 0x2DBC2366 EQ PUSH1 0x2D JUMPI JUMPDEST PUSH1 0x0 DUP1 REVERT JUMPDEST PUSH1 0x0 DUP1 SLOAD PUSH8 0xFFFFFFFFFFFFFFFF NOT AND PUSH8 0x1111111111111111 OR PUSH16 0xFFFFFFFFFFFFFFFF0000000000000000 NOT AND PUSH16 0x22222222222222220000000000000000 OR PUSH8 0xFFFFFFFFFFFFFFFF PUSH1 0x80 SHL NOT AND PUSH8 0x3333333333333333 PUSH1 0x80 SHL OR PUSH1 0x1 PUSH1 0x1 PUSH1 0xC0 SHL SUB AND PUSH8 0x1111111111111111 PUSH1 0xC2 SHL OR SWAP1 SSTORE STOP INVALID LOG2 PUSH5 0x6970667358 0x22 SLT KECCAK256 0x5D RETURNDATASIZE SLT 0xFB 0x25 OR ORIGIN 0xF7 SWAP5 0xD3 INVALID PUSH24 0x33C9EF8AE815F79874AB3F6AF4340F091116976864736F6C PUSH4 0x43000802 STOP CALLER "
		},
		"gasEstimates": {
			"creation": {
				"codeDepositCost": "42800",
				"executionCost": "93",
				"totalCost": "42893"
			},
			"external": {
				"fixed12()": "20994"
			}
		},
		"methodIdentifiers": {
			"fixed12()": "2dbc2366"
		}
	},
	"abi": [
		{
			"inputs": [],
			"name": "fixed12",
			"outputs": [],
			"stateMutability": "nonpayable",
			"type": "function"
		}
	]
}