{
	"data": {
		"bytecode": {
			"linkReferences": {},
			"object": "6080604052348015600f57600080fd5b5061010f8061001f6000396000f300608060405260043610603e5763ffffffff7c010000000000000000000000000000000000000000000000000000000060003504166383dfe5fd81146043575b600080fd5b348015604e57600080fd5b5060556057565b005b600080546fffffffffffffffffffffffffffffffff191669111100000000000000001777ffffffffffffffff000000000000000000000000000000001916712222000000000000000000000000000000001777ffffffffffffffffffffffffffffffffffffffffffffffff167933330000000000000000000000000000000000000000000000001790555600a165627a7a72305820196b02274112fd29e609e58dc9c06edab5a5e65bd487581becbdb4486ed9804d0029",
			"opcodes": "PUSH1 0x80 PUSH1 0x40 MSTORE CALLVALUE DUP1 ISZERO PUSH1 0xF JUMPI PUSH1 0x0 DUP1 REVERT JUMPDEST POP PUSH2 0x10F DUP1 PUSH2 0x1F PUSH1 0x0 CODECOPY PUSH1 0x0 RETURN STOP PUSH1 0x80 PUSH1 0x40 MSTORE PUSH1 0x4 CALLDATASIZE LT PUSH1 0x3E JUMPI PUSH4 0xFFFFFFFF PUSH29 0x100000000000000000000000000000000000000000000000000000000 PUSH1 0x0 CALLDATALOAD DIV AND PUSH4 0x83DFE5FD DUP2 EQ PUSH1 0x43 JUMPI JUMPDEST PUSH1 0x0 DUP1 REVERT JUMPDEST CALLVALUE DUP1 ISZERO PUSH1 0x4E JUMPI PUSH1 0x0 DUP1 REVERT JUMPDEST POP PUSH1 0x55 PUSH1 0x57 JUMP JUMPDEST STOP JUMPDEST PUSH1 0x0 DUP1 SLOAD PUSH16 0xFFFFFFFFFFFFFFFFFFFFFFFFFFFFFFFF NOT AND PUSH10 0x11110000000000000000 OR PUSH24 0xFFFFFFFFFFFFFFFF00000000000000000000000000000000 NOT AND PUSH18 0x222200000000000000000000000000000000 OR PUSH24 0xFFFFFFFFFFFFFFFFFFFFFFFFFFFFFFFFFFFFFFFFFFFFFFFF AND PUSH26 0x3333000000000000000000000000000000000000000000000000 OR SWAP1 SSTORE JUMP STOP LOG1 PUSH6 0x627A7A723058 KECCAK256 NOT PUSH12 0x2274112FD29E609E58DC9C0 PUSH15 0xDAB5A5E65BD487581BECBDB4486ED9 DUP1 0x4d STOP 0x29 "
		},
		"gasEstimates": {
			"creation": {
				"codeDepositCost": "54200",
				"executionCost": "105",
				"totalCost": "54305"
			},
			"external": {
				"C()": "20381"
			}
		},
		"methodIdentifiers": {
			"C()": "83dfe5fd"
		}
	},
	"abi": [
		{
			"constant": false,
			"inputs": [],
			"name": "C",
			"outputs": [],
			"payable": false,
			"stateMutability": "nonpayable",
			"type": "function"
		}
	]
}