{
	"data": {
		"bytecode": {
			"linkReferences": {},
			"object": "6080604052348015600f57600080fd5b5060938061001e6000396000f3fe6080604052348015600f57600080fd5b5060043610603c5760003560e01c80630dbe671f14604157806326121ff014605b5780634df7e3d014605b575b600080fd5b604960005481565b60405190815260200160405180910390f35b00fea26469706673582212208a9ec213be94a78f7540e1f2a9eb1580ec70ba0941d7974a07351d329b317fd764736f6c63430008020033",
			"opcodes": "PUSH1 0x80 PUSH1 0x40 MSTORE CALLVALUE DUP1 ISZERO PUSH1 0xF JUMPI PUSH1 0x0 DUP1 REVERT JUMPDEST POP PUSH1 0x93 DUP1 PUSH2 0x1E PUSH1 0x0 CODECOPY PUSH1 0x0 RETURN INVALID PUSH1 0x80 PUSH1 0x40 MSTORE CALLVALUE DUP1 ISZERO PUSH1 0xF JUMPI PUSH1 0x0 DUP1 REVERT JUMPDEST POP PUSH1 0x4 CALLDATASIZE LT PUSH1 0x3C JUMPI PUSH1 0x0 CALLDATALOAD PUSH1 0xE0 SHR DUP1 PUSH4 0xDBE671F EQ PUSH1 0x41 JUMPI DUP1 PUSH4 0x26121FF0 EQ PUSH1 0x5B JUMPI DUP1 PUSH4 0x4DF7E3D0 EQ PUSH1 0x5B JUMPI JUMPDEST PUSH1 0x0 DUP1 REVERT JUMPDEST PUSH1 0x49 PUSH1 0x0 SLOAD DUP2 JUMP JUMPDEST PUSH1 0x40 MLOAD SWAP1 DUP2 MSTORE PUSH1 0x20 ADD PUSH1 0x40 MLOAD DUP1 SWAP2 SUB SWAP1 RETURN JUMPDEST STOP INVALID LOG2 PUSH5 0x6970667358 0x22 SLT KECCAK256 DUP11 SWAP15 0xC2 SGT 0xBE SWAP5 0xA7 DUP16 PUSH22 0x40E1F2A9EB1580EC70BA0941D7974A07351D329B317F 0xD7 PUSH5 0x736F6C6343 STOP ADDMOD MUL STOP CALLER "
		},
		"gasEstimates": {
			"creation": {
				"codeDepositCost": "29400",
				"executionCost": "81",
				"totalCost": "29481"
			},
			"external": {
				"a()": "961",
				"b()": "142",
				"f()": "120"
			}
		},
		"methodIdentifiers": {
			"a()": "0dbe671f",
			"b()": "4df7e3d0",
			"f()": "26121ff0"
		}
	},
	"abi": [
		{
			"inputs": [],
			"name": "a",
			"outputs": [
				{
					"internalType": "uint256",
					"name": "",
					"type": "uint256"
				}
			],
			"stateMutability": "view",
			"type": "function"
		},
		{
			"inputs": [],
			"name": "b",
			"outputs": [],
			"stateMutability": "nonpayable",
			"type": "function"
		},
		{
			"inputs": [],
			"name": "f",
			"outputs": [],
			"stateMutability": "nonpayable",
			"type": "function"
		}
	]
}