{
	"data": {
		"bytecode": {
			"linkReferences": {},
			"object": "608060405234801561001057600080fd5b506101cd806100206000396000f3fe608060405234801561001057600080fd5b50600436106100365760003560e01c8063094f7a711461003b5780637b0c22eb14610050575b600080fd5b61004e6100493660046100f7565b610063565b005b61004e61005e3660046100f7565b6100a1565b60008060005b8381101561009b5761007b818461010f565b92506100878183610127565b91508061009381610166565b915050610069565b50505050565b60008060005b838110156100cd576100b9818461010f565b9250806100c581610166565b9150506100a7565b5060005b8381101561009b576100e38183610127565b9150806100ef81610166565b9150506100d1565b600060208284031215610108578081fd5b5035919050565b6000821982111561012257610122610181565b500190565b60008083128015600160ff1b85018412161561014557610145610181565b6001600160ff1b038401831381161561016057610160610181565b50500390565b600060001982141561017a5761017a610181565b5060010190565b634e487b7160e01b600052601160045260246000fdfea264697066735822122056abdef812334776d06f72c632ca2b51f1cec3599d0beb47b2c17af9b14b2cc364736f6c63430008020033",
			"opcodes": "PUSH1 0x80 PUSH1 0x40 MSTORE CALLVALUE DUP1 ISZERO PUSH2 0x10 JUMPI PUSH1 0x0 DUP1 REVERT JUMPDEST POP PUSH2 0x1CD DUP1 PUSH2 0x20 PUSH1 0x0 CODECOPY PUSH1 0x0 RETURN INVALID PUSH1 0x80 PUSH1 0x40 MSTORE CALLVALUE DUP1 ISZERO PUSH2 0x10 JUMPI PUSH1 0x0 DUP1 REVERT JUMPDEST POP PUSH1 0x4 CALLDATASIZE LT PUSH2 0x36 JUMPI PUSH1 0x0 CALLDATALOAD PUSH1 0xE0 SHR DUP1 PUSH4 0x94F7A71 EQ PUSH2 0x3B JUMPI DUP1 PUSH4 0x7B0C22EB EQ PUSH2 0x50 JUMPI JUMPDEST PUSH1 0x0 DUP1 REVERT JUMPDEST PUSH2 0x4E PUSH2 0x49 CALLDATASIZE PUSH1 0x4 PUSH2 0xF7 JUMP JUMPDEST PUSH2 0x63 JUMP JUMPDEST STOP JUMPDEST PUSH2 0x4E PUSH2 0x5E CALLDATASIZE PUSH1 0x4 PUSH2 0xF7 JUMP JUMPDEST PUSH2 0xA1 JUMP JUMPDEST PUSH1 0x0 DUP1 PUSH1 0x0 JUMPDEST DUP4 DUP2 LT ISZERO PUSH2 0x9B JUMPI PUSH2 0x7B DUP2 DUP5 PUSH2 0x10F JUMP JUMPDEST SWAP3 POP PUSH2 0x87 DUP2 DUP4 PUSH2 0x127 JUMP JUMPDEST SWAP2 POP DUP1 PUSH2 0x93 DUP2 PUSH2 0x166 JUMP JUMPDEST SWAP2 POP POP PUSH2 0x69 JUMP JUMPDEST POP POP POP POP JUMP JUMPDEST PUSH1 0x0 DUP1 PUSH1 0x0 JUMPDEST DUP4 DUP2 LT ISZERO PUSH2 0xCD JUMPI PUSH2 0xB9 DUP2 DUP5 PUSH2 0x10F JUMP JUMPDEST SWAP3 POP DUP1 PUSH2 0xC5 DUP2 PUSH2 0x166 JUMP JUMPDEST SWAP2 POP POP PUSH2 0xA7 JUMP JUMPDEST POP PUSH1 0x0 JUMPDEST DUP4 DUP2 LT ISZERO PUSH2 0x9B JUMPI PUSH2 0xE3 DUP2 DUP4 PUSH2 0x127 JUMP JUMPDEST SWAP2 POP DUP1 PUSH2 0xEF DUP2 PUSH2 0x166 JUMP JUMPDEST SWAP2 POP POP PUSH2 0xD1 JUMP JUMPDEST PUSH1 0x0 PUSH1 0x20 DUP3 DUP5 SUB SLT ISZERO PUSH2 0x108 JUMPI DUP1 DUP2 REVERT JUMPDEST POP CALLDATALOAD SWAP2 SWAP1 POP JUMP JUMPDEST PUSH1 0x0 DUP3 NOT DUP3 GT ISZERO PUSH2 0x122 JUMPI PUSH2 0x122 PUSH2 0x181 JUMP JUMPDEST POP ADD SWAP1 JUMP JUMPDEST PUSH1 0x0 DUP1 DUP4 SLT DUP1 ISZERO PUSH1 0x1 PUSH1 0xFF SHL DUP6 ADD DUP5 SLT AND ISZERO PUSH2 0x145 JUMPI PUSH2 0x145 PUSH2 0x181 JUMP JUMPDEST PUSH1 0x1 PUSH1 0x1 PUSH1 0xFF SHL SUB DUP5 ADD DUP4 SGT DUP2 AND ISZERO PUSH2 0x160 JUMPI PUSH2 0x160 PUSH2 0x181 JUMP JUMPDEST POP POP SUB SWAP1 JUMP JUMPDEST PUSH1 0x0 PUSH1 0x0 NOT DUP3 EQ ISZERO PUSH2 0x17A JUMPI PUSH2 0x17A PUSH2 0x181 JUMP JUMPDEST POP PUSH1 0x1 ADD SWAP1 JUMP JUMPDEST PUSH4 0x4E487B71 PUSH1 0xE0 SHL PUSH1 0x0 MSTORE PUSH1 0x11 PUSH1 0x4 MSTORE PUSH1 0x24 PUSH1 0x0 REVERT INVALID LOG2 PUSH5 0x6970667358 0x22 SLT KECCAK256 JUMP 0xAB 0xDE 0xF8 SLT CALLER SELFBALANCE PUSH23 0xD06F72C632CA2B51F1CEC3599D0BEB47B2C17AF9B14B2C 0xC3 PUSH5 0x736F6C6343 STOP ADDMOD MUL STOP CALLER "
		},
		"gasEstimates": {
			"creation": {
				"codeDepositCost": "92200",
				"executionCost": "141",
				"totalCost": "92341"
			},
			"external": {
				"combinedLoop(uint256)": "infinite",
				"dividedLoops(uint256)": "infinite"
			}
		},
		"methodIdentifiers": {
			"combinedLoop(uint256)": "094f7a71",
			"dividedLoops(uint256)": "7b0c22eb"
		}
	},
	"abi": [
		{
			"inputs": [
				{
					"internalType": "uint256",
					"name": "x",
					"type": "uint256"
				}
			],
			"name": "combinedLoop",
			"outputs": [],
			"stateMutability": "nonpayable",
			"type": "function"
		},
		{
			"inputs": [
				{
					"internalType": "uint256",
					"name": "x",
					"type": "uint256"
				}
			],
			"name": "dividedLoops",
			"outputs": [],
			"stateMutability": "nonpayable",
			"type": "function"
		}
	]
}