{
	"data": {
		"bytecode": {
			"linkReferences": {},
			"object": "60806040526000805534801561001457600080fd5b50610167806100246000396000f3fe608060405234801561001057600080fd5b50600436106100365760003560e01c8063af5a7c3e1461003b578063e81adc4014610050575b600080fd5b61004e6100493660046100d0565b610063565b005b61004e61005e3660046100d0565b610097565b60008054905b828110156100905761007c6001836100e8565b91508061008881610100565b915050610069565b5060005550565b60005b818110156100cc5760016000808282546100b491906100e8565b909155508190506100c481610100565b91505061009a565b5050565b6000602082840312156100e1578081fd5b5035919050565b600082198211156100fb576100fb61011b565b500190565b60006000198214156101145761011461011b565b5060010190565b634e487b7160e01b600052601160045260246000fdfea2646970667358221220977a7ce4713f4259fa9dde01f69a4a91ad55899312fafef8825374fe04b485ff64736f6c63430008020033",
			"opcodes": "PUSH1 0x80 PUSH1 0x40 MSTORE PUSH1 0x0 DUP1 SSTORE CALLVALUE DUP1 ISZERO PUSH2 0x14 JUMPI PUSH1 0x0 DUP1 REVERT JUMPDEST POP PUSH2 0x167 DUP1 PUSH2 0x24 PUSH1 0x0 CODECOPY PUSH1 0x0 RETURN INVALID PUSH1 0x80 PUSH1 0x40 MSTORE CALLVALUE DUP1 ISZERO PUSH2 0x10 JUMPI PUSH1 0x0 DUP1 REVERT JUMPDEST POP PUSH1 0x4 CALLDATASIZE LT PUSH2 0x36 JUMPI PUSH1 0x0 CALLDATALOAD PUSH1 0xE0 SHR DUP1 PUSH4 0xAF5A7C3E EQ PUSH2 0x3B JUMPI DUP1 PUSH4 0xE81ADC40 EQ PUSH2 0x50 JUMPI JUMPDEST PUSH1 0x0 DUP1 REVERT JUMPDEST PUSH2 0x4E PUSH2 0x49 CALLDATASIZE PUSH1 0x4 PUSH2 0xD0 JUMP JUMPDEST PUSH2 0x63 JUMP JUMPDEST STOP JUMPDEST PUSH2 0x4E PUSH2 0x5E CALLDATASIZE PUSH1 0x4 PUSH2 0xD0 JUMP JUMPDEST PUSH2 0x97 JUMP JUMPDEST PUSH1 0x0 DUP1 SLOAD SWAP1 JUMPDEST DUP3 DUP2 LT ISZERO PUSH2 0x90 JUMPI PUSH2 0x7C PUSH1 0x1 DUP4 PUSH2 0xE8 JUMP JUMPDEST SWAP2 POP DUP1 PUSH2 0x88 DUP2 PUSH2 0x100 JUMP JUMPDEST SWAP2 POP POP PUSH2 0x69 JUMP JUMPDEST POP PUSH1 0x0 SSTORE POP JUMP JUMPDEST PUSH1 0x0 JUMPDEST DUP2 DUP2 LT ISZERO PUSH2 0xCC JUMPI PUSH1 0x1 PUSH1 0x0 DUP1 DUP3 DUP3 SLOAD PUSH2 0xB4 SWAP2 SWAP1 PUSH2 0xE8 JUMP JUMPDEST SWAP1 SWAP2 SSTORE POP DUP2 SWAP1 POP PUSH2 0xC4 DUP2 PUSH2 0x100 JUMP JUMPDEST SWAP2 POP POP PUSH2 0x9A JUMP JUMPDEST POP POP JUMP JUMPDEST PUSH1 0x0 PUSH1 0x20 DUP3 DUP5 SUB SLT ISZERO PUSH2 0xE1 JUMPI DUP1 DUP2 REVERT JUMPDEST POP CALLDATALOAD SWAP2 SWAP1 POP JUMP JUMPDEST PUSH1 0x0 DUP3 NOT DUP3 GT ISZERO PUSH2 0xFB JUMPI PUSH2 0xFB PUSH2 0x11B JUMP JUMPDEST POP ADD SWAP1 JUMP JUMPDEST PUSH1 0x0 PUSH1 0x0 NOT DUP3 EQ ISZERO PUSH2 0x114 JUMPI PUSH2 0x114 PUSH2 0x11B JUMP JUMPDEST POP PUSH1 0x1 ADD SWAP1 JUMP JUMPDEST PUSH4 0x4E487B71 PUSH1 0xE0 SHL PUSH1 0x0 MSTORE PUSH1 0x11 PUSH1 0x4 MSTORE PUSH1 0x24 PUSH1 0x0 REVERT INVALID LOG2 PUSH5 0x6970667358 0x22 SLT KECCAK256 SWAP8 PUSH27 0x7CE4713F4259FA9DDE01F69A4A91AD55899312FAFEF8825374FE04 0xB4 DUP6 SELFDESTRUCT PUSH5 0x736F6C6343 STOP ADDMOD MUL STOP CALLER "
		},
		"gasEstimates": {
			"creation": {
				"codeDepositCost": "71800",
				"executionCost": "5129",
				"totalCost": "76929"
			},
			"external": {
				"expensiveLoop(uint256)": "infinite",
				"lessExpensiveLoop(uint256)": "infinite"
			}
		},
		"methodIdentifiers": {
			"expensiveLoop(uint256)": "e81adc40",
			"lessExpensiveLoop(uint256)": "af5a7c3e"
		}
	},
	"abi": [
		{
			"inputs": [
				{
					"internalType": "uint256",
					"name": "x",
					"type": "uint256"
				}
			],
			"name": "expensiveLoop",
			"outputs": [],
			"stateMutability": "nonpayable",
			"type": "function"
		},
		{
			"inputs": [
				{
					"internalType": "uint256",
					"name": "x",
					"type": "uint256"
				}
			],
			"name": "lessExpensiveLoop",
			"outputs": [],
			"stateMutability": "nonpayable",
			"type": "function"
		}
	]
}