{
	"data": {
		"bytecode": {
			"linkReferences": {},
			"object": "60806040526000805534801561001457600080fd5b50610131806100246000396000f3fe6080604052348015600f57600080fd5b506004361060325760003560e01c80637b0c22eb146037578063af5a7c3e146062575b600080fd5b606060048036036020811015604b57600080fd5b8101908080359060200190929190505050608d565b005b608b60048036036020811015607657600080fd5b810190808035906020019092919050505060cd565b005b60008060005b8381101560ab57808301925080806001019150506093565b5060005b8381101560c7578082039150808060010191505060af565b50505050565b60008054905060005b8281101560ef57600182019150808060010191505060d6565b5080600081905550505056fea2646970667358221220243eeaf735349d84327f13afbb231dbf0d1cbb406c724ec819c8d376d45178a864736f6c63430007040033",
			"opcodes": "PUSH1 0x80 PUSH1 0x40 MSTORE PUSH1 0x0 DUP1 SSTORE CALLVALUE DUP1 ISZERO PUSH2 0x14 JUMPI PUSH1 0x0 DUP1 REVERT JUMPDEST POP PUSH2 0x131 DUP1 PUSH2 0x24 PUSH1 0x0 CODECOPY PUSH1 0x0 RETURN INVALID PUSH1 0x80 PUSH1 0x40 MSTORE CALLVALUE DUP1 ISZERO PUSH1 0xF JUMPI PUSH1 0x0 DUP1 REVERT JUMPDEST POP PUSH1 0x4 CALLDATASIZE LT PUSH1 0x32 JUMPI PUSH1 0x0 CALLDATALOAD PUSH1 0xE0 SHR DUP1 PUSH4 0x7B0C22EB EQ PUSH1 0x37 JUMPI DUP1 PUSH4 0xAF5A7C3E EQ PUSH1 0x62 JUMPI JUMPDEST PUSH1 0x0 DUP1 REVERT JUMPDEST PUSH1 0x60 PUSH1 0x4 DUP1 CALLDATASIZE SUB PUSH1 0x20 DUP2 LT ISZERO PUSH1 0x4B JUMPI PUSH1 0x0 DUP1 REVERT JUMPDEST DUP2 ADD SWAP1 DUP1 DUP1 CALLDATALOAD SWAP1 PUSH1 0x20 ADD SWAP1 SWAP3 SWAP2 SWAP1 POP POP POP PUSH1 0x8D JUMP JUMPDEST STOP JUMPDEST PUSH1 0x8B PUSH1 0x4 DUP1 CALLDATASIZE SUB PUSH1 0x20 DUP2 LT ISZERO PUSH1 0x76 JUMPI PUSH1 0x0 DUP1 REVERT JUMPDEST DUP2 ADD SWAP1 DUP1 DUP1 CALLDATALOAD SWAP1 PUSH1 0x20 ADD SWAP1 SWAP3 SWAP2 SWAP1 POP POP POP PUSH1 0xCD JUMP JUMPDEST STOP JUMPDEST PUSH1 0x0 DUP1 PUSH1 0x0 JUMPDEST DUP4 DUP2 LT ISZERO PUSH1 0xAB JUMPI DUP1 DUP4 ADD SWAP3 POP DUP1 DUP1 PUSH1 0x1 ADD SWAP2 POP POP PUSH1 0x93 JUMP JUMPDEST POP PUSH1 0x0 JUMPDEST DUP4 DUP2 LT ISZERO PUSH1 0xC7 JUMPI DUP1 DUP3 SUB SWAP2 POP DUP1 DUP1 PUSH1 0x1 ADD SWAP2 POP POP PUSH1 0xAF JUMP JUMPDEST POP POP POP POP JUMP JUMPDEST PUSH1 0x0 DUP1 SLOAD SWAP1 POP PUSH1 0x0 JUMPDEST DUP3 DUP2 LT ISZERO PUSH1 0xEF JUMPI PUSH1 0x1 DUP3 ADD SWAP2 POP DUP1 DUP1 PUSH1 0x1 ADD SWAP2 POP POP PUSH1 0xD6 JUMP JUMPDEST POP DUP1 PUSH1 0x0 DUP2 SWAP1 SSTORE POP POP POP JUMP INVALID LOG2 PUSH5 0x6970667358 0x22 SLT KECCAK256 0x24 RETURNDATACOPY 0xEA 0xF7 CALLDATALOAD CALLVALUE SWAP14 DUP5 ORIGIN PUSH32 0x13AFBB231DBF0D1CBB406C724EC819C8D376D45178A864736F6C634300070400 CALLER "
		},
		"gasEstimates": {
			"creation": {
				"codeDepositCost": "61000",
				"executionCost": "5117",
				"totalCost": "66117"
			},
			"external": {
				"dividedLoops(uint256)": "infinite",
				"lessExpensiveLoop(uint256)": "infinite"
			}
		},
		"methodIdentifiers": {
			"dividedLoops(uint256)": "7b0c22eb",
			"lessExpensiveLoop(uint256)": "af5a7c3e"
		}
	},
	"abi": [
		{
			"inputs": [
				{
					"internalType": "uint256",
					"name": "x",
					"type": "uint256"
				}
			],
			"name": "dividedLoops",
			"outputs": [],
			"stateMutability": "nonpayable",
			"type": "function"
		},
		{
			"inputs": [
				{
					"internalType": "uint256",
					"name": "x",
					"type": "uint256"
				}
			],
			"name": "lessExpensiveLoop",
			"outputs": [],
			"stateMutability": "nonpayable",
			"type": "function"
		}
	]
}