{
	"data": {
		"bytecode": {
			"linkReferences": {},
			"object": "608060405234801561001057600080fd5b50610155806100206000396000f3fe608060405234801561001057600080fd5b50600436106100415760003560e01c80631e0104391461004657806358453fef1461007b57806384f23bab146100ad575b600080fd5b6100696100543660046100e6565b60009081526020819052604090206001015490565b60405190815260200160405180910390f35b6100ab6100893660046100fe565b6000918252602082815260409283902083518085019094525483529190910152565b005b6100ab6100bb3660046100fe565b6040805180820182528381526020808201938452600094855284905292209151825551600190910155565b6000602082840312156100f7578081fd5b5035919050565b60008060408385031215610110578081fd5b5050803592602090910135915056fea264697066735822122033dd7e28493a382d4340ca9ce58d3e2eb9535713a7f213bdc0e6b028c1a0022e64736f6c63430008020033",
			"opcodes": "PUSH1 0x80 PUSH1 0x40 MSTORE CALLVALUE DUP1 ISZERO PUSH2 0x10 JUMPI PUSH1 0x0 DUP1 REVERT JUMPDEST POP PUSH2 0x155 DUP1 PUSH2 0x20 PUSH1 0x0 CODECOPY PUSH1 0x0 RETURN INVALID PUSH1 0x80 PUSH1 0x40 MSTORE CALLVALUE DUP1 ISZERO PUSH2 0x10 JUMPI PUSH1 0x0 DUP1 REVERT JUMPDEST POP PUSH1 0x4 CALLDATASIZE LT PUSH2 0x41 JUMPI PUSH1 0x0 CALLDATALOAD PUSH1 0xE0 SHR DUP1 PUSH4 0x1E010439 EQ PUSH2 0x46 JUMPI DUP1 PUSH4 0x58453FEF EQ PUSH2 0x7B JUMPI DUP1 PUSH4 0x84F23BAB EQ PUSH2 0xAD JUMPI JUMPDEST PUSH1 0x0 DUP1 REVERT JUMPDEST PUSH2 0x69 PUSH2 0x54 CALLDATASIZE PUSH1 0x4 PUSH2 0xE6 JUMP JUMPDEST PUSH1 0x0 SWAP1 DUP2 MSTORE PUSH1 0x20 DUP2 SWAP1 MSTORE PUSH1 0x40 SWAP1 KECCAK256 PUSH1 0x1 ADD SLOAD SWAP1 JUMP JUMPDEST PUSH1 0x40 MLOAD SWAP1 DUP2 MSTORE PUSH1 0x20 ADD PUSH1 0x40 MLOAD DUP1 SWAP2 SUB SWAP1 RETURN JUMPDEST PUSH2 0xAB PUSH2 0x89 CALLDATASIZE PUSH1 0x4 PUSH2 0xFE JUMP JUMPDEST PUSH1 0x0 SWAP2 DUP3 MSTORE PUSH1 0x20 DUP3 DUP2 MSTORE PUSH1 0x40 SWAP3 DUP4 SWAP1 KECCAK256 DUP4 MLOAD DUP1 DUP6 ADD SWAP1 SWAP5 MSTORE SLOAD DUP4 MSTORE SWAP2 SWAP1 SWAP2 ADD MSTORE JUMP JUMPDEST STOP JUMPDEST PUSH2 0xAB PUSH2 0xBB CALLDATASIZE PUSH1 0x4 PUSH2 0xFE JUMP JUMPDEST PUSH1 0x40 DUP1 MLOAD DUP1 DUP3 ADD DUP3 MSTORE DUP4 DUP2 MSTORE PUSH1 0x20 DUP1 DUP3 ADD SWAP4 DUP5 MSTORE PUSH1 0x0 SWAP5 DUP6 MSTORE DUP5 SWAP1 MSTORE SWAP3 KECCAK256 SWAP2 MLOAD DUP3 SSTORE MLOAD PUSH1 0x1 SWAP1 SWAP2 ADD SSTORE JUMP JUMPDEST PUSH1 0x0 PUSH1 0x20 DUP3 DUP5 SUB SLT ISZERO PUSH2 0xF7 JUMPI DUP1 DUP2 REVERT JUMPDEST POP CALLDATALOAD SWAP2 SWAP1 POP JUMP JUMPDEST PUSH1 0x0 DUP1 PUSH1 0x40 DUP4 DUP6 SUB SLT ISZERO PUSH2 0x110 JUMPI DUP1 DUP2 REVERT JUMPDEST POP POP DUP1 CALLDATALOAD SWAP3 PUSH1 0x20 SWAP1 SWAP2 ADD CALLDATALOAD SWAP2 POP JUMP INVALID LOG2 PUSH5 0x6970667358 0x22 SLT KECCAK256 CALLER 0xDD PUSH31 0x28493A382D4340CA9CE58D3E2EB9535713A7F213BDC0E6B028C1A0022E6473 PUSH16 0x6C634300080200330000000000000000 "
		},
		"gasEstimates": {
			"creation": {
				"codeDepositCost": "68200",
				"executionCost": "117",
				"totalCost": "68317"
			},
			"external": {
				"addAccount(uint256,uint256)": "40407",
				"getBalance(uint256)": "1113",
				"updateBalance(uint256,uint256)": "1164"
			}
		},
		"methodIdentifiers": {
			"addAccount(uint256,uint256)": "84f23bab",
			"getBalance(uint256)": "1e010439",
			"updateBalance(uint256,uint256)": "58453fef"
		}
	},
	"abi": [
		{
			"inputs": [
				{
					"internalType": "uint256",
					"name": "id",
					"type": "uint256"
				},
				{
					"internalType": "uint256",
					"name": "balance",
					"type": "uint256"
				}
			],
			"name": "addAccount",
			"outputs": [],
			"stateMutability": "nonpayable",
			"type": "function"
		},
		{
			"inputs": [
				{
					"internalType": "uint256",
					"name": "id",
					"type": "uint256"
				}
			],
			"name": "getBalance",
			"outputs": [
				{
					"internalType": "uint256",
					"name": "",
					"type": "uint256"
				}
			],
			"stateMutability": "nonpayable",
			"type": "function"
		},
		{
			"inputs": [
				{
					"internalType": "uint256",
					"name": "id",
					"type": "uint256"
				},
				{
					"internalType": "uint256",
					"name": "balance",
					"type": "uint256"
				}
			],
			"name": "updateBalance",
			"outputs": [],
			"stateMutability": "nonpayable",
			"type": "function"
		}
	]
}