{
	"data": {
		"bytecode": {
			"linkReferences": {},
			"object": "608060405234801561001057600080fd5b5060fd8061001f6000396000f3fe6080604052348015600f57600080fd5b506004361060285760003560e01c806399c1d66814602d575b600080fd5b607460383660046091565b600080546001600160801b03938416600160801b029484166fffffffffffffffffffffffffffffffff1990911617909216929092179055600155565b005b80356001600160801b0381168114608c57600080fd5b919050565b60008060006060848603121560a4578283fd5b60ab846076565b925060b7602085016076565b915060408401359050925092509256fea2646970667358221220d5ade622227e97ba9e1bb76dbd498a08ac28a36224c4d712c0ab70cc40ddfdf764736f6c63430008020033",
			"opcodes": "PUSH1 0x80 PUSH1 0x40 MSTORE CALLVALUE DUP1 ISZERO PUSH2 0x10 JUMPI PUSH1 0x0 DUP1 REVERT JUMPDEST POP PUSH1 0xFD DUP1 PUSH2 0x1F PUSH1 0x0 CODECOPY PUSH1 0x0 RETURN INVALID PUSH1 0x80 PUSH1 0x40 MSTORE CALLVALUE DUP1 ISZERO PUSH1 0xF JUMPI PUSH1 0x0 DUP1 REVERT JUMPDEST POP PUSH1 0x4 CALLDATASIZE LT PUSH1 0x28 JUMPI PUSH1 0x0 CALLDATALOAD PUSH1 0xE0 SHR DUP1 PUSH4 0x99C1D668 EQ PUSH1 0x2D JUMPI JUMPDEST PUSH1 0x0 DUP1 REVERT JUMPDEST PUSH1 0x74 PUSH1 0x38 CALLDATASIZE PUSH1 0x4 PUSH1 0x91 JUMP JUMPDEST PUSH1 0x0 DUP1 SLOAD PUSH1 0x1 PUSH1 0x1 PUSH1 0x80 SHL SUB SWAP4 DUP5 AND PUSH1 0x1 PUSH1 0x80 SHL MUL SWAP5 DUP5 AND PUSH16 0xFFFFFFFFFFFFFFFFFFFFFFFFFFFFFFFF NOT SWAP1 SWAP2 AND OR SWAP1 SWAP3 AND SWAP3 SWAP1 SWAP3 OR SWAP1 SSTORE PUSH1 0x1 SSTORE JUMP JUMPDEST STOP JUMPDEST DUP1 CALLDATALOAD PUSH1 0x1 PUSH1 0x1 PUSH1 0x80 SHL SUB DUP2 AND DUP2 EQ PUSH1 0x8C JUMPI PUSH1 0x0 DUP1 REVERT JUMPDEST SWAP2 SWAP1 POP JUMP JUMPDEST PUSH1 0x0 DUP1 PUSH1 0x0 PUSH1 0x60 DUP5 DUP7 SUB SLT ISZERO PUSH1 0xA4 JUMPI DUP3 DUP4 REVERT JUMPDEST PUSH1 0xAB DUP5 PUSH1 0x76 JUMP JUMPDEST SWAP3 POP PUSH1 0xB7 PUSH1 0x20 DUP6 ADD PUSH1 0x76 JUMP JUMPDEST SWAP2 POP PUSH1 0x40 DUP5 ADD CALLDATALOAD SWAP1 POP SWAP3 POP SWAP3 POP SWAP3 JUMP INVALID LOG2 PUSH5 0x6970667358 0x22 SLT KECCAK256 0xD5 0xAD 0xE6 0x22 0x22 PUSH31 0x97BA9E1BB76DBD498A08AC28A36224C4D712C0AB70CC40DDFDF764736F6C63 NUMBER STOP ADDMOD MUL STOP CALLER "
		},
		"gasEstimates": {
			"creation": {
				"codeDepositCost": "50600",
				"executionCost": "99",
				"totalCost": "50699"
			},
			"external": {
				"saveStorage(uint128,uint128,uint256)": "infinite"
			}
		},
		"methodIdentifiers": {
			"saveStorage(uint128,uint128,uint256)": "99c1d668"
		}
	},
	"abi": [
		{
			"inputs": [
				{
					"internalType": "uint128",
					"name": "a",
					"type": "uint128"
				},
				{
					"internalType": "uint128",
					"name": "b",
					"type": "uint128"
				},
				{
					"internalType": "uint256",
					"name": "c",
					"type": "uint256"
				}
			],
			"name": "saveStorage",
			"outputs": [],
			"stateMutability": "nonpayable",
			"type": "function"
		}
	]
}