{
	"data": {
		"bytecode": {
			"linkReferences": {},
			"object": "608060405234801561001057600080fd5b5061039f806100206000396000f3fe608060405234801561001057600080fd5b50600436106100365760003560e01c80638ce7a2c21461003b578063dabb05311461006b575b600080fd5b610055600480360381019061005091906101d1565b61009f565b60405161006291906102da565b60405180910390f35b610085600480360381019061008091906101a8565b610116565b604051610096959493929190610287565b60405180910390f35b6000808673ffffffffffffffffffffffffffffffffffffffff16905060a086901b8117905060e085901b8117905060f084901b81179050806000808a81526020019081526020016000208190555082600160008a8152602001908152602001600020819055508060001b9150509695505050505050565b60008060008060008060008088815260200190815260200160002054905080955060a081901c67ffffffffffffffff16945060e081901c61ffff16935060f081901c61ffff169250600160008881526020019081526020016000205491505091939590929450565b60008135905061018d8161033b565b92915050565b6000813590506101a281610352565b92915050565b6000602082840312156101ba57600080fd5b60006101c884828501610193565b91505092915050565b60008060008060008060c087890312156101ea57600080fd5b60006101f889828a01610193565b965050602061020989828a0161017e565b955050604061021a89828a01610193565b945050606061022b89828a01610193565b935050608061023c89828a01610193565b92505060a061024d89828a01610193565b9150509295509295509295565b610263816102f5565b82525050565b61027281610307565b82525050565b61028181610331565b82525050565b600060a08201905061029c600083018861025a565b6102a96020830187610278565b6102b66040830186610278565b6102c36060830185610278565b6102d06080830184610278565b9695505050505050565b60006020820190506102ef6000830184610269565b92915050565b600061030082610311565b9050919050565b6000819050919050565b600073ffffffffffffffffffffffffffffffffffffffff82169050919050565b6000819050919050565b610344816102f5565b811461034f57600080fd5b50565b61035b81610331565b811461036657600080fd5b5056fea2646970667358221220ae303b307be3bce49e31e00342b2b9cc07905cf0af6c284440e4cbd6eba4cbc864736f6c63430008010033",
			"opcodes": "PUSH1 0x80 PUSH1 0x40 MSTORE CALLVALUE DUP1 ISZERO PUSH2 0x10 JUMPI PUSH1 0x0 DUP1 REVERT JUMPDEST POP PUSH2 0x39F DUP1 PUSH2 0x20 PUSH1 0x0 CODECOPY PUSH1 0x0 RETURN INVALID PUSH1 0x80 PUSH1 0x40 MSTORE CALLVALUE DUP1 ISZERO PUSH2 0x10 JUMPI PUSH1 0x0 DUP1 REVERT JUMPDEST POP PUSH1 0x4 CALLDATASIZE LT PUSH2 0x36 JUMPI PUSH1 0x0 CALLDATALOAD PUSH1 0xE0 SHR DUP1 PUSH4 0x8CE7A2C2 EQ PUSH2 0x3B JUMPI DUP1 PUSH4 0xDABB0531 EQ PUSH2 0x6B JUMPI JUMPDEST PUSH1 0x0 DUP1 REVERT JUMPDEST PUSH2 0x55 PUSH1 0x4 DUP1 CALLDATASIZE SUB DUP2 ADD SWAP1 PUSH2 0x50 SWAP2 SWAP1 PUSH2 0x1D1 JUMP JUMPDEST PUSH2 0x9F JUMP JUMPDEST PUSH1 0x40 MLOAD PUSH2 0x62 SWAP2 SWAP1 PUSH2 0x2DA JUMP JUMPDEST PUSH1 0x40 MLOAD DUP1 SWAP2 SUB SWAP1 RETURN JUMPDEST PUSH2 0x85 PUSH1 0x4 DUP1 CALLDATASIZE SUB DUP2 ADD SWAP1 PUSH2 0x80 SWAP2 SWAP1 PUSH2 0x1A8 JUMP JUMPDEST PUSH2 0x116 JUMP JUMPDEST PUSH1 0x40 MLOAD PUSH2 0x96 SWAP6 SWAP5 SWAP4 SWAP3 SWAP2 SWAP1 PUSH2 0x287 JUMP JUMPDEST PUSH1 0x40 MLOAD DUP1 SWAP2 SUB SWAP1 RETURN JUMPDEST PUSH1 0x0 DUP1 DUP7 PUSH20 0xFFFFFFFFFFFFFFFFFFFFFFFFFFFFFFFFFFFFFFFF AND SWAP1 POP PUSH1 0xA0 DUP7 SWAP1 SHL DUP2 OR SWAP1 POP PUSH1 0xE0 DUP6 SWAP1 SHL DUP2 OR SWAP1 POP PUSH1 0xF0 DUP5 SWAP1 SHL DUP2 OR SWAP1 POP DUP1 PUSH1 0x0 DUP1 DUP11 DUP2 MSTORE PUSH1 0x20 ADD SWAP1 DUP2 MSTORE PUSH1 0x20 ADD PUSH1 0x0 KECCAK256 DUP2 SWAP1 SSTORE POP DUP3 PUSH1 0x1 PUSH1 0x0 DUP11 DUP2 MSTORE PUSH1 0x20 ADD SWAP1 DUP2 MSTORE PUSH1 0x20 ADD PUSH1 0x0 KECCAK256 DUP2 SWAP1 SSTORE POP DUP1 PUSH1 0x0 SHL SWAP2 POP POP SWAP7 SWAP6 POP POP POP POP POP POP JUMP JUMPDEST PUSH1 0x0 DUP1 PUSH1 0x0 DUP1 PUSH1 0x0 DUP1 PUSH1 0x0 DUP1 DUP9 DUP2 MSTORE PUSH1 0x20 ADD SWAP1 DUP2 MSTORE PUSH1 0x20 ADD PUSH1 0x0 KECCAK256 SLOAD SWAP1 POP DUP1 SWAP6 POP PUSH1 0xA0 DUP2 SWAP1 SHR PUSH8 0xFFFFFFFFFFFFFFFF AND SWAP5 POP PUSH1 0xE0 DUP2 SWAP1 SHR PUSH2 0xFFFF AND SWAP4 POP PUSH1 0xF0 DUP2 SWAP1 SHR PUSH2 0xFFFF AND SWAP3 POP PUSH1 0x1 PUSH1 0x0 DUP9 DUP2 MSTORE PUSH1 0x20 ADD SWAP1 DUP2 MSTORE PUSH1 0x20 ADD PUSH1 0x0 KECCAK256 SLOAD SWAP2 POP POP SWAP2 SWAP4 SWAP6 SWAP1 SWAP3 SWAP5 POP JUMP JUMPDEST PUSH1 0x0 DUP2 CALLDATALOAD SWAP1 POP PUSH2 0x18D DUP2 PUSH2 0x33B JUMP JUMPDEST SWAP3 SWAP2 POP POP JUMP JUMPDEST PUSH1 0x0 DUP2 CALLDATALOAD SWAP1 POP PUSH2 0x1A2 DUP2 PUSH2 0x352 JUMP JUMPDEST SWAP3 SWAP2 POP POP JUMP JUMPDEST PUSH1 0x0 PUSH1 0x20 DUP3 DUP5 SUB SLT ISZERO PUSH2 0x1BA JUMPI PUSH1 0x0 DUP1 REVERT JUMPDEST PUSH1 0x0 PUSH2 0x1C8 DUP5 DUP3 DUP6 ADD PUSH2 0x193 JUMP JUMPDEST SWAP2 POP POP SWAP3 SWAP2 POP POP JUMP JUMPDEST PUSH1 0x0 DUP1 PUSH1 0x0 DUP1 PUSH1 0x0 DUP1 PUSH1 0xC0 DUP8 DUP10 SUB SLT ISZERO PUSH2 0x1EA JUMPI PUSH1 0x0 DUP1 REVERT JUMPDEST PUSH1 0x0 PUSH2 0x1F8 DUP10 DUP3 DUP11 ADD PUSH2 0x193 JUMP JUMPDEST SWAP7 POP POP PUSH1 0x20 PUSH2 0x209 DUP10 DUP3 DUP11 ADD PUSH2 0x17E JUMP JUMPDEST SWAP6 POP POP PUSH1 0x40 PUSH2 0x21A DUP10 DUP3 DUP11 ADD PUSH2 0x193 JUMP JUMPDEST SWAP5 POP POP PUSH1 0x60 PUSH2 0x22B DUP10 DUP3 DUP11 ADD PUSH2 0x193 JUMP JUMPDEST SWAP4 POP POP PUSH1 0x80 PUSH2 0x23C DUP10 DUP3 DUP11 ADD PUSH2 0x193 JUMP JUMPDEST SWAP3 POP POP PUSH1 0xA0 PUSH2 0x24D DUP10 DUP3 DUP11 ADD PUSH2 0x193 JUMP JUMPDEST SWAP2 POP POP SWAP3 SWAP6 POP SWAP3 SWAP6 POP SWAP3 SWAP6 JUMP JUMPDEST PUSH2 0x263 DUP2 PUSH2 0x2F5 JUMP JUMPDEST DUP3 MSTORE POP POP JUMP JUMPDEST PUSH2 0x272 DUP2 PUSH2 0x307 JUMP JUMPDEST DUP3 MSTORE POP POP JUMP JUMPDEST PUSH2 0x281 DUP2 PUSH2 0x331 JUMP JUMPDEST DUP3 MSTORE POP POP JUMP JUMPDEST PUSH1 0x0 PUSH1 0xA0 DUP3 ADD SWAP1 POP PUSH2 0x29C PUSH1 0x0 DUP4 ADD DUP9 PUSH2 0x25A JUMP JUMPDEST PUSH2 0x2A9 PUSH1 0x20 DUP4 ADD DUP8 PUSH2 0x278 JUMP JUMPDEST PUSH2 0x2B6 PUSH1 0x40 DUP4 ADD DUP7 PUSH2 0x278 JUMP JUMPDEST PUSH2 0x2C3 PUSH1 0x60 DUP4 ADD DUP6 PUSH2 0x278 JUMP JUMPDEST PUSH2 0x2D0 PUSH1 0x80 DUP4 ADD DUP5 PUSH2 0x278 JUMP JUMPDEST SWAP7 SWAP6 POP POP POP POP POP POP JUMP JUMPDEST PUSH1 0x0 PUSH1 0x20 DUP3 ADD SWAP1 POP PUSH2 0x2EF PUSH1 0x0 DUP4 ADD DUP5 PUSH2 0x269 JUMP JUMPDEST SWAP3 SWAP2 POP POP JUMP JUMPDEST PUSH1 0x0 PUSH2 0x300 DUP3 PUSH2 0x311 JUMP JUMPDEST SWAP1 POP SWAP2 SWAP1 POP JUMP JUMPDEST PUSH1 0x0 DUP2 SWAP1 POP SWAP2 SWAP1 POP JUMP JUMPDEST PUSH1 0x0 PUSH20 0xFFFFFFFFFFFFFFFFFFFFFFFFFFFFFFFFFFFFFFFF DUP3 AND SWAP1 POP SWAP2 SWAP1 POP JUMP JUMPDEST PUSH1 0x0 DUP2 SWAP1 POP SWAP2 SWAP1 POP JUMP JUMPDEST PUSH2 0x344 DUP2 PUSH2 0x2F5 JUMP JUMPDEST DUP2 EQ PUSH2 0x34F JUMPI PUSH1 0x0 DUP1 REVERT JUMPDEST POP JUMP JUMPDEST PUSH2 0x35B DUP2 PUSH2 0x331 JUMP JUMPDEST DUP2 EQ PUSH2 0x366 JUMPI PUSH1 0x0 DUP1 REVERT JUMPDEST POP JUMP INVALID LOG2 PUSH5 0x6970667358 0x22 SLT KECCAK256 0xAE ADDRESS EXTCODESIZE ADDRESS PUSH28 0xE3BCE49E31E00342B2B9CC07905CF0AF6C284440E4CBD6EBA4CBC864 PUSH20 0x6F6C634300080100330000000000000000000000 "
		},
		"gasEstimates": {
			"creation": {
				"codeDepositCost": "185400",
				"executionCost": "226",
				"totalCost": "185626"
			},
			"external": {
				"getCharacter(uint256)": "infinite",
				"setCharacter(uint256,address,uint256,uint256,uint256,uint256)": "infinite"
			}
		},
		"methodIdentifiers": {
			"getCharacter(uint256)": "dabb0531",
			"setCharacter(uint256,address,uint256,uint256,uint256,uint256)": "8ce7a2c2"
		}
	},
	"abi": [
		{
			"inputs": [
				{
					"internalType": "uint256",
					"name": "_id",
					"type": "uint256"
				}
			],
			"name": "getCharacter",
			"outputs": [
				{
					"internalType": "address",
					"name": "_owner",
					"type": "address"
				},
				{
					"internalType": "uint256",
					"name": "_creationTime",
					"type": "uint256"
				},
				{
					"internalType": "uint256",
					"name": "_height",
					"type": "uint256"
				},
				{
					"internalType": "uint256",
					"name": "_weight",
					"type": "uint256"
				},
				{
					"internalType": "uint256",
					"name": "_dna",
					"type": "uint256"
				}
			],
			"stateMutability": "view",
			"type": "function"
		},
		{
			"inputs": [
				{
					"internalType": "uint256",
					"name": "_id",
					"type": "uint256"
				},
				{
					"internalType": "address",
					"name": "_owner",
					"type": "address"
				},
				{
					"internalType": "uint256",
					"name": "_creationTime",
					"type": "uint256"
				},
				{
					"internalType": "uint256",
					"name": "_height",
					"type": "uint256"
				},
				{
					"internalType": "uint256",
					"name": "_weight",
					"type": "uint256"
				},
				{
					"internalType": "uint256",
					"name": "_dna",
					"type": "uint256"
				}
			],
			"name": "setCharacter",
			"outputs": [
				{
					"internalType": "bytes32",
					"name": "s",
					"type": "bytes32"
				}
			],
			"stateMutability": "nonpayable",
			"type": "function"
		}
	]
}