{
	"data": {
		"bytecode": {
			"linkReferences": {},
			"object": "608060405234801561001057600080fd5b50610149806100206000396000f3fe608060405234801561001057600080fd5b506004361061002b5760003560e01c806399c1d66814610030575b600080fd5b6100946004803603606081101561004657600080fd5b8101908080356fffffffffffffffffffffffffffffffff16906020019092919080356fffffffffffffffffffffffffffffffff16906020019092919080359060200190929190505050610096565b005b826000806101000a8154816fffffffffffffffffffffffffffffffff02191690836fffffffffffffffffffffffffffffffff16021790555081600060106101000a8154816fffffffffffffffffffffffffffffffff02191690836fffffffffffffffffffffffffffffffff1602179055508060018190555050505056fea26469706673582212201e8335f09286e1a3f0c4fda643424f5047b6ad429fb60270ce574fe24b81168064736f6c63430007040033",
			"opcodes": "PUSH1 0x80 PUSH1 0x40 MSTORE CALLVALUE DUP1 ISZERO PUSH2 0x10 JUMPI PUSH1 0x0 DUP1 REVERT JUMPDEST POP PUSH2 0x149 DUP1 PUSH2 0x20 PUSH1 0x0 CODECOPY PUSH1 0x0 RETURN INVALID PUSH1 0x80 PUSH1 0x40 MSTORE CALLVALUE DUP1 ISZERO PUSH2 0x10 JUMPI PUSH1 0x0 DUP1 REVERT JUMPDEST POP PUSH1 0x4 CALLDATASIZE LT PUSH2 0x2B JUMPI PUSH1 0x0 CALLDATALOAD PUSH1 0xE0 SHR DUP1 PUSH4 0x99C1D668 EQ PUSH2 0x30 JUMPI JUMPDEST PUSH1 0x0 DUP1 REVERT JUMPDEST PUSH2 0x94 PUSH1 0x4 DUP1 CALLDATASIZE SUB PUSH1 0x60 DUP2 LT ISZERO PUSH2 0x46 JUMPI PUSH1 0x0 DUP1 REVERT JUMPDEST DUP2 ADD SWAP1 DUP1 DUP1 CALLDATALOAD PUSH16 0xFFFFFFFFFFFFFFFFFFFFFFFFFFFFFFFF AND SWAP1 PUSH1 0x20 ADD SWAP1 SWAP3 SWAP2 SWAP1 DUP1 CALLDATALOAD PUSH16 0xFFFFFFFFFFFFFFFFFFFFFFFFFFFFFFFF AND SWAP1 PUSH1 0x20 ADD SWAP1 SWAP3 SWAP2 SWAP1 DUP1 CALLDATALOAD SWAP1 PUSH1 0x20 ADD SWAP1 SWAP3 SWAP2 SWAP1 POP POP POP PUSH2 0x96 JUMP JUMPDEST STOP JUMPDEST DUP3 PUSH1 0x0 DUP1 PUSH2 0x100 EXP DUP2 SLOAD DUP2 PUSH16 0xFFFFFFFFFFFFFFFFFFFFFFFFFFFFFFFF MUL NOT AND SWAP1 DUP4 PUSH16 0xFFFFFFFFFFFFFFFFFFFFFFFFFFFFFFFF AND MUL OR SWAP1 SSTORE POP DUP2 PUSH1 0x0 PUSH1 0x10 PUSH2 0x100 EXP DUP2 SLOAD DUP2 PUSH16 0xFFFFFFFFFFFFFFFFFFFFFFFFFFFFFFFF MUL NOT AND SWAP1 DUP4 PUSH16 0xFFFFFFFFFFFFFFFFFFFFFFFFFFFFFFFF AND MUL OR SWAP1 SSTORE POP DUP1 PUSH1 0x1 DUP2 SWAP1 SSTORE POP POP POP POP JUMP INVALID LOG2 PUSH5 0x6970667358 0x22 SLT KECCAK256 0x1E DUP4 CALLDATALOAD CREATE SWAP3 DUP7 0xE1 LOG3 CREATE 0xC4 REVERT 0xA6 NUMBER TIMESTAMP 0x4F POP SELFBALANCE 0xB6 0xAD TIMESTAMP SWAP16 0xB6 MUL PUSH17 0xCE574FE24B81168064736F6C6343000704 STOP CALLER "
		},
		"gasEstimates": {
			"creation": {
				"codeDepositCost": "65800",
				"executionCost": "117",
				"totalCost": "65917"
			},
			"external": {
				"saveStorage(uint128,uint128,uint256)": "62074"
			}
		},
		"methodIdentifiers": {
			"saveStorage(uint128,uint128,uint256)": "99c1d668"
		}
	},
	"abi": [
		{
			"inputs": [
				{
					"internalType": "uint128",
					"name": "a",
					"type": "uint128"
				},
				{
					"internalType": "uint128",
					"name": "b",
					"type": "uint128"
				},
				{
					"internalType": "uint256",
					"name": "c",
					"type": "uint256"
				}
			],
			"name": "saveStorage",
			"outputs": [],
			"stateMutability": "nonpayable",
			"type": "function"
		}
	]
}