{
	"data": {
		"bytecode": {
			"linkReferences": {},
			"object": "608060405234801561001057600080fd5b506101d6806100206000396000f3fe608060405234801561001057600080fd5b50600436106100365760003560e01c8063a0e075cf1461003b578063dabb053114610098575b600080fd5b61009661004936600461013d565b6000968752602087815260408089206001600160a01b039890981660a09790971b9690961760d09590951b9490941760e09390931b9290921760f09190911b179093556001905290912055565b005b6100ea6100a6366004610125565b60009081526020818152604080832054600190925290912054909164ffffffffff60a084901c169161ffff60d085901c81169260e086901c9091169160f086901c91565b604080516001600160a01b0390971687526020870195909552938501929092526060840152608083015260a082015260c00160405180910390f35b600060208284031215610136578081fd5b5035919050565b600080600080600080600060e0888a031215610157578283fd5b8735965060208801356001600160a01b0381168114610174578384fd5b96999698505050506040850135946060810135946080820135945060a0820135935060c090910135915056fea264697066735822122017aabdff8e8f5b7dcf27bcc86dd3ce76d7c51e17ddca6088106e23a85c952d1864736f6c63430008020033",
			"opcodes": "PUSH1 0x80 PUSH1 0x40 MSTORE CALLVALUE DUP1 ISZERO PUSH2 0x10 JUMPI PUSH1 0x0 DUP1 REVERT JUMPDEST POP PUSH2 0x1D6 DUP1 PUSH2 0x20 PUSH1 0x0 CODECOPY PUSH1 0x0 RETURN INVALID PUSH1 0x80 PUSH1 0x40 MSTORE CALLVALUE DUP1 ISZERO PUSH2 0x10 JUMPI PUSH1 0x0 DUP1 REVERT JUMPDEST POP PUSH1 0x4 CALLDATASIZE LT PUSH2 0x36 JUMPI PUSH1 0x0 CALLDATALOAD PUSH1 0xE0 SHR DUP1 PUSH4 0xA0E075CF EQ PUSH2 0x3B JUMPI DUP1 PUSH4 0xDABB0531 EQ PUSH2 0x98 JUMPI JUMPDEST PUSH1 0x0 DUP1 REVERT JUMPDEST PUSH2 0x96 PUSH2 0x49 CALLDATASIZE PUSH1 0x4 PUSH2 0x13D JUMP JUMPDEST PUSH1 0x0 SWAP7 DUP8 MSTORE PUSH1 0x20 DUP8 DUP2 MSTORE PUSH1 0x40 DUP1 DUP10 KECCAK256 PUSH1 0x1 PUSH1 0x1 PUSH1 0xA0 SHL SUB SWAP9 SWAP1 SWAP9 AND PUSH1 0xA0 SWAP8 SWAP1 SWAP8 SHL SWAP7 SWAP1 SWAP7 OR PUSH1 0xD0 SWAP6 SWAP1 SWAP6 SHL SWAP5 SWAP1 SWAP5 OR PUSH1 0xE0 SWAP4 SWAP1 SWAP4 SHL SWAP3 SWAP1 SWAP3 OR PUSH1 0xF0 SWAP2 SWAP1 SWAP2 SHL OR SWAP1 SWAP4 SSTORE PUSH1 0x1 SWAP1 MSTORE SWAP1 SWAP2 KECCAK256 SSTORE JUMP JUMPDEST STOP JUMPDEST PUSH2 0xEA PUSH2 0xA6 CALLDATASIZE PUSH1 0x4 PUSH2 0x125 JUMP JUMPDEST PUSH1 0x0 SWAP1 DUP2 MSTORE PUSH1 0x20 DUP2 DUP2 MSTORE PUSH1 0x40 DUP1 DUP4 KECCAK256 SLOAD PUSH1 0x1 SWAP1 SWAP3 MSTORE SWAP1 SWAP2 KECCAK256 SLOAD SWAP1 SWAP2 PUSH5 0xFFFFFFFFFF PUSH1 0xA0 DUP5 SWAP1 SHR AND SWAP2 PUSH2 0xFFFF PUSH1 0xD0 DUP6 SWAP1 SHR DUP2 AND SWAP3 PUSH1 0xE0 DUP7 SWAP1 SHR SWAP1 SWAP2 AND SWAP2 PUSH1 0xF0 DUP7 SWAP1 SHR SWAP2 JUMP JUMPDEST PUSH1 0x40 DUP1 MLOAD PUSH1 0x1 PUSH1 0x1 PUSH1 0xA0 SHL SUB SWAP1 SWAP8 AND DUP8 MSTORE PUSH1 0x20 DUP8 ADD SWAP6 SWAP1 SWAP6 MSTORE SWAP4 DUP6 ADD SWAP3 SWAP1 SWAP3 MSTORE PUSH1 0x60 DUP5 ADD MSTORE PUSH1 0x80 DUP4 ADD MSTORE PUSH1 0xA0 DUP3 ADD MSTORE PUSH1 0xC0 ADD PUSH1 0x40 MLOAD DUP1 SWAP2 SUB SWAP1 RETURN JUMPDEST PUSH1 0x0 PUSH1 0x20 DUP3 DUP5 SUB SLT ISZERO PUSH2 0x136 JUMPI DUP1 DUP2 REVERT JUMPDEST POP CALLDATALOAD SWAP2 SWAP1 POP JUMP JUMPDEST PUSH1 0x0 DUP1 PUSH1 0x0 DUP1 PUSH1 0x0 DUP1 PUSH1 0x0 PUSH1 0xE0 DUP9 DUP11 SUB SLT ISZERO PUSH2 0x157 JUMPI DUP3 DUP4 REVERT JUMPDEST DUP8 CALLDATALOAD SWAP7 POP PUSH1 0x20 DUP9 ADD CALLDATALOAD PUSH1 0x1 PUSH1 0x1 PUSH1 0xA0 SHL SUB DUP2 AND DUP2 EQ PUSH2 0x174 JUMPI DUP4 DUP5 REVERT JUMPDEST SWAP7 SWAP10 SWAP7 SWAP9 POP POP POP POP PUSH1 0x40 DUP6 ADD CALLDATALOAD SWAP5 PUSH1 0x60 DUP2 ADD CALLDATALOAD SWAP5 PUSH1 0x80 DUP3 ADD CALLDATALOAD SWAP5 POP PUSH1 0xA0 DUP3 ADD CALLDATALOAD SWAP4 POP PUSH1 0xC0 SWAP1 SWAP2 ADD CALLDATALOAD SWAP2 POP JUMP INVALID LOG2 PUSH5 0x6970667358 0x22 SLT KECCAK256 OR 0xAA 0xBD SELFDESTRUCT DUP15 DUP16 JUMPDEST PUSH30 0xCF27BCC86DD3CE76D7C51E17DDCA6088106E23A85C952D1864736F6C6343 STOP ADDMOD MUL STOP CALLER "
		},
		"gasEstimates": {
			"creation": {
				"codeDepositCost": "94000",
				"executionCost": "141",
				"totalCost": "94141"
			},
			"external": {
				"getCharacter(uint256)": "2196",
				"setCharacter(uint256,address,uint256,uint256,uint256,uint256,uint256)": "40624"
			}
		},
		"methodIdentifiers": {
			"getCharacter(uint256)": "dabb0531",
			"setCharacter(uint256,address,uint256,uint256,uint256,uint256,uint256)": "a0e075cf"
		}
	},
	"abi": [
		{
			"inputs": [
				{
					"internalType": "uint256",
					"name": "_id",
					"type": "uint256"
				}
			],
			"name": "getCharacter",
			"outputs": [
				{
					"internalType": "address",
					"name": "owner",
					"type": "address"
				},
				{
					"internalType": "uint256",
					"name": "creationTime",
					"type": "uint256"
				},
				{
					"internalType": "uint256",
					"name": "strength",
					"type": "uint256"
				},
				{
					"internalType": "uint256",
					"name": "race",
					"type": "uint256"
				},
				{
					"internalType": "uint256",
					"name": "class",
					"type": "uint256"
				},
				{
					"internalType": "uint256",
					"name": "dna",
					"type": "uint256"
				}
			],
			"stateMutability": "view",
			"type": "function"
		},
		{
			"inputs": [
				{
					"internalType": "uint256",
					"name": "_id",
					"type": "uint256"
				},
				{
					"internalType": "address",
					"name": "owner",
					"type": "address"
				},
				{
					"internalType": "uint256",
					"name": "creationTime",
					"type": "uint256"
				},
				{
					"internalType": "uint256",
					"name": "strength",
					"type": "uint256"
				},
				{
					"internalType": "uint256",
					"name": "race",
					"type": "uint256"
				},
				{
					"internalType": "uint256",
					"name": "class",
					"type": "uint256"
				},
				{
					"internalType": "uint256",
					"name": "dna",
					"type": "uint256"
				}
			],
			"name": "setCharacter",
			"outputs": [],
			"stateMutability": "nonpayable",
			"type": "function"
		}
	]
}