{
	"data": {
		"bytecode": {
			"linkReferences": {},
			"object": "608060405234801561001057600080fd5b5061017b806100206000396000f3fe608060405234801561001057600080fd5b50600436106100365760003560e01c8063b8c729711461003b578063f1fd5c4b146100a5575b600080fd5b6100a361004936600461010a565b604080516060810182526001600160801b0394851680825260208201859052929094169301839052600080546fffffffffffffffffffffffffffffffff199081169092179055600191909155600280549091169091179055565b005b6000546001546002546100c3926001600160801b0390811692911683565b604080516001600160801b039485168152602081019390935292168183015290519081900360600190f35b80356001600160801b038116811461010557600080fd5b919050565b60008060006060848603121561011e578283fd5b610127846100ee565b92506020840135915061013c604085016100ee565b9050925092509256fea264697066735822122060f94170de5499934a821a90fd6eec9ed984c4f769fd4109a8df4a94b6e28cac64736f6c63430008020033",
			"opcodes": "PUSH1 0x80 PUSH1 0x40 MSTORE CALLVALUE DUP1 ISZERO PUSH2 0x10 JUMPI PUSH1 0x0 DUP1 REVERT JUMPDEST POP PUSH2 0x17B DUP1 PUSH2 0x20 PUSH1 0x0 CODECOPY PUSH1 0x0 RETURN INVALID PUSH1 0x80 PUSH1 0x40 MSTORE CALLVALUE DUP1 ISZERO PUSH2 0x10 JUMPI PUSH1 0x0 DUP1 REVERT JUMPDEST POP PUSH1 0x4 CALLDATASIZE LT PUSH2 0x36 JUMPI PUSH1 0x0 CALLDATALOAD PUSH1 0xE0 SHR DUP1 PUSH4 0xB8C72971 EQ PUSH2 0x3B JUMPI DUP1 PUSH4 0xF1FD5C4B EQ PUSH2 0xA5 JUMPI JUMPDEST PUSH1 0x0 DUP1 REVERT JUMPDEST PUSH2 0xA3 PUSH2 0x49 CALLDATASIZE PUSH1 0x4 PUSH2 0x10A JUMP JUMPDEST PUSH1 0x40 DUP1 MLOAD PUSH1 0x60 DUP2 ADD DUP3 MSTORE PUSH1 0x1 PUSH1 0x1 PUSH1 0x80 SHL SUB SWAP5 DUP6 AND DUP1 DUP3 MSTORE PUSH1 0x20 DUP3 ADD DUP6 SWAP1 MSTORE SWAP3 SWAP1 SWAP5 AND SWAP4 ADD DUP4 SWAP1 MSTORE PUSH1 0x0 DUP1 SLOAD PUSH16 0xFFFFFFFFFFFFFFFFFFFFFFFFFFFFFFFF NOT SWAP1 DUP2 AND SWAP1 SWAP3 OR SWAP1 SSTORE PUSH1 0x1 SWAP2 SWAP1 SWAP2 SSTORE PUSH1 0x2 DUP1 SLOAD SWAP1 SWAP2 AND SWAP1 SWAP2 OR SWAP1 SSTORE JUMP JUMPDEST STOP JUMPDEST PUSH1 0x0 SLOAD PUSH1 0x1 SLOAD PUSH1 0x2 SLOAD PUSH2 0xC3 SWAP3 PUSH1 0x1 PUSH1 0x1 PUSH1 0x80 SHL SUB SWAP1 DUP2 AND SWAP3 SWAP2 AND DUP4 JUMP JUMPDEST PUSH1 0x40 DUP1 MLOAD PUSH1 0x1 PUSH1 0x1 PUSH1 0x80 SHL SUB SWAP5 DUP6 AND DUP2 MSTORE PUSH1 0x20 DUP2 ADD SWAP4 SWAP1 SWAP4 MSTORE SWAP3 AND DUP2 DUP4 ADD MSTORE SWAP1 MLOAD SWAP1 DUP2 SWAP1 SUB PUSH1 0x60 ADD SWAP1 RETURN JUMPDEST DUP1 CALLDATALOAD PUSH1 0x1 PUSH1 0x1 PUSH1 0x80 SHL SUB DUP2 AND DUP2 EQ PUSH2 0x105 JUMPI PUSH1 0x0 DUP1 REVERT JUMPDEST SWAP2 SWAP1 POP JUMP JUMPDEST PUSH1 0x0 DUP1 PUSH1 0x0 PUSH1 0x60 DUP5 DUP7 SUB SLT ISZERO PUSH2 0x11E JUMPI DUP3 DUP4 REVERT JUMPDEST PUSH2 0x127 DUP5 PUSH2 0xEE JUMP JUMPDEST SWAP3 POP PUSH1 0x20 DUP5 ADD CALLDATALOAD SWAP2 POP PUSH2 0x13C PUSH1 0x40 DUP6 ADD PUSH2 0xEE JUMP JUMPDEST SWAP1 POP SWAP3 POP SWAP3 POP SWAP3 JUMP INVALID LOG2 PUSH5 0x6970667358 0x22 SLT KECCAK256 PUSH1 0xF9 COINBASE PUSH17 0xDE5499934A821A90FD6EEC9ED984C4F769 REVERT COINBASE MULMOD 0xA8 0xDF 0x4A SWAP5 0xB6 0xE2 DUP13 0xAC PUSH5 0x736F6C6343 STOP ADDMOD MUL STOP CALLER "
		},
		"gasEstimates": {
			"creation": {
				"codeDepositCost": "75800",
				"executionCost": "123",
				"totalCost": "75923"
			},
			"external": {
				"saveStorageWrong(uint128,uint256,uint128)": "infinite",
				"valuesWrong()": "2697"
			}
		},
		"methodIdentifiers": {
			"saveStorageWrong(uint128,uint256,uint128)": "b8c72971",
			"valuesWrong()": "f1fd5c4b"
		}
	},
	"abi": [
		{
			"inputs": [
				{
					"internalType": "uint128",
					"name": "a",
					"type": "uint128"
				},
				{
					"internalType": "uint256",
					"name": "b",
					"type": "uint256"
				},
				{
					"internalType": "uint128",
					"name": "c",
					"type": "uint128"
				}
			],
			"name": "saveStorageWrong",
			"outputs": [],
			"stateMutability": "nonpayable",
			"type": "function"
		},
		{
			"inputs": [],
			"name": "valuesWrong",
			"outputs": [
				{
					"internalType": "uint128",
					"name": "a",
					"type": "uint128"
				},
				{
					"internalType": "uint256",
					"name": "b",
					"type": "uint256"
				},
				{
					"internalType": "uint128",
					"name": "c",
					"type": "uint128"
				}
			],
			"stateMutability": "view",
			"type": "function"
		}
	]
}