{
	"data": {
		"bytecode": {
			"linkReferences": {},
			"object": "6080604052348015600f57600080fd5b5060c08061001e6000396000f3fe6080604052348015600f57600080fd5b506004361060285760003560e01c8063535859a014602d575b600080fd5b6000805461aaaa67ffffffffffffffff19909116176fffffffffffffffff0000000000000000191669bbbb00000000000000001767ffffffffffffffff60801b191661333360821b176001600160c01b031661dddd60c01b17905500fea264697066735822122056b340f55b53c65e119f649ab25a564d7433f2b2e9acf511fba9da0a3b26b9aa64736f6c63430008020033",
			"opcodes": "PUSH1 0x80 PUSH1 0x40 MSTORE CALLVALUE DUP1 ISZERO PUSH1 0xF JUMPI PUSH1 0x0 DUP1 REVERT JUMPDEST POP PUSH1 0xC0 DUP1 PUSH2 0x1E PUSH1 0x0 CODECOPY PUSH1 0x0 RETURN INVALID PUSH1 0x80 PUSH1 0x40 MSTORE CALLVALUE DUP1 ISZERO PUSH1 0xF JUMPI PUSH1 0x0 DUP1 REVERT JUMPDEST POP PUSH1 0x4 CALLDATASIZE LT PUSH1 0x28 JUMPI PUSH1 0x0 CALLDATALOAD PUSH1 0xE0 SHR DUP1 PUSH4 0x535859A0 EQ PUSH1 0x2D JUMPI JUMPDEST PUSH1 0x0 DUP1 REVERT JUMPDEST PUSH1 0x0 DUP1 SLOAD PUSH2 0xAAAA PUSH8 0xFFFFFFFFFFFFFFFF NOT SWAP1 SWAP2 AND OR PUSH16 0xFFFFFFFFFFFFFFFF0000000000000000 NOT AND PUSH10 0xBBBB0000000000000000 OR PUSH8 0xFFFFFFFFFFFFFFFF PUSH1 0x80 SHL NOT AND PUSH2 0x3333 PUSH1 0x82 SHL OR PUSH1 0x1 PUSH1 0x1 PUSH1 0xC0 SHL SUB AND PUSH2 0xDDDD PUSH1 0xC0 SHL OR SWAP1 SSTORE STOP INVALID LOG2 PUSH5 0x6970667358 0x22 SLT KECCAK256 JUMP 0xB3 BLOCKHASH CREATE2 JUMPDEST MSTORE8 0xC6 0x5E GT SWAP16 PUSH5 0x9AB25A564D PUSH21 0x33F2B2E9ACF511FBA9DA0A3B26B9AA64736F6C6343 STOP ADDMOD MUL STOP CALLER "
		},
		"gasEstimates": {
			"creation": {
				"codeDepositCost": "38400",
				"executionCost": "87",
				"totalCost": "38487"
			},
			"external": {
				"Pack111()": "21000"
			}
		},
		"methodIdentifiers": {
			"Pack111()": "535859a0"
		}
	},
	"abi": [
		{
			"inputs": [],
			"name": "Pack111",
			"outputs": [],
			"stateMutability": "nonpayable",
			"type": "function"
		}
	]
}