{
	"data": {
		"bytecode": {
			"linkReferences": {},
			"object": "608060405234801561001057600080fd5b5060fe8061001f6000396000f3fe6080604052348015600f57600080fd5b506004361060285760003560e01c8063b8c7297114602d575b600080fd5b607560383660046092565b600080546001600160801b039485166fffffffffffffffffffffffffffffffff199182161790915560019290925560028054919093169116179055565b005b80356001600160801b0381168114608d57600080fd5b919050565b60008060006060848603121560a5578283fd5b60ac846077565b92506020840135915060bf604085016077565b9050925092509256fea2646970667358221220af56f25df166a23e5c6f8cecc74e98d7d665d3b6c59c9834752e7d4b19274c2764736f6c63430008020033",
			"opcodes": "PUSH1 0x80 PUSH1 0x40 MSTORE CALLVALUE DUP1 ISZERO PUSH2 0x10 JUMPI PUSH1 0x0 DUP1 REVERT JUMPDEST POP PUSH1 0xFE DUP1 PUSH2 0x1F PUSH1 0x0 CODECOPY PUSH1 0x0 RETURN INVALID PUSH1 0x80 PUSH1 0x40 MSTORE CALLVALUE DUP1 ISZERO PUSH1 0xF JUMPI PUSH1 0x0 DUP1 REVERT JUMPDEST POP PUSH1 0x4 CALLDATASIZE LT PUSH1 0x28 JUMPI PUSH1 0x0 CALLDATALOAD PUSH1 0xE0 SHR DUP1 PUSH4 0xB8C72971 EQ PUSH1 0x2D JUMPI JUMPDEST PUSH1 0x0 DUP1 REVERT JUMPDEST PUSH1 0x75 PUSH1 0x38 CALLDATASIZE PUSH1 0x4 PUSH1 0x92 JUMP JUMPDEST PUSH1 0x0 DUP1 SLOAD PUSH1 0x1 PUSH1 0x1 PUSH1 0x80 SHL SUB SWAP5 DUP6 AND PUSH16 0xFFFFFFFFFFFFFFFFFFFFFFFFFFFFFFFF NOT SWAP2 DUP3 AND OR SWAP1 SWAP2 SSTORE PUSH1 0x1 SWAP3 SWAP1 SWAP3 SSTORE PUSH1 0x2 DUP1 SLOAD SWAP2 SWAP1 SWAP4 AND SWAP2 AND OR SWAP1 SSTORE JUMP JUMPDEST STOP JUMPDEST DUP1 CALLDATALOAD PUSH1 0x1 PUSH1 0x1 PUSH1 0x80 SHL SUB DUP2 AND DUP2 EQ PUSH1 0x8D JUMPI PUSH1 0x0 DUP1 REVERT JUMPDEST SWAP2 SWAP1 POP JUMP JUMPDEST PUSH1 0x0 DUP1 PUSH1 0x0 PUSH1 0x60 DUP5 DUP7 SUB SLT ISZERO PUSH1 0xA5 JUMPI DUP3 DUP4 REVERT JUMPDEST PUSH1 0xAC DUP5 PUSH1 0x77 JUMP JUMPDEST SWAP3 POP PUSH1 0x20 DUP5 ADD CALLDATALOAD SWAP2 POP PUSH1 0xBF PUSH1 0x40 DUP6 ADD PUSH1 0x77 JUMP JUMPDEST SWAP1 POP SWAP3 POP SWAP3 POP SWAP3 JUMP INVALID LOG2 PUSH5 0x6970667358 0x22 SLT KECCAK256 0xAF JUMP CALLCODE 0x5D CALL PUSH7 0xA23E5C6F8CECC7 0x4E SWAP9 0xD7 0xD6 PUSH6 0xD3B6C59C9834 PUSH22 0x2E7D4B19274C2764736F6C6343000802003300000000 "
		},
		"gasEstimates": {
			"creation": {
				"codeDepositCost": "50800",
				"executionCost": "99",
				"totalCost": "50899"
			},
			"external": {
				"saveStorageWrong(uint128,uint256,uint128)": "infinite"
			}
		},
		"methodIdentifiers": {
			"saveStorageWrong(uint128,uint256,uint128)": "b8c72971"
		}
	},
	"abi": [
		{
			"inputs": [
				{
					"internalType": "uint128",
					"name": "a",
					"type": "uint128"
				},
				{
					"internalType": "uint256",
					"name": "b",
					"type": "uint256"
				},
				{
					"internalType": "uint128",
					"name": "c",
					"type": "uint128"
				}
			],
			"name": "saveStorageWrong",
			"outputs": [],
			"stateMutability": "nonpayable",
			"type": "function"
		}
	]
}