{
	"data": {
		"bytecode": {
			"linkReferences": {},
			"object": "608060405234801561001057600080fd5b50610159806100206000396000f30060806040526004361061004b5763ffffffff7c01000000000000000000000000000000000000000000000000000000006000350416630789f8008114610050578063e6cb90131461007d575b600080fd5b34801561005c57600080fd5b5061006b600435602435610098565b60408051918252519081900360200190f35b34801561008957600080fd5b5061006b600435602435610113565b60008282018381101561010c57604080517f08c379a000000000000000000000000000000000000000000000000000000000815260206004820152601160248201527f4164646974696f6e206f766572666c6f77000000000000000000000000000000604482015290519081900360640190fd5b9392505050565b600061010c83838181018281101561012757fe5b929150505600a165627a7a72305820f010e8e8320f21ce8137a6cd48cfdd4984c8d8f266fe18a32de48e73bdbe29170029",
			"opcodes": "PUSH1 0x80 PUSH1 0x40 MSTORE CALLVALUE DUP1 ISZERO PUSH2 0x10 JUMPI PUSH1 0x0 DUP1 REVERT JUMPDEST POP PUSH2 0x159 DUP1 PUSH2 0x20 PUSH1 0x0 CODECOPY PUSH1 0x0 RETURN STOP PUSH1 0x80 PUSH1 0x40 MSTORE PUSH1 0x4 CALLDATASIZE LT PUSH2 0x4B JUMPI PUSH4 0xFFFFFFFF PUSH29 0x100000000000000000000000000000000000000000000000000000000 PUSH1 0x0 CALLDATALOAD DIV AND PUSH4 0x789F800 DUP2 EQ PUSH2 0x50 JUMPI DUP1 PUSH4 0xE6CB9013 EQ PUSH2 0x7D JUMPI JUMPDEST PUSH1 0x0 DUP1 REVERT JUMPDEST CALLVALUE DUP1 ISZERO PUSH2 0x5C JUMPI PUSH1 0x0 DUP1 REVERT JUMPDEST POP PUSH2 0x6B PUSH1 0x4 CALLDATALOAD PUSH1 0x24 CALLDATALOAD PUSH2 0x98 JUMP JUMPDEST PUSH1 0x40 DUP1 MLOAD SWAP2 DUP3 MSTORE MLOAD SWAP1 DUP2 SWAP1 SUB PUSH1 0x20 ADD SWAP1 RETURN JUMPDEST CALLVALUE DUP1 ISZERO PUSH2 0x89 JUMPI PUSH1 0x0 DUP1 REVERT JUMPDEST POP PUSH2 0x6B PUSH1 0x4 CALLDATALOAD PUSH1 0x24 CALLDATALOAD PUSH2 0x113 JUMP JUMPDEST PUSH1 0x0 DUP3 DUP3 ADD DUP4 DUP2 LT ISZERO PUSH2 0x10C JUMPI PUSH1 0x40 DUP1 MLOAD PUSH32 0x8C379A000000000000000000000000000000000000000000000000000000000 DUP2 MSTORE PUSH1 0x20 PUSH1 0x4 DUP3 ADD MSTORE PUSH1 0x11 PUSH1 0x24 DUP3 ADD MSTORE PUSH32 0x4164646974696F6E206F766572666C6F77000000000000000000000000000000 PUSH1 0x44 DUP3 ADD MSTORE SWAP1 MLOAD SWAP1 DUP2 SWAP1 SUB PUSH1 0x64 ADD SWAP1 REVERT JUMPDEST SWAP4 SWAP3 POP POP POP JUMP JUMPDEST PUSH1 0x0 PUSH2 0x10C DUP4 DUP4 DUP2 DUP2 ADD DUP3 DUP2 LT ISZERO PUSH2 0x127 JUMPI INVALID JUMPDEST SWAP3 SWAP2 POP POP JUMP STOP LOG1 PUSH6 0x627A7A723058 KECCAK256 CREATE LT 0xe8 0xe8 ORIGIN 0xf 0x21 0xce DUP2 CALLDATACOPY 0xa6 0xcd 0x48 0xcf 0xdd 0x49 DUP5 0xc8 0xd8 CALLCODE PUSH7 0xFE18A32DE48E73 0xbd 0xbe 0x29 OR STOP 0x29 "
		},
		"gasEstimates": {
			"creation": {
				"codeDepositCost": "69000",
				"executionCost": "117",
				"totalCost": "69117"
			},
			"external": {
				"safeAdd(uint256,uint256)": "290",
				"safeAddOwn(uint256,uint256)": "275"
			}
		},
		"methodIdentifiers": {
			"safeAdd(uint256,uint256)": "e6cb9013",
			"safeAddOwn(uint256,uint256)": "0789f800"
		}
	},
	"abi": [
		{
			"constant": true,
			"inputs": [
				{
					"name": "a",
					"type": "uint256"
				},
				{
					"name": "b",
					"type": "uint256"
				}
			],
			"name": "safeAddOwn",
			"outputs": [
				{
					"name": "",
					"type": "uint256"
				}
			],
			"payable": false,
			"stateMutability": "view",
			"type": "function"
		},
		{
			"constant": true,
			"inputs": [
				{
					"name": "a",
					"type": "uint256"
				},
				{
					"name": "b",
					"type": "uint256"
				}
			],
			"name": "safeAdd",
			"outputs": [
				{
					"name": "",
					"type": "uint256"
				}
			],
			"payable": false,
			"stateMutability": "view",
			"type": "function"
		}
	]
}