{
	"data": {
		"bytecode": {
			"linkReferences": {},
			"object": "608060405234801561001057600080fd5b506101f4806100206000396000f3fe608060405234801561001057600080fd5b50600436106100415760003560e01c80633da0ac791461004657806380e0d694146100615780639942ec6f14610082575b600080fd5b61004e61008a565b6040519081526020015b60405180910390f35b61007261006f366004610150565b90565b6040519015158152602001610058565b6100726100c8565b600060016100966100c8565b8061009f575060015b156100a8575060025b6100b06100c8565b80156100ba575060005b156100c3575060045b905090565b604080514260208201526bffffffffffffffffffffffff193360601b169181019190915260006054820181905290819081906006906074016040516020818303038152906040528051906020012060001c610123919061019e565b90508161012f81610177565b925050600381106101455760019250505061006f565b60009250505061006f565b600060208284031215610161578081fd5b81358015158114610170578182fd5b9392505050565b600060001982141561019757634e487b7160e01b81526011600452602481fd5b5060010190565b6000826101b957634e487b7160e01b81526012600452602481fd5b50069056fea2646970667358221220bd27cfae8d9467beb98a1fc05f40044ae3c723549756ea69fc503dbbe21b3d4564736f6c63430008020033",
			"opcodes": "PUSH1 0x80 PUSH1 0x40 MSTORE CALLVALUE DUP1 ISZERO PUSH2 0x10 JUMPI PUSH1 0x0 DUP1 REVERT JUMPDEST POP PUSH2 0x1F4 DUP1 PUSH2 0x20 PUSH1 0x0 CODECOPY PUSH1 0x0 RETURN INVALID PUSH1 0x80 PUSH1 0x40 MSTORE CALLVALUE DUP1 ISZERO PUSH2 0x10 JUMPI PUSH1 0x0 DUP1 REVERT JUMPDEST POP PUSH1 0x4 CALLDATASIZE LT PUSH2 0x41 JUMPI PUSH1 0x0 CALLDATALOAD PUSH1 0xE0 SHR DUP1 PUSH4 0x3DA0AC79 EQ PUSH2 0x46 JUMPI DUP1 PUSH4 0x80E0D694 EQ PUSH2 0x61 JUMPI DUP1 PUSH4 0x9942EC6F EQ PUSH2 0x82 JUMPI JUMPDEST PUSH1 0x0 DUP1 REVERT JUMPDEST PUSH2 0x4E PUSH2 0x8A JUMP JUMPDEST PUSH1 0x40 MLOAD SWAP1 DUP2 MSTORE PUSH1 0x20 ADD JUMPDEST PUSH1 0x40 MLOAD DUP1 SWAP2 SUB SWAP1 RETURN JUMPDEST PUSH2 0x72 PUSH2 0x6F CALLDATASIZE PUSH1 0x4 PUSH2 0x150 JUMP JUMPDEST SWAP1 JUMP JUMPDEST PUSH1 0x40 MLOAD SWAP1 ISZERO ISZERO DUP2 MSTORE PUSH1 0x20 ADD PUSH2 0x58 JUMP JUMPDEST PUSH2 0x72 PUSH2 0xC8 JUMP JUMPDEST PUSH1 0x0 PUSH1 0x1 PUSH2 0x96 PUSH2 0xC8 JUMP JUMPDEST DUP1 PUSH2 0x9F JUMPI POP PUSH1 0x1 JUMPDEST ISZERO PUSH2 0xA8 JUMPI POP PUSH1 0x2 JUMPDEST PUSH2 0xB0 PUSH2 0xC8 JUMP JUMPDEST DUP1 ISZERO PUSH2 0xBA JUMPI POP PUSH1 0x0 JUMPDEST ISZERO PUSH2 0xC3 JUMPI POP PUSH1 0x4 JUMPDEST SWAP1 POP SWAP1 JUMP JUMPDEST PUSH1 0x40 DUP1 MLOAD TIMESTAMP PUSH1 0x20 DUP3 ADD MSTORE PUSH12 0xFFFFFFFFFFFFFFFFFFFFFFFF NOT CALLER PUSH1 0x60 SHL AND SWAP2 DUP2 ADD SWAP2 SWAP1 SWAP2 MSTORE PUSH1 0x0 PUSH1 0x54 DUP3 ADD DUP2 SWAP1 MSTORE SWAP1 DUP2 SWAP1 DUP2 SWAP1 PUSH1 0x6 SWAP1 PUSH1 0x74 ADD PUSH1 0x40 MLOAD PUSH1 0x20 DUP2 DUP4 SUB SUB DUP2 MSTORE SWAP1 PUSH1 0x40 MSTORE DUP1 MLOAD SWAP1 PUSH1 0x20 ADD KECCAK256 PUSH1 0x0 SHR PUSH2 0x123 SWAP2 SWAP1 PUSH2 0x19E JUMP JUMPDEST SWAP1 POP DUP2 PUSH2 0x12F DUP2 PUSH2 0x177 JUMP JUMPDEST SWAP3 POP POP PUSH1 0x3 DUP2 LT PUSH2 0x145 JUMPI PUSH1 0x1 SWAP3 POP POP POP PUSH2 0x6F JUMP JUMPDEST PUSH1 0x0 SWAP3 POP POP POP PUSH2 0x6F JUMP JUMPDEST PUSH1 0x0 PUSH1 0x20 DUP3 DUP5 SUB SLT ISZERO PUSH2 0x161 JUMPI DUP1 DUP2 REVERT JUMPDEST DUP2 CALLDATALOAD DUP1 ISZERO ISZERO DUP2 EQ PUSH2 0x170 JUMPI DUP2 DUP3 REVERT JUMPDEST SWAP4 SWAP3 POP POP POP JUMP JUMPDEST PUSH1 0x0 PUSH1 0x0 NOT DUP3 EQ ISZERO PUSH2 0x197 JUMPI PUSH4 0x4E487B71 PUSH1 0xE0 SHL DUP2 MSTORE PUSH1 0x11 PUSH1 0x4 MSTORE PUSH1 0x24 DUP2 REVERT JUMPDEST POP PUSH1 0x1 ADD SWAP1 JUMP JUMPDEST PUSH1 0x0 DUP3 PUSH2 0x1B9 JUMPI PUSH4 0x4E487B71 PUSH1 0xE0 SHL DUP2 MSTORE PUSH1 0x12 PUSH1 0x4 MSTORE PUSH1 0x24 DUP2 REVERT JUMPDEST POP MOD SWAP1 JUMP INVALID LOG2 PUSH5 0x6970667358 0x22 SLT KECCAK256 0xBD 0x27 0xCF 0xAE DUP14 SWAP5 PUSH8 0xBEB98A1FC05F4004 0x4A 0xE3 0xC7 0x23 SLOAD SWAP8 JUMP 0xEA PUSH10 0xFC503DBBE21B3D456473 PUSH16 0x6C634300080200330000000000000000 "
		},
		"gasEstimates": {
			"creation": {
				"codeDepositCost": "100000",
				"executionCost": "147",
				"totalCost": "100147"
			},
			"external": {
				"compare()": "infinite",
				"f1(bool)": "309",
				"f2()": "650"
			}
		},
		"methodIdentifiers": {
			"compare()": "3da0ac79",
			"f1(bool)": "80e0d694",
			"f2()": "9942ec6f"
		}
	},
	"abi": [
		{
			"inputs": [],
			"name": "compare",
			"outputs": [
				{
					"internalType": "uint256",
					"name": "",
					"type": "uint256"
				}
			],
			"stateMutability": "view",
			"type": "function"
		},
		{
			"inputs": [
				{
					"internalType": "bool",
					"name": "b",
					"type": "bool"
				}
			],
			"name": "f1",
			"outputs": [
				{
					"internalType": "bool",
					"name": "",
					"type": "bool"
				}
			],
			"stateMutability": "pure",
			"type": "function"
		},
		{
			"inputs": [],
			"name": "f2",
			"outputs": [
				{
					"internalType": "bool",
					"name": "",
					"type": "bool"
				}
			],
			"stateMutability": "view",
			"type": "function"
		}
	]
}