{
	"data": {
		"bytecode": {
			"linkReferences": {},
			"object": "608060405234801561001057600080fd5b50610109806100206000396000f3fe6080604052348015600f57600080fd5b506004361060325760003560e01c8063d21314b0146037578063f4540e90146059575b600080fd5b6040516b48656c6c6f20576f726c642160a01b81526020015b60405180910390f35b60408051808201909152600c81526b48656c6c6f20576f726c642160a01b6020820152604051605091906000602080835283518082850152825b8181101560ad578581018301518582016040015282016093565b8181111560bd5783604083870101525b50601f01601f191692909201604001939250505056fea2646970667358221220c117b6bf587c7727825d304083b31017f77926a46960d872ab60539d7b3ea21864736f6c63430008020033",
			"opcodes": "PUSH1 0x80 PUSH1 0x40 MSTORE CALLVALUE DUP1 ISZERO PUSH2 0x10 JUMPI PUSH1 0x0 DUP1 REVERT JUMPDEST POP PUSH2 0x109 DUP1 PUSH2 0x20 PUSH1 0x0 CODECOPY PUSH1 0x0 RETURN INVALID PUSH1 0x80 PUSH1 0x40 MSTORE CALLVALUE DUP1 ISZERO PUSH1 0xF JUMPI PUSH1 0x0 DUP1 REVERT JUMPDEST POP PUSH1 0x4 CALLDATASIZE LT PUSH1 0x32 JUMPI PUSH1 0x0 CALLDATALOAD PUSH1 0xE0 SHR DUP1 PUSH4 0xD21314B0 EQ PUSH1 0x37 JUMPI DUP1 PUSH4 0xF4540E90 EQ PUSH1 0x59 JUMPI JUMPDEST PUSH1 0x0 DUP1 REVERT JUMPDEST PUSH1 0x40 MLOAD PUSH12 0x48656C6C6F20576F726C6421 PUSH1 0xA0 SHL DUP2 MSTORE PUSH1 0x20 ADD JUMPDEST PUSH1 0x40 MLOAD DUP1 SWAP2 SUB SWAP1 RETURN JUMPDEST PUSH1 0x40 DUP1 MLOAD DUP1 DUP3 ADD SWAP1 SWAP2 MSTORE PUSH1 0xC DUP2 MSTORE PUSH12 0x48656C6C6F20576F726C6421 PUSH1 0xA0 SHL PUSH1 0x20 DUP3 ADD MSTORE PUSH1 0x40 MLOAD PUSH1 0x50 SWAP2 SWAP1 PUSH1 0x0 PUSH1 0x20 DUP1 DUP4 MSTORE DUP4 MLOAD DUP1 DUP3 DUP6 ADD MSTORE DUP3 JUMPDEST DUP2 DUP2 LT ISZERO PUSH1 0xAD JUMPI DUP6 DUP2 ADD DUP4 ADD MLOAD DUP6 DUP3 ADD PUSH1 0x40 ADD MSTORE DUP3 ADD PUSH1 0x93 JUMP JUMPDEST DUP2 DUP2 GT ISZERO PUSH1 0xBD JUMPI DUP4 PUSH1 0x40 DUP4 DUP8 ADD ADD MSTORE JUMPDEST POP PUSH1 0x1F ADD PUSH1 0x1F NOT AND SWAP3 SWAP1 SWAP3 ADD PUSH1 0x40 ADD SWAP4 SWAP3 POP POP POP JUMP INVALID LOG2 PUSH5 0x6970667358 0x22 SLT KECCAK256 0xC1 OR 0xB6 0xBF PC PUSH29 0x7727825D304083B31017F77926A46960D872AB60539D7B3EA21864736F PUSH13 0x63430008020033000000000000 "
		},
		"gasEstimates": {
			"creation": {
				"codeDepositCost": "53000",
				"executionCost": "105",
				"totalCost": "53105"
			},
			"external": {
				"useByte()": "150",
				"useString()": "infinite"
			}
		},
		"methodIdentifiers": {
			"useByte()": "d21314b0",
			"useString()": "f4540e90"
		}
	},
	"abi": [
		{
			"inputs": [],
			"name": "useByte",
			"outputs": [
				{
					"internalType": "bytes32",
					"name": "a",
					"type": "bytes32"
				}
			],
			"stateMutability": "pure",
			"type": "function"
		},
		{
			"inputs": [],
			"name": "useString",
			"outputs": [
				{
					"internalType": "string",
					"name": "a",
					"type": "string"
				}
			],
			"stateMutability": "pure",
			"type": "function"
		}
	]
}