{
	"data": {
		"bytecode": {
			"linkReferences": {},
			"object": "608060405234801561001057600080fd5b50610232806100206000396000f3fe608060405234801561001057600080fd5b50600436106100415760003560e01c80632fbebd3814610046578063919840ad14610059578063b658f2a214610061575b600080fd5b61005761005436600461019b565b50565b005b610057610069565b6100576100ff565b6040805161010081018252600880825260208201819052918101829052606081018290526080810182905260a0810182905260c0810182905260e08101919091526002600360005b818110156100f9576100e9846100c783866101b3565b600881106100e557634e487b7160e01b600052603260045260246000fd5b5050565b6100f2816101cb565b90506100b1565b50505050565b6040805161010081018252600880825260208201819052918101829052606081018290526080810182905260a0810182905260c0810182905260e081018290529060029060039061015082846101b3565b111561015b57600080fd5b60005b818110156100f95761018b84828501600881106100e557634e487b7160e01b600052603260045260246000fd5b610194816101cb565b905061015e565b6000602082840312156101ac578081fd5b5035919050565b600082198211156101c6576101c66101e6565b500190565b60006000198214156101df576101df6101e6565b5060010190565b634e487b7160e01b600052601160045260246000fdfea2646970667358221220e27b5f09a045b125ec90229bf631c14d5de893d0f47f462e770e8c88138ec05764736f6c63430008020033",
			"opcodes": "PUSH1 0x80 PUSH1 0x40 MSTORE CALLVALUE DUP1 ISZERO PUSH2 0x10 JUMPI PUSH1 0x0 DUP1 REVERT JUMPDEST POP PUSH2 0x232 DUP1 PUSH2 0x20 PUSH1 0x0 CODECOPY PUSH1 0x0 RETURN INVALID PUSH1 0x80 PUSH1 0x40 MSTORE CALLVALUE DUP1 ISZERO PUSH2 0x10 JUMPI PUSH1 0x0 DUP1 REVERT JUMPDEST POP PUSH1 0x4 CALLDATASIZE LT PUSH2 0x41 JUMPI PUSH1 0x0 CALLDATALOAD PUSH1 0xE0 SHR DUP1 PUSH4 0x2FBEBD38 EQ PUSH2 0x46 JUMPI DUP1 PUSH4 0x919840AD EQ PUSH2 0x59 JUMPI DUP1 PUSH4 0xB658F2A2 EQ PUSH2 0x61 JUMPI JUMPDEST PUSH1 0x0 DUP1 REVERT JUMPDEST PUSH2 0x57 PUSH2 0x54 CALLDATASIZE PUSH1 0x4 PUSH2 0x19B JUMP JUMPDEST POP JUMP JUMPDEST STOP JUMPDEST PUSH2 0x57 PUSH2 0x69 JUMP JUMPDEST PUSH2 0x57 PUSH2 0xFF JUMP JUMPDEST PUSH1 0x40 DUP1 MLOAD PUSH2 0x100 DUP2 ADD DUP3 MSTORE PUSH1 0x8 DUP1 DUP3 MSTORE PUSH1 0x20 DUP3 ADD DUP2 SWAP1 MSTORE SWAP2 DUP2 ADD DUP3 SWAP1 MSTORE PUSH1 0x60 DUP2 ADD DUP3 SWAP1 MSTORE PUSH1 0x80 DUP2 ADD DUP3 SWAP1 MSTORE PUSH1 0xA0 DUP2 ADD DUP3 SWAP1 MSTORE PUSH1 0xC0 DUP2 ADD DUP3 SWAP1 MSTORE PUSH1 0xE0 DUP2 ADD SWAP2 SWAP1 SWAP2 MSTORE PUSH1 0x2 PUSH1 0x3 PUSH1 0x0 JUMPDEST DUP2 DUP2 LT ISZERO PUSH2 0xF9 JUMPI PUSH2 0xE9 DUP5 PUSH2 0xC7 DUP4 DUP7 PUSH2 0x1B3 JUMP JUMPDEST PUSH1 0x8 DUP2 LT PUSH2 0xE5 JUMPI PUSH4 0x4E487B71 PUSH1 0xE0 SHL PUSH1 0x0 MSTORE PUSH1 0x32 PUSH1 0x4 MSTORE PUSH1 0x24 PUSH1 0x0 REVERT JUMPDEST POP POP JUMP JUMPDEST PUSH2 0xF2 DUP2 PUSH2 0x1CB JUMP JUMPDEST SWAP1 POP PUSH2 0xB1 JUMP JUMPDEST POP POP POP POP JUMP JUMPDEST PUSH1 0x40 DUP1 MLOAD PUSH2 0x100 DUP2 ADD DUP3 MSTORE PUSH1 0x8 DUP1 DUP3 MSTORE PUSH1 0x20 DUP3 ADD DUP2 SWAP1 MSTORE SWAP2 DUP2 ADD DUP3 SWAP1 MSTORE PUSH1 0x60 DUP2 ADD DUP3 SWAP1 MSTORE PUSH1 0x80 DUP2 ADD DUP3 SWAP1 MSTORE PUSH1 0xA0 DUP2 ADD DUP3 SWAP1 MSTORE PUSH1 0xC0 DUP2 ADD DUP3 SWAP1 MSTORE PUSH1 0xE0 DUP2 ADD DUP3 SWAP1 MSTORE SWAP1 PUSH1 0x2 SWAP1 PUSH1 0x3 SWAP1 PUSH2 0x150 DUP3 DUP5 PUSH2 0x1B3 JUMP JUMPDEST GT ISZERO PUSH2 0x15B JUMPI PUSH1 0x0 DUP1 REVERT JUMPDEST PUSH1 0x0 JUMPDEST DUP2 DUP2 LT ISZERO PUSH2 0xF9 JUMPI PUSH2 0x18B DUP5 DUP3 DUP6 ADD PUSH1 0x8 DUP2 LT PUSH2 0xE5 JUMPI PUSH4 0x4E487B71 PUSH1 0xE0 SHL PUSH1 0x0 MSTORE PUSH1 0x32 PUSH1 0x4 MSTORE PUSH1 0x24 PUSH1 0x0 REVERT JUMPDEST PUSH2 0x194 DUP2 PUSH2 0x1CB JUMP JUMPDEST SWAP1 POP PUSH2 0x15E JUMP JUMPDEST PUSH1 0x0 PUSH1 0x20 DUP3 DUP5 SUB SLT ISZERO PUSH2 0x1AC JUMPI DUP1 DUP2 REVERT JUMPDEST POP CALLDATALOAD SWAP2 SWAP1 POP JUMP JUMPDEST PUSH1 0x0 DUP3 NOT DUP3 GT ISZERO PUSH2 0x1C6 JUMPI PUSH2 0x1C6 PUSH2 0x1E6 JUMP JUMPDEST POP ADD SWAP1 JUMP JUMPDEST PUSH1 0x0 PUSH1 0x0 NOT DUP3 EQ ISZERO PUSH2 0x1DF JUMPI PUSH2 0x1DF PUSH2 0x1E6 JUMP JUMPDEST POP PUSH1 0x1 ADD SWAP1 JUMP JUMPDEST PUSH4 0x4E487B71 PUSH1 0xE0 SHL PUSH1 0x0 MSTORE PUSH1 0x11 PUSH1 0x4 MSTORE PUSH1 0x24 PUSH1 0x0 REVERT INVALID LOG2 PUSH5 0x6970667358 0x22 SLT KECCAK256 0xE2 PUSH28 0x5F09A045B125EC90229BF631C14D5DE893D0F47F462E770E8C88138E 0xC0 JUMPI PUSH5 0x736F6C6343 STOP ADDMOD MUL STOP CALLER "
		},
		"gasEstimates": {
			"creation": {
				"codeDepositCost": "112400",
				"executionCost": "159",
				"totalCost": "112559"
			},
			"external": {
				"check()": "infinite",
				"foo(uint256)": "189",
				"uncheck()": "infinite"
			}
		},
		"methodIdentifiers": {
			"check()": "919840ad",
			"foo(uint256)": "2fbebd38",
			"uncheck()": "b658f2a2"
		}
	},
	"abi": [
		{
			"inputs": [],
			"name": "check",
			"outputs": [],
			"stateMutability": "nonpayable",
			"type": "function"
		},
		{
			"inputs": [
				{
					"internalType": "uint256",
					"name": "x",
					"type": "uint256"
				}
			],
			"name": "foo",
			"outputs": [],
			"stateMutability": "nonpayable",
			"type": "function"
		},
		{
			"inputs": [],
			"name": "uncheck",
			"outputs": [],
			"stateMutability": "nonpayable",
			"type": "function"
		}
	]
}