{
	"data": {
		"bytecode": {
			"linkReferences": {},
			"object": "608060405234801561001057600080fd5b5061012c806100206000396000f3fe6080604052348015600f57600080fd5b5060043610603c5760003560e01c8063224d9edd1460415780636c1990a5146062578063dbfdff61146041575b600080fd5b6050604c36600460a5565b6071565b60405190815260200160405180910390f35b6050606d36600460a5565b6086565b600060806020830135600260cc565b92915050565b6000608f826071565b506097826071565b50609f826071565b50919050565b600061028080838503121560b7578182fd5b83818401111560c4578182fd5b509092915050565b600081600019048311821515161560f157634e487b7160e01b81526011600452602481fd5b50029056fea26469706673582212204989f07e54077939eb87a96e4b42dedcdbfb3fdc22400c60bda2dde8a48e395d64736f6c63430008020033",
			"opcodes": "PUSH1 0x80 PUSH1 0x40 MSTORE CALLVALUE DUP1 ISZERO PUSH2 0x10 JUMPI PUSH1 0x0 DUP1 REVERT JUMPDEST POP PUSH2 0x12C DUP1 PUSH2 0x20 PUSH1 0x0 CODECOPY PUSH1 0x0 RETURN INVALID PUSH1 0x80 PUSH1 0x40 MSTORE CALLVALUE DUP1 ISZERO PUSH1 0xF JUMPI PUSH1 0x0 DUP1 REVERT JUMPDEST POP PUSH1 0x4 CALLDATASIZE LT PUSH1 0x3C JUMPI PUSH1 0x0 CALLDATALOAD PUSH1 0xE0 SHR DUP1 PUSH4 0x224D9EDD EQ PUSH1 0x41 JUMPI DUP1 PUSH4 0x6C1990A5 EQ PUSH1 0x62 JUMPI DUP1 PUSH4 0xDBFDFF61 EQ PUSH1 0x41 JUMPI JUMPDEST PUSH1 0x0 DUP1 REVERT JUMPDEST PUSH1 0x50 PUSH1 0x4C CALLDATASIZE PUSH1 0x4 PUSH1 0xA5 JUMP JUMPDEST PUSH1 0x71 JUMP JUMPDEST PUSH1 0x40 MLOAD SWAP1 DUP2 MSTORE PUSH1 0x20 ADD PUSH1 0x40 MLOAD DUP1 SWAP2 SUB SWAP1 RETURN JUMPDEST PUSH1 0x50 PUSH1 0x6D CALLDATASIZE PUSH1 0x4 PUSH1 0xA5 JUMP JUMPDEST PUSH1 0x86 JUMP JUMPDEST PUSH1 0x0 PUSH1 0x80 PUSH1 0x20 DUP4 ADD CALLDATALOAD PUSH1 0x2 PUSH1 0xCC JUMP JUMPDEST SWAP3 SWAP2 POP POP JUMP JUMPDEST PUSH1 0x0 PUSH1 0x8F DUP3 PUSH1 0x71 JUMP JUMPDEST POP PUSH1 0x97 DUP3 PUSH1 0x71 JUMP JUMPDEST POP PUSH1 0x9F DUP3 PUSH1 0x71 JUMP JUMPDEST POP SWAP2 SWAP1 POP JUMP JUMPDEST PUSH1 0x0 PUSH2 0x280 DUP1 DUP4 DUP6 SUB SLT ISZERO PUSH1 0xB7 JUMPI DUP2 DUP3 REVERT JUMPDEST DUP4 DUP2 DUP5 ADD GT ISZERO PUSH1 0xC4 JUMPI DUP2 DUP3 REVERT JUMPDEST POP SWAP1 SWAP3 SWAP2 POP POP JUMP JUMPDEST PUSH1 0x0 DUP2 PUSH1 0x0 NOT DIV DUP4 GT DUP3 ISZERO ISZERO AND ISZERO PUSH1 0xF1 JUMPI PUSH4 0x4E487B71 PUSH1 0xE0 SHL DUP2 MSTORE PUSH1 0x11 PUSH1 0x4 MSTORE PUSH1 0x24 DUP2 REVERT JUMPDEST POP MUL SWAP1 JUMP INVALID LOG2 PUSH5 0x6970667358 0x22 SLT KECCAK256 0x49 DUP10 CREATE PUSH31 0x54077939EB87A96E4B42DEDCDBFB3FDC22400C60BDA2DDE8A48E395D64736F PUSH13 0x63430008020033000000000000 "
		},
		"gasEstimates": {
			"creation": {
				"codeDepositCost": "60000",
				"executionCost": "111",
				"totalCost": "60111"
			},
			"external": {
				"call(uint256[20])": "infinite",
				"fExternal(uint256[20])": "439",
				"fPublic(uint256[20])": "395"
			},
			"internal": {
				"fInternal(uint256[20] calldata)": "infinite",
				"fPrivate(uint256[20] calldata)": "infinite"
			}
		},
		"methodIdentifiers": {
			"call(uint256[20])": "6c1990a5",
			"fExternal(uint256[20])": "dbfdff61",
			"fPublic(uint256[20])": "224d9edd"
		}
	},
	"abi": [
		{
			"inputs": [
				{
					"internalType": "uint256[20]",
					"name": "x",
					"type": "uint256[20]"
				}
			],
			"name": "call",
			"outputs": [
				{
					"internalType": "uint256",
					"name": "",
					"type": "uint256"
				}
			],
			"stateMutability": "nonpayable",
			"type": "function"
		},
		{
			"inputs": [
				{
					"internalType": "uint256[20]",
					"name": "a",
					"type": "uint256[20]"
				}
			],
			"name": "fExternal",
			"outputs": [
				{
					"internalType": "uint256",
					"name": "",
					"type": "uint256"
				}
			],
			"stateMutability": "nonpayable",
			"type": "function"
		},
		{
			"inputs": [
				{
					"internalType": "uint256[20]",
					"name": "a",
					"type": "uint256[20]"
				}
			],
			"name": "fPublic",
			"outputs": [
				{
					"internalType": "uint256",
					"name": "",
					"type": "uint256"
				}
			],
			"stateMutability": "nonpayable",
			"type": "function"
		}
	]
}