{
	"data": {
		"bytecode": {
			"linkReferences": {},
			"object": "608060405234801561001057600080fd5b506103e5806100206000396000f3fe608060405234801561001057600080fd5b50600436106100365760003560e01c806359d56bae1461003b578063b377643c14610045575b600080fd5b61004361004f565b005b61004d61024c565b005b600060aa908080548061006190610320565b80601f811461006f57610085565b83600052602060002060ff1984168155603f9350505b506002820183556001810192505050600190038154600116156100b75790600052602060002090602091828204019190065b909160f81b90919091601f036101000a81548160ff021916907f010000000000000000000000000000000000000000000000000000000000000084040217905550600060bb908080548061010a90610320565b80601f81146101185761012e565b83600052602060002060ff1984168155603f9350505b506002820183556001810192505050600190038154600116156101605790600052602060002090602091828204019190065b909160f81b90919091601f036101000a81548160ff021916907f010000000000000000000000000000000000000000000000000000000000000084040217905550600060cc90808054806101b390610320565b80601f81146101c1576101d7565b83600052602060002060ff1984168155603f9350505b506002820183556001810192505050600190038154600116156102095790600052602060002090602091828204019190065b909160f81b90919091601f036101000a81548160ff021916907f010000000000000000000000000000000000000000000000000000000000000084040217905550565b6040518060600160405280602e8152602001610382602e91396001908051906020019061027a92919061027d565b50565b82805461028990610320565b90600052602060002090601f0160209004810192826102ab57600085556102f2565b82601f106102c457805160ff19168380011785556102f2565b828001600101855582156102f2579182015b828111156102f15782518255916020019190600101906102d6565b5b5090506102ff9190610303565b5090565b5b8082111561031c576000816000905550600101610304565b5090565b6000600282049050600182168061033857607f821691505b6020821081141561034c5761034b610352565b5b50919050565b7f4e487b7100000000000000000000000000000000000000000000000000000000600052602260045260246000fdfe307841424344454647484a4b4c4d4e4f505152535455565a41424344454647484a4b4c4d4e4f505152535455565aa264697066735822122014a491d6bb814d29bf23febd92ba37f7a75c886bb18c2e38e262495541828f1264736f6c63430008010033",
			"opcodes": "PUSH1 0x80 PUSH1 0x40 MSTORE CALLVALUE DUP1 ISZERO PUSH2 0x10 JUMPI PUSH1 0x0 DUP1 REVERT JUMPDEST POP PUSH2 0x3E5 DUP1 PUSH2 0x20 PUSH1 0x0 CODECOPY PUSH1 0x0 RETURN INVALID PUSH1 0x80 PUSH1 0x40 MSTORE CALLVALUE DUP1 ISZERO PUSH2 0x10 JUMPI PUSH1 0x0 DUP1 REVERT JUMPDEST POP PUSH1 0x4 CALLDATASIZE LT PUSH2 0x36 JUMPI PUSH1 0x0 CALLDATALOAD PUSH1 0xE0 SHR DUP1 PUSH4 0x59D56BAE EQ PUSH2 0x3B JUMPI DUP1 PUSH4 0xB377643C EQ PUSH2 0x45 JUMPI JUMPDEST PUSH1 0x0 DUP1 REVERT JUMPDEST PUSH2 0x43 PUSH2 0x4F JUMP JUMPDEST STOP JUMPDEST PUSH2 0x4D PUSH2 0x24C JUMP JUMPDEST STOP JUMPDEST PUSH1 0x0 PUSH1 0xAA SWAP1 DUP1 DUP1 SLOAD DUP1 PUSH2 0x61 SWAP1 PUSH2 0x320 JUMP JUMPDEST DUP1 PUSH1 0x1F DUP2 EQ PUSH2 0x6F JUMPI PUSH2 0x85 JUMP JUMPDEST DUP4 PUSH1 0x0 MSTORE PUSH1 0x20 PUSH1 0x0 KECCAK256 PUSH1 0xFF NOT DUP5 AND DUP2 SSTORE PUSH1 0x3F SWAP4 POP POP JUMPDEST POP PUSH1 0x2 DUP3 ADD DUP4 SSTORE PUSH1 0x1 DUP2 ADD SWAP3 POP POP POP PUSH1 0x1 SWAP1 SUB DUP2 SLOAD PUSH1 0x1 AND ISZERO PUSH2 0xB7 JUMPI SWAP1 PUSH1 0x0 MSTORE PUSH1 0x20 PUSH1 0x0 KECCAK256 SWAP1 PUSH1 0x20 SWAP2 DUP3 DUP3 DIV ADD SWAP2 SWAP1 MOD JUMPDEST SWAP1 SWAP2 PUSH1 0xF8 SHL SWAP1 SWAP2 SWAP1 SWAP2 PUSH1 0x1F SUB PUSH2 0x100 EXP DUP2 SLOAD DUP2 PUSH1 0xFF MUL NOT AND SWAP1 PUSH32 0x100000000000000000000000000000000000000000000000000000000000000 DUP5 DIV MUL OR SWAP1 SSTORE POP PUSH1 0x0 PUSH1 0xBB SWAP1 DUP1 DUP1 SLOAD DUP1 PUSH2 0x10A SWAP1 PUSH2 0x320 JUMP JUMPDEST DUP1 PUSH1 0x1F DUP2 EQ PUSH2 0x118 JUMPI PUSH2 0x12E JUMP JUMPDEST DUP4 PUSH1 0x0 MSTORE PUSH1 0x20 PUSH1 0x0 KECCAK256 PUSH1 0xFF NOT DUP5 AND DUP2 SSTORE PUSH1 0x3F SWAP4 POP POP JUMPDEST POP PUSH1 0x2 DUP3 ADD DUP4 SSTORE PUSH1 0x1 DUP2 ADD SWAP3 POP POP POP PUSH1 0x1 SWAP1 SUB DUP2 SLOAD PUSH1 0x1 AND ISZERO PUSH2 0x160 JUMPI SWAP1 PUSH1 0x0 MSTORE PUSH1 0x20 PUSH1 0x0 KECCAK256 SWAP1 PUSH1 0x20 SWAP2 DUP3 DUP3 DIV ADD SWAP2 SWAP1 MOD JUMPDEST SWAP1 SWAP2 PUSH1 0xF8 SHL SWAP1 SWAP2 SWAP1 SWAP2 PUSH1 0x1F SUB PUSH2 0x100 EXP DUP2 SLOAD DUP2 PUSH1 0xFF MUL NOT AND SWAP1 PUSH32 0x100000000000000000000000000000000000000000000000000000000000000 DUP5 DIV MUL OR SWAP1 SSTORE POP PUSH1 0x0 PUSH1 0xCC SWAP1 DUP1 DUP1 SLOAD DUP1 PUSH2 0x1B3 SWAP1 PUSH2 0x320 JUMP JUMPDEST DUP1 PUSH1 0x1F DUP2 EQ PUSH2 0x1C1 JUMPI PUSH2 0x1D7 JUMP JUMPDEST DUP4 PUSH1 0x0 MSTORE PUSH1 0x20 PUSH1 0x0 KECCAK256 PUSH1 0xFF NOT DUP5 AND DUP2 SSTORE PUSH1 0x3F SWAP4 POP POP JUMPDEST POP PUSH1 0x2 DUP3 ADD DUP4 SSTORE PUSH1 0x1 DUP2 ADD SWAP3 POP POP POP PUSH1 0x1 SWAP1 SUB DUP2 SLOAD PUSH1 0x1 AND ISZERO PUSH2 0x209 JUMPI SWAP1 PUSH1 0x0 MSTORE PUSH1 0x20 PUSH1 0x0 KECCAK256 SWAP1 PUSH1 0x20 SWAP2 DUP3 DUP3 DIV ADD SWAP2 SWAP1 MOD JUMPDEST SWAP1 SWAP2 PUSH1 0xF8 SHL SWAP1 SWAP2 SWAP1 SWAP2 PUSH1 0x1F SUB PUSH2 0x100 EXP DUP2 SLOAD DUP2 PUSH1 0xFF MUL NOT AND SWAP1 PUSH32 0x100000000000000000000000000000000000000000000000000000000000000 DUP5 DIV MUL OR SWAP1 SSTORE POP JUMP JUMPDEST PUSH1 0x40 MLOAD DUP1 PUSH1 0x60 ADD PUSH1 0x40 MSTORE DUP1 PUSH1 0x2E DUP2 MSTORE PUSH1 0x20 ADD PUSH2 0x382 PUSH1 0x2E SWAP2 CODECOPY PUSH1 0x1 SWAP1 DUP1 MLOAD SWAP1 PUSH1 0x20 ADD SWAP1 PUSH2 0x27A SWAP3 SWAP2 SWAP1 PUSH2 0x27D JUMP JUMPDEST POP JUMP JUMPDEST DUP3 DUP1 SLOAD PUSH2 0x289 SWAP1 PUSH2 0x320 JUMP JUMPDEST SWAP1 PUSH1 0x0 MSTORE PUSH1 0x20 PUSH1 0x0 KECCAK256 SWAP1 PUSH1 0x1F ADD PUSH1 0x20 SWAP1 DIV DUP2 ADD SWAP3 DUP3 PUSH2 0x2AB JUMPI PUSH1 0x0 DUP6 SSTORE PUSH2 0x2F2 JUMP JUMPDEST DUP3 PUSH1 0x1F LT PUSH2 0x2C4 JUMPI DUP1 MLOAD PUSH1 0xFF NOT AND DUP4 DUP1 ADD OR DUP6 SSTORE PUSH2 0x2F2 JUMP JUMPDEST DUP3 DUP1 ADD PUSH1 0x1 ADD DUP6 SSTORE DUP3 ISZERO PUSH2 0x2F2 JUMPI SWAP2 DUP3 ADD JUMPDEST DUP3 DUP2 GT ISZERO PUSH2 0x2F1 JUMPI DUP3 MLOAD DUP3 SSTORE SWAP2 PUSH1 0x20 ADD SWAP2 SWAP1 PUSH1 0x1 ADD SWAP1 PUSH2 0x2D6 JUMP JUMPDEST JUMPDEST POP SWAP1 POP PUSH2 0x2FF SWAP2 SWAP1 PUSH2 0x303 JUMP JUMPDEST POP SWAP1 JUMP JUMPDEST JUMPDEST DUP1 DUP3 GT ISZERO PUSH2 0x31C JUMPI PUSH1 0x0 DUP2 PUSH1 0x0 SWAP1 SSTORE POP PUSH1 0x1 ADD PUSH2 0x304 JUMP JUMPDEST POP SWAP1 JUMP JUMPDEST PUSH1 0x0 PUSH1 0x2 DUP3 DIV SWAP1 POP PUSH1 0x1 DUP3 AND DUP1 PUSH2 0x338 JUMPI PUSH1 0x7F DUP3 AND SWAP2 POP JUMPDEST PUSH1 0x20 DUP3 LT DUP2 EQ ISZERO PUSH2 0x34C JUMPI PUSH2 0x34B PUSH2 0x352 JUMP JUMPDEST JUMPDEST POP SWAP2 SWAP1 POP JUMP JUMPDEST PUSH32 0x4E487B7100000000000000000000000000000000000000000000000000000000 PUSH1 0x0 MSTORE PUSH1 0x22 PUSH1 0x4 MSTORE PUSH1 0x24 PUSH1 0x0 REVERT INVALID ADDRESS PUSH25 0x41424344454647484A4B4C4D4E4F505152535455565A414243 DIFFICULTY GASLIMIT CHAINID SELFBALANCE 0x48 0x4A 0x4B 0x4C 0x4D 0x4E 0x4F POP MLOAD MSTORE MSTORE8 SLOAD SSTORE JUMP GAS LOG2 PUSH5 0x6970667358 0x22 SLT KECCAK256 EQ LOG4 SWAP2 0xD6 0xBB DUP2 0x4D 0x29 0xBF 0x23 INVALID 0xBD SWAP3 0xBA CALLDATACOPY 0xF7 0xA7 0x5C DUP9 PUSH12 0xB18C2E38E262495541828F12 PUSH5 0x736F6C6343 STOP ADDMOD ADD STOP CALLER "
		},
		"gasEstimates": {
			"creation": {
				"codeDepositCost": "199400",
				"executionCost": "245",
				"totalCost": "199645"
			},
			"external": {
				"by1()": "infinite",
				"by2()": "infinite"
			}
		},
		"methodIdentifiers": {
			"by1()": "59d56bae",
			"by2()": "b377643c"
		}
	},
	"abi": [
		{
			"inputs": [],
			"name": "by1",
			"outputs": [],
			"stateMutability": "nonpayable",
			"type": "function"
		},
		{
			"inputs": [],
			"name": "by2",
			"outputs": [],
			"stateMutability": "nonpayable",
			"type": "function"
		}
	]
}