{
	"data": {
		"bytecode": {
			"linkReferences": {},
			"object": "608060405234801561001057600080fd5b50610343806100206000396000f3fe608060405234801561001057600080fd5b50600436106100365760003560e01c806359d56bae1461003b578063b377643c14610045575b600080fd5b61004361004d565b005b6100436101db565b600060aa908080548061005f906102a4565b80601f811461006d57610083565b83600052602060002060ff1984168155603f9350505b506002919091019091558154600116156100ac5790600052602060002090602091828204019190065b909160f81b90919091601f036101000a81548160ff02191690600160f81b84040217905550600060bb90808054806100e3906102a4565b80601f81146100f157610107565b83600052602060002060ff1984168155603f9350505b506002919091019091558154600116156101305790600052602060002090602091828204019190065b909160f81b90919091601f036101000a81548160ff02191690600160f81b84040217905550600060cc9080805480610167906102a4565b80601f81146101755761018b565b83600052602060002060ff1984168155603f9350505b506002919091019091558154600116156101b45790600052602060002090602091828204019190065b909160f81b90919091601f036101000a81548160ff02191690600160f81b84040217905550565b6040518060600160405280602e81526020016102e0602e913980516102089160019160209091019061020b565b50565b828054610217906102a4565b90600052602060002090601f016020900481019282610239576000855561027f565b82601f1061025257805160ff191683800117855561027f565b8280016001018555821561027f579182015b8281111561027f578251825591602001919060010190610264565b5061028b92915061028f565b5090565b5b8082111561028b5760008155600101610290565b6002810460018216806102b857607f821691505b602082108114156102d957634e487b7160e01b600052602260045260246000fd5b5091905056fe307841424344454647484a4b4c4d4e4f505152535455565a41424344454647484a4b4c4d4e4f505152535455565aa264697066735822122048791945939028e2b02bd4d91561a0815dfa9bc40f51da5d86b81c97bdfef37b64736f6c63430008020033",
			"opcodes": "PUSH1 0x80 PUSH1 0x40 MSTORE CALLVALUE DUP1 ISZERO PUSH2 0x10 JUMPI PUSH1 0x0 DUP1 REVERT JUMPDEST POP PUSH2 0x343 DUP1 PUSH2 0x20 PUSH1 0x0 CODECOPY PUSH1 0x0 RETURN INVALID PUSH1 0x80 PUSH1 0x40 MSTORE CALLVALUE DUP1 ISZERO PUSH2 0x10 JUMPI PUSH1 0x0 DUP1 REVERT JUMPDEST POP PUSH1 0x4 CALLDATASIZE LT PUSH2 0x36 JUMPI PUSH1 0x0 CALLDATALOAD PUSH1 0xE0 SHR DUP1 PUSH4 0x59D56BAE EQ PUSH2 0x3B JUMPI DUP1 PUSH4 0xB377643C EQ PUSH2 0x45 JUMPI JUMPDEST PUSH1 0x0 DUP1 REVERT JUMPDEST PUSH2 0x43 PUSH2 0x4D JUMP JUMPDEST STOP JUMPDEST PUSH2 0x43 PUSH2 0x1DB JUMP JUMPDEST PUSH1 0x0 PUSH1 0xAA SWAP1 DUP1 DUP1 SLOAD DUP1 PUSH2 0x5F SWAP1 PUSH2 0x2A4 JUMP JUMPDEST DUP1 PUSH1 0x1F DUP2 EQ PUSH2 0x6D JUMPI PUSH2 0x83 JUMP JUMPDEST DUP4 PUSH1 0x0 MSTORE PUSH1 0x20 PUSH1 0x0 KECCAK256 PUSH1 0xFF NOT DUP5 AND DUP2 SSTORE PUSH1 0x3F SWAP4 POP POP JUMPDEST POP PUSH1 0x2 SWAP2 SWAP1 SWAP2 ADD SWAP1 SWAP2 SSTORE DUP2 SLOAD PUSH1 0x1 AND ISZERO PUSH2 0xAC JUMPI SWAP1 PUSH1 0x0 MSTORE PUSH1 0x20 PUSH1 0x0 KECCAK256 SWAP1 PUSH1 0x20 SWAP2 DUP3 DUP3 DIV ADD SWAP2 SWAP1 MOD JUMPDEST SWAP1 SWAP2 PUSH1 0xF8 SHL SWAP1 SWAP2 SWAP1 SWAP2 PUSH1 0x1F SUB PUSH2 0x100 EXP DUP2 SLOAD DUP2 PUSH1 0xFF MUL NOT AND SWAP1 PUSH1 0x1 PUSH1 0xF8 SHL DUP5 DIV MUL OR SWAP1 SSTORE POP PUSH1 0x0 PUSH1 0xBB SWAP1 DUP1 DUP1 SLOAD DUP1 PUSH2 0xE3 SWAP1 PUSH2 0x2A4 JUMP JUMPDEST DUP1 PUSH1 0x1F DUP2 EQ PUSH2 0xF1 JUMPI PUSH2 0x107 JUMP JUMPDEST DUP4 PUSH1 0x0 MSTORE PUSH1 0x20 PUSH1 0x0 KECCAK256 PUSH1 0xFF NOT DUP5 AND DUP2 SSTORE PUSH1 0x3F SWAP4 POP POP JUMPDEST POP PUSH1 0x2 SWAP2 SWAP1 SWAP2 ADD SWAP1 SWAP2 SSTORE DUP2 SLOAD PUSH1 0x1 AND ISZERO PUSH2 0x130 JUMPI SWAP1 PUSH1 0x0 MSTORE PUSH1 0x20 PUSH1 0x0 KECCAK256 SWAP1 PUSH1 0x20 SWAP2 DUP3 DUP3 DIV ADD SWAP2 SWAP1 MOD JUMPDEST SWAP1 SWAP2 PUSH1 0xF8 SHL SWAP1 SWAP2 SWAP1 SWAP2 PUSH1 0x1F SUB PUSH2 0x100 EXP DUP2 SLOAD DUP2 PUSH1 0xFF MUL NOT AND SWAP1 PUSH1 0x1 PUSH1 0xF8 SHL DUP5 DIV MUL OR SWAP1 SSTORE POP PUSH1 0x0 PUSH1 0xCC SWAP1 DUP1 DUP1 SLOAD DUP1 PUSH2 0x167 SWAP1 PUSH2 0x2A4 JUMP JUMPDEST DUP1 PUSH1 0x1F DUP2 EQ PUSH2 0x175 JUMPI PUSH2 0x18B JUMP JUMPDEST DUP4 PUSH1 0x0 MSTORE PUSH1 0x20 PUSH1 0x0 KECCAK256 PUSH1 0xFF NOT DUP5 AND DUP2 SSTORE PUSH1 0x3F SWAP4 POP POP JUMPDEST POP PUSH1 0x2 SWAP2 SWAP1 SWAP2 ADD SWAP1 SWAP2 SSTORE DUP2 SLOAD PUSH1 0x1 AND ISZERO PUSH2 0x1B4 JUMPI SWAP1 PUSH1 0x0 MSTORE PUSH1 0x20 PUSH1 0x0 KECCAK256 SWAP1 PUSH1 0x20 SWAP2 DUP3 DUP3 DIV ADD SWAP2 SWAP1 MOD JUMPDEST SWAP1 SWAP2 PUSH1 0xF8 SHL SWAP1 SWAP2 SWAP1 SWAP2 PUSH1 0x1F SUB PUSH2 0x100 EXP DUP2 SLOAD DUP2 PUSH1 0xFF MUL NOT AND SWAP1 PUSH1 0x1 PUSH1 0xF8 SHL DUP5 DIV MUL OR SWAP1 SSTORE POP JUMP JUMPDEST PUSH1 0x40 MLOAD DUP1 PUSH1 0x60 ADD PUSH1 0x40 MSTORE DUP1 PUSH1 0x2E DUP2 MSTORE PUSH1 0x20 ADD PUSH2 0x2E0 PUSH1 0x2E SWAP2 CODECOPY DUP1 MLOAD PUSH2 0x208 SWAP2 PUSH1 0x1 SWAP2 PUSH1 0x20 SWAP1 SWAP2 ADD SWAP1 PUSH2 0x20B JUMP JUMPDEST POP JUMP JUMPDEST DUP3 DUP1 SLOAD PUSH2 0x217 SWAP1 PUSH2 0x2A4 JUMP JUMPDEST SWAP1 PUSH1 0x0 MSTORE PUSH1 0x20 PUSH1 0x0 KECCAK256 SWAP1 PUSH1 0x1F ADD PUSH1 0x20 SWAP1 DIV DUP2 ADD SWAP3 DUP3 PUSH2 0x239 JUMPI PUSH1 0x0 DUP6 SSTORE PUSH2 0x27F JUMP JUMPDEST DUP3 PUSH1 0x1F LT PUSH2 0x252 JUMPI DUP1 MLOAD PUSH1 0xFF NOT AND DUP4 DUP1 ADD OR DUP6 SSTORE PUSH2 0x27F JUMP JUMPDEST DUP3 DUP1 ADD PUSH1 0x1 ADD DUP6 SSTORE DUP3 ISZERO PUSH2 0x27F JUMPI SWAP2 DUP3 ADD JUMPDEST DUP3 DUP2 GT ISZERO PUSH2 0x27F JUMPI DUP3 MLOAD DUP3 SSTORE SWAP2 PUSH1 0x20 ADD SWAP2 SWAP1 PUSH1 0x1 ADD SWAP1 PUSH2 0x264 JUMP JUMPDEST POP PUSH2 0x28B SWAP3 SWAP2 POP PUSH2 0x28F JUMP JUMPDEST POP SWAP1 JUMP JUMPDEST JUMPDEST DUP1 DUP3 GT ISZERO PUSH2 0x28B JUMPI PUSH1 0x0 DUP2 SSTORE PUSH1 0x1 ADD PUSH2 0x290 JUMP JUMPDEST PUSH1 0x2 DUP2 DIV PUSH1 0x1 DUP3 AND DUP1 PUSH2 0x2B8 JUMPI PUSH1 0x7F DUP3 AND SWAP2 POP JUMPDEST PUSH1 0x20 DUP3 LT DUP2 EQ ISZERO PUSH2 0x2D9 JUMPI PUSH4 0x4E487B71 PUSH1 0xE0 SHL PUSH1 0x0 MSTORE PUSH1 0x22 PUSH1 0x4 MSTORE PUSH1 0x24 PUSH1 0x0 REVERT JUMPDEST POP SWAP2 SWAP1 POP JUMP INVALID ADDRESS PUSH25 0x41424344454647484A4B4C4D4E4F505152535455565A414243 DIFFICULTY GASLIMIT CHAINID SELFBALANCE 0x48 0x4A 0x4B 0x4C 0x4D 0x4E 0x4F POP MLOAD MSTORE MSTORE8 SLOAD SSTORE JUMP GAS LOG2 PUSH5 0x6970667358 0x22 SLT KECCAK256 0x48 PUSH26 0x1945939028E2B02BD4D91561A0815DFA9BC40F51DA5D86B81C97 0xBD INVALID RETURN PUSH28 0x64736F6C634300080200330000000000000000000000000000000000 "
		},
		"gasEstimates": {
			"creation": {
				"codeDepositCost": "167000",
				"executionCost": "214",
				"totalCost": "167214"
			},
			"external": {
				"by1()": "infinite",
				"by2()": "infinite"
			}
		},
		"methodIdentifiers": {
			"by1()": "59d56bae",
			"by2()": "b377643c"
		}
	},
	"abi": [
		{
			"inputs": [],
			"name": "by1",
			"outputs": [],
			"stateMutability": "nonpayable",
			"type": "function"
		},
		{
			"inputs": [],
			"name": "by2",
			"outputs": [],
			"stateMutability": "nonpayable",
			"type": "function"
		}
	]
}