{
	"data": {
		"bytecode": {
			"linkReferences": {},
			"object": "608060405234801561001057600080fd5b5060bd8061001f6000396000f3fe6080604052348015600f57600080fd5b506004361060285760003560e01c80639406a0ad14602d575b600080fd5b608561aaaa7f839613f731613c3a2f728362760f939c8004b5d9066154aab51d6dadf74733f35561bbbb600081905260016020527f34cb23340a4263c995af18b23d9f53b67ff379ccaa3a91b75007b010c489d39555565b00fea2646970667358221220665f8d1b6b858b6c7667259f81d763c65cd9f8ae08c64de410d742c89c302be464736f6c63430008020033",
			"opcodes": "PUSH1 0x80 PUSH1 0x40 MSTORE CALLVALUE DUP1 ISZERO PUSH2 0x10 JUMPI PUSH1 0x0 DUP1 REVERT JUMPDEST POP PUSH1 0xBD DUP1 PUSH2 0x1F PUSH1 0x0 CODECOPY PUSH1 0x0 RETURN INVALID PUSH1 0x80 PUSH1 0x40 MSTORE CALLVALUE DUP1 ISZERO PUSH1 0xF JUMPI PUSH1 0x0 DUP1 REVERT JUMPDEST POP PUSH1 0x4 CALLDATASIZE LT PUSH1 0x28 JUMPI PUSH1 0x0 CALLDATALOAD PUSH1 0xE0 SHR DUP1 PUSH4 0x9406A0AD EQ PUSH1 0x2D JUMPI JUMPDEST PUSH1 0x0 DUP1 REVERT JUMPDEST PUSH1 0x85 PUSH2 0xAAAA PUSH32 0x839613F731613C3A2F728362760F939C8004B5D9066154AAB51D6DADF74733F3 SSTORE PUSH2 0xBBBB PUSH1 0x0 DUP2 SWAP1 MSTORE PUSH1 0x1 PUSH1 0x20 MSTORE PUSH32 0x34CB23340A4263C995AF18B23D9F53B67FF379CCAA3A91B75007B010C489D395 SSTORE JUMP JUMPDEST STOP INVALID LOG2 PUSH5 0x6970667358 0x22 SLT KECCAK256 PUSH7 0x5F8D1B6B858B6C PUSH23 0x67259F81D763C65CD9F8AE08C64DE410D742C89C302BE4 PUSH5 0x736F6C6343 STOP ADDMOD MUL STOP CALLER "
		},
		"gasEstimates": {
			"creation": {
				"codeDepositCost": "37800",
				"executionCost": "87",
				"totalCost": "37887"
			},
			"external": {
				"map1()": "40143"
			}
		},
		"methodIdentifiers": {
			"map1()": "9406a0ad"
		}
	},
	"abi": [
		{
			"inputs": [],
			"name": "map1",
			"outputs": [],
			"stateMutability": "nonpayable",
			"type": "function"
		}
	]
}