{
	"data": {
		"bytecode": {
			"linkReferences": {},
			"object": "608060405234801561001057600080fd5b50610123806100206000396000f3fe6080604052348015600f57600080fd5b506004361060325760003560e01c806313ec6f481460375780634a0896c614604f575b600080fd5b604d60048036038101906049919060a9565b6067565b005b606560048036038101906061919060a9565b606a565b005b50565b60706074565b5050565b6040518060e00160405280600790602082028036833780820191505090505090565b60008135905060a38160d9565b92915050565b60006020828403121560ba57600080fd5b600060c6848285016096565b91505092915050565b6000819050919050565b60e08160cf565b811460ea57600080fd5b5056fea264697066735822122017a3ba1d9be56287e4e5f9fd9cf4416afc0a7a53d80ed96adcd8c972a3e1f96964736f6c63430008010033",
			"opcodes": "PUSH1 0x80 PUSH1 0x40 MSTORE CALLVALUE DUP1 ISZERO PUSH2 0x10 JUMPI PUSH1 0x0 DUP1 REVERT JUMPDEST POP PUSH2 0x123 DUP1 PUSH2 0x20 PUSH1 0x0 CODECOPY PUSH1 0x0 RETURN INVALID PUSH1 0x80 PUSH1 0x40 MSTORE CALLVALUE DUP1 ISZERO PUSH1 0xF JUMPI PUSH1 0x0 DUP1 REVERT JUMPDEST POP PUSH1 0x4 CALLDATASIZE LT PUSH1 0x32 JUMPI PUSH1 0x0 CALLDATALOAD PUSH1 0xE0 SHR DUP1 PUSH4 0x13EC6F48 EQ PUSH1 0x37 JUMPI DUP1 PUSH4 0x4A0896C6 EQ PUSH1 0x4F JUMPI JUMPDEST PUSH1 0x0 DUP1 REVERT JUMPDEST PUSH1 0x4D PUSH1 0x4 DUP1 CALLDATASIZE SUB DUP2 ADD SWAP1 PUSH1 0x49 SWAP2 SWAP1 PUSH1 0xA9 JUMP JUMPDEST PUSH1 0x67 JUMP JUMPDEST STOP JUMPDEST PUSH1 0x65 PUSH1 0x4 DUP1 CALLDATASIZE SUB DUP2 ADD SWAP1 PUSH1 0x61 SWAP2 SWAP1 PUSH1 0xA9 JUMP JUMPDEST PUSH1 0x6A JUMP JUMPDEST STOP JUMPDEST POP JUMP JUMPDEST PUSH1 0x70 PUSH1 0x74 JUMP JUMPDEST POP POP JUMP JUMPDEST PUSH1 0x40 MLOAD DUP1 PUSH1 0xE0 ADD PUSH1 0x40 MSTORE DUP1 PUSH1 0x7 SWAP1 PUSH1 0x20 DUP3 MUL DUP1 CALLDATASIZE DUP4 CALLDATACOPY DUP1 DUP3 ADD SWAP2 POP POP SWAP1 POP POP SWAP1 JUMP JUMPDEST PUSH1 0x0 DUP2 CALLDATALOAD SWAP1 POP PUSH1 0xA3 DUP2 PUSH1 0xD9 JUMP JUMPDEST SWAP3 SWAP2 POP POP JUMP JUMPDEST PUSH1 0x0 PUSH1 0x20 DUP3 DUP5 SUB SLT ISZERO PUSH1 0xBA JUMPI PUSH1 0x0 DUP1 REVERT JUMPDEST PUSH1 0x0 PUSH1 0xC6 DUP5 DUP3 DUP6 ADD PUSH1 0x96 JUMP JUMPDEST SWAP2 POP POP SWAP3 SWAP2 POP POP JUMP JUMPDEST PUSH1 0x0 DUP2 SWAP1 POP SWAP2 SWAP1 POP JUMP JUMPDEST PUSH1 0xE0 DUP2 PUSH1 0xCF JUMP JUMPDEST DUP2 EQ PUSH1 0xEA JUMPI PUSH1 0x0 DUP1 REVERT JUMPDEST POP JUMP INVALID LOG2 PUSH5 0x6970667358 0x22 SLT KECCAK256 OR LOG3 0xBA SAR SWAP12 0xE5 PUSH3 0x87E4E5 0xF9 REVERT SWAP13 DELEGATECALL COINBASE PUSH11 0xFC0A7A53D80ED96ADCD8C9 PUSH19 0xA3E1F96964736F6C6343000801003300000000 "
		},
		"gasEstimates": {
			"creation": {
				"codeDepositCost": "58200",
				"executionCost": "111",
				"totalCost": "58311"
			},
			"external": {
				"bar1(uint256)": "555",
				"bar2(uint256)": "384"
			}
		},
		"methodIdentifiers": {
			"bar1(uint256)": "4a0896c6",
			"bar2(uint256)": "13ec6f48"
		}
	},
	"abi": [
		{
			"inputs": [
				{
					"internalType": "uint256",
					"name": "x",
					"type": "uint256"
				}
			],
			"name": "bar1",
			"outputs": [],
			"stateMutability": "nonpayable",
			"type": "function"
		},
		{
			"inputs": [
				{
					"internalType": "uint256",
					"name": "x",
					"type": "uint256"
				}
			],
			"name": "bar2",
			"outputs": [],
			"stateMutability": "nonpayable",
			"type": "function"
		}
	]
}