{
	"data": {
		"bytecode": {
			"linkReferences": {},
			"object": "608060405234801561001057600080fd5b50610226806100206000396000f3fe608060405234801561001057600080fd5b50600436106100365760003560e01c80630e77e0241461003b578063391e245714610164575b600080fd5b6101626002805460018181018355600083905260048083047f405787fa12a823e0f2b7631cc41b3ba8828b3321ca811111fa75cd3aa3bb5ace908101805460086003968716810261010090810a671111111111111111810267ffffffffffffffff918202199094169390931790935587548087018955858104850180549189168302850a67222222222222222281029085021990921691909117905587548087018955858104850180549189168302850a67333333333333333381029085021990921691909117905587548087018955858104850180549189168302850a674444444444444444810290850219909216919091179055875495860190975592840490910180549390941690940290930a675555555555555555810293021916919091179055565b005b6000805467111111111111111160c21b6001600160c01b0367333333333333333360801b67ffffffffffffffff60801b196f222222222222222200000000000000006fffffffffffffffff00000000000000001967111111111111111167ffffffffffffffff19978816171617161716179091556001805490911667555555555555555517905561016256fea26469706673582212208b5d16e8791ddc9a2806bd5e722c20385b9be7f2a5e7d625a7add36a33e27ff564736f6c63430008020033",
			"opcodes": "PUSH1 0x80 PUSH1 0x40 MSTORE CALLVALUE DUP1 ISZERO PUSH2 0x10 JUMPI PUSH1 0x0 DUP1 REVERT JUMPDEST POP PUSH2 0x226 DUP1 PUSH2 0x20 PUSH1 0x0 CODECOPY PUSH1 0x0 RETURN INVALID PUSH1 0x80 PUSH1 0x40 MSTORE CALLVALUE DUP1 ISZERO PUSH2 0x10 JUMPI PUSH1 0x0 DUP1 REVERT JUMPDEST POP PUSH1 0x4 CALLDATASIZE LT PUSH2 0x36 JUMPI PUSH1 0x0 CALLDATALOAD PUSH1 0xE0 SHR DUP1 PUSH4 0xE77E024 EQ PUSH2 0x3B JUMPI DUP1 PUSH4 0x391E2457 EQ PUSH2 0x164 JUMPI JUMPDEST PUSH1 0x0 DUP1 REVERT JUMPDEST PUSH2 0x162 PUSH1 0x2 DUP1 SLOAD PUSH1 0x1 DUP2 DUP2 ADD DUP4 SSTORE PUSH1 0x0 DUP4 SWAP1 MSTORE PUSH1 0x4 DUP1 DUP4 DIV PUSH32 0x405787FA12A823E0F2B7631CC41B3BA8828B3321CA811111FA75CD3AA3BB5ACE SWAP1 DUP2 ADD DUP1 SLOAD PUSH1 0x8 PUSH1 0x3 SWAP7 DUP8 AND DUP2 MUL PUSH2 0x100 SWAP1 DUP2 EXP PUSH8 0x1111111111111111 DUP2 MUL PUSH8 0xFFFFFFFFFFFFFFFF SWAP2 DUP3 MUL NOT SWAP1 SWAP5 AND SWAP4 SWAP1 SWAP4 OR SWAP1 SWAP4 SSTORE DUP8 SLOAD DUP1 DUP8 ADD DUP10 SSTORE DUP6 DUP2 DIV DUP6 ADD DUP1 SLOAD SWAP2 DUP10 AND DUP4 MUL DUP6 EXP PUSH8 0x2222222222222222 DUP2 MUL SWAP1 DUP6 MUL NOT SWAP1 SWAP3 AND SWAP2 SWAP1 SWAP2 OR SWAP1 SSTORE DUP8 SLOAD DUP1 DUP8 ADD DUP10 SSTORE DUP6 DUP2 DIV DUP6 ADD DUP1 SLOAD SWAP2 DUP10 AND DUP4 MUL DUP6 EXP PUSH8 0x3333333333333333 DUP2 MUL SWAP1 DUP6 MUL NOT SWAP1 SWAP3 AND SWAP2 SWAP1 SWAP2 OR SWAP1 SSTORE DUP8 SLOAD DUP1 DUP8 ADD DUP10 SSTORE DUP6 DUP2 DIV DUP6 ADD DUP1 SLOAD SWAP2 DUP10 AND DUP4 MUL DUP6 EXP PUSH8 0x4444444444444444 DUP2 MUL SWAP1 DUP6 MUL NOT SWAP1 SWAP3 AND SWAP2 SWAP1 SWAP2 OR SWAP1 SSTORE DUP8 SLOAD SWAP6 DUP7 ADD SWAP1 SWAP8 SSTORE SWAP3 DUP5 DIV SWAP1 SWAP2 ADD DUP1 SLOAD SWAP4 SWAP1 SWAP5 AND SWAP1 SWAP5 MUL SWAP1 SWAP4 EXP PUSH8 0x5555555555555555 DUP2 MUL SWAP4 MUL NOT AND SWAP2 SWAP1 SWAP2 OR SWAP1 SSTORE JUMP JUMPDEST STOP JUMPDEST PUSH1 0x0 DUP1 SLOAD PUSH8 0x1111111111111111 PUSH1 0xC2 SHL PUSH1 0x1 PUSH1 0x1 PUSH1 0xC0 SHL SUB PUSH8 0x3333333333333333 PUSH1 0x80 SHL PUSH8 0xFFFFFFFFFFFFFFFF PUSH1 0x80 SHL NOT PUSH16 0x22222222222222220000000000000000 PUSH16 0xFFFFFFFFFFFFFFFF0000000000000000 NOT PUSH8 0x1111111111111111 PUSH8 0xFFFFFFFFFFFFFFFF NOT SWAP8 DUP9 AND OR AND OR AND OR AND OR SWAP1 SWAP2 SSTORE PUSH1 0x1 DUP1 SLOAD SWAP1 SWAP2 AND PUSH8 0x5555555555555555 OR SWAP1 SSTORE PUSH2 0x162 JUMP INVALID LOG2 PUSH5 0x6970667358 0x22 SLT KECCAK256 DUP12 0x5D AND 0xE8 PUSH26 0x1DDC9A2806BD5E722C20385B9BE7F2A5E7D625A7ADD36A33E27F CREATE2 PUSH5 0x736F6C6343 STOP ADDMOD MUL STOP CALLER "
		},
		"gasEstimates": {
			"creation": {
				"codeDepositCost": "110000",
				"executionCost": "159",
				"totalCost": "110159"
			},
			"external": {
				"dynamicArray()": "216731",
				"fixedArray()": "41861"
			}
		},
		"methodIdentifiers": {
			"dynamicArray()": "0e77e024",
			"fixedArray()": "391e2457"
		}
	},
	"abi": [
		{
			"inputs": [],
			"name": "dynamicArray",
			"outputs": [],
			"stateMutability": "nonpayable",
			"type": "function"
		},
		{
			"inputs": [],
			"name": "fixedArray",
			"outputs": [],
			"stateMutability": "nonpayable",
			"type": "function"
		}
	]
}