{
	"data": {
		"bytecode": {
			"linkReferences": {},
			"object": "608060405234801561001057600080fd5b50610b30806100206000396000f3fe608060405234801561001057600080fd5b50600436106100935760003560e01c80636fc64e13116100665780636fc64e13146100d4578063794c0c84146100dc57806398e2563d146100ea578063b5e01cc614610114578063b9dc82921461012257610093565b806308b36870146100985780630a4f34f3146100a2578063102c74d1146100b5578063243a383b146100c6575b600080fd5b6100a061013d565b005b6100a06100b0366004610956565b6101a0565b6100a06100c33660046106af565b50565b6100a06100c33660046107bb565b6100a06101b7565b6100a06100c336600461063f565b6100fe6100f8366004610836565b50606090565b60405161010b91906109dc565b60405180910390f35b6100a06100c336600461074d565b6101306100f83660046108c6565b60405161010b9190610a3c565b60408051606081018252600681526007602082015260088183015281516003808252608082019093529091600091908160200160208202803683375050815161018d926004925060200190610397565b5061019b6004836003610397565b505050565b80516101b3906004906020840190610397565b5050565b604080516080810182526006815260076020820152600891810191909152600960608201526101e96000826004610397565b5060408051600480825260a0820190925290602082016080803683375050815161021a926001925060200190610397565b506040805160a08101825260018152600260208201819052600392820192909252600460608201526005608082018190526102569291906103e2565b506040805160038082526080820190925290816020015b610275610422565b81526020019060019003908161026d575050805161029b91600391602090910190610440565b50604080518082019091526001815260026020820152600380546000906102d257634e487b7160e01b600052603260045260246000fd5b90600052602060002090600202019060026102ee929190610496565b50604080518082019091526003808252600460208301528054600190811061032657634e487b7160e01b600052603260045260246000fd5b9060005260206000209060020201906002610342929190610496565b5060408051808201909152600581526006602082015260038054600290811061037b57634e487b7160e01b600052603260045260246000fd5b90600052602060002090600202019060026101b3929190610496565b8280548282559060005260206000209081019282156103d2579160200282015b828111156103d25782518255916020019190600101906103b7565b506103de9291506104c8565b5090565b8280548282559060005260206000209081019282156103d2579160200282015b828111156103d2578251829060ff16905591602001919060010190610402565b60405180604001604052806002906020820280368337509192915050565b82805482825590600052602060002090600202810192821561048a579160200282015b8281111561048a57825161047a90839060026104dd565b5091602001919060020190610463565b506103de92915061050a565b82600281019282156103d257916020028201828111156103d2578251829060ff16905591602001919060010190610402565b5b808211156103de57600081556001016104c9565b82600281019282156103d257916020028201828111156103d25782518255916020019190600101906103b7565b808211156103de576000808255600182015560020161050a565b600067ffffffffffffffff83111561053e5761053e610ae4565b610551601f8401601f1916602001610a8f565b905082815283838301111561056557600080fd5b828260208301376000602084830101529392505050565b600082601f83011261058c578081fd5b6105966040610a8f565b8083856040860111156105a7578384fd5b835b60028110156105c85781358452602093840193909101906001016105a9565b509095945050505050565b600082601f8301126105e3578081fd5b813560206105f86105f383610ac0565b610a8f565b8281528181019085830183850287018401881015610614578586fd5b855b8581101561063257813584529284019290840190600101610616565b5090979650505050505050565b600060808284031215610650578081fd5b82601f83011261065e578081fd5b604061066981610a8f565b80848660808701111561067a578485fd5b845b60028110156106a35761068f888361057c565b84526020909301929084019060010161067c565b50909695505050505050565b600060208083850312156106c1578182fd5b823567ffffffffffffffff8111156106d7578283fd5b8301601f810185136106e7578283fd5b80356106f56105f382610ac0565b818152838101908385016040808502860187018a1015610713578788fd5b8795505b8486101561073f576107298a8361057c565b8452600195909501949286019290810190610717565b509098975050505050505050565b6000602080838503121561075f578182fd5b823567ffffffffffffffff811115610775578283fd5b8301601f81018513610785578283fd5b61078f6040610a8f565b8082855b6002811015610632576107a989833587016105d3565b84529285019290850190600101610793565b600060208083850312156107cd578182fd5b823567ffffffffffffffff8111156107e3578283fd5b8301601f810185136107f3578283fd5b80356108016105f382610ac0565b81815283810190838501865b8481101561073f576108248a8884358901016105d3565b8452928601929086019060010161080d565b60006020808385031215610848578182fd5b823567ffffffffffffffff81111561085e578283fd5b8301601f8101851361086e578283fd5b803561087c6105f382610ac0565b81815283810190838501865b8481101561073f57813586018a603f8201126108a2578889fd5b6108b38b8983013560408401610524565b8552509286019290860190600101610888565b600060208083850312156108d8578182fd5b823567ffffffffffffffff8111156108ee578283fd5b8301601f810185136108fe578283fd5b803561090c6105f382610ac0565b81815283810190838501865b8481101561073f57813586018a603f820112610932578889fd5b6109438b8983013560408401610524565b8552509286019290860190600101610918565b600060208284031215610967578081fd5b813567ffffffffffffffff81111561097d578182fd5b610989848285016105d3565b949350505050565b60008151808452815b818110156109b65760208185018101518683018201520161099a565b818111156109c75782602083870101525b50601f01601f19169290920160200192915050565b6000602080830181845280855180835260408601915060408482028701019250838701855b82811015610a2f57603f19888603018452610a1d858351610991565b94509285019290850190600101610a01565b5092979650505050505050565b6000602080830181845280855180835260408601915060408482028701019250838701855b82811015610a2f57603f19888603018452610a7d858351610991565b94509285019290850190600101610a61565b604051601f8201601f1916810167ffffffffffffffff81118282101715610ab857610ab8610ae4565b604052919050565b600067ffffffffffffffff821115610ada57610ada610ae4565b5060209081020190565b634e487b7160e01b600052604160045260246000fdfea2646970667358221220437295962d10cbd2ba807990c0002e20bdd1f6502a083abf8d6d29c6221b326364736f6c63430008020033",
			"opcodes": "PUSH1 0x80 PUSH1 0x40 MSTORE CALLVALUE DUP1 ISZERO PUSH2 0x10 JUMPI PUSH1 0x0 DUP1 REVERT JUMPDEST POP PUSH2 0xB30 DUP1 PUSH2 0x20 PUSH1 0x0 CODECOPY PUSH1 0x0 RETURN INVALID PUSH1 0x80 PUSH1 0x40 MSTORE CALLVALUE DUP1 ISZERO PUSH2 0x10 JUMPI PUSH1 0x0 DUP1 REVERT JUMPDEST POP PUSH1 0x4 CALLDATASIZE LT PUSH2 0x93 JUMPI PUSH1 0x0 CALLDATALOAD PUSH1 0xE0 SHR DUP1 PUSH4 0x6FC64E13 GT PUSH2 0x66 JUMPI DUP1 PUSH4 0x6FC64E13 EQ PUSH2 0xD4 JUMPI DUP1 PUSH4 0x794C0C84 EQ PUSH2 0xDC JUMPI DUP1 PUSH4 0x98E2563D EQ PUSH2 0xEA JUMPI DUP1 PUSH4 0xB5E01CC6 EQ PUSH2 0x114 JUMPI DUP1 PUSH4 0xB9DC8292 EQ PUSH2 0x122 JUMPI PUSH2 0x93 JUMP JUMPDEST DUP1 PUSH4 0x8B36870 EQ PUSH2 0x98 JUMPI DUP1 PUSH4 0xA4F34F3 EQ PUSH2 0xA2 JUMPI DUP1 PUSH4 0x102C74D1 EQ PUSH2 0xB5 JUMPI DUP1 PUSH4 0x243A383B EQ PUSH2 0xC6 JUMPI JUMPDEST PUSH1 0x0 DUP1 REVERT JUMPDEST PUSH2 0xA0 PUSH2 0x13D JUMP JUMPDEST STOP JUMPDEST PUSH2 0xA0 PUSH2 0xB0 CALLDATASIZE PUSH1 0x4 PUSH2 0x956 JUMP JUMPDEST PUSH2 0x1A0 JUMP JUMPDEST PUSH2 0xA0 PUSH2 0xC3 CALLDATASIZE PUSH1 0x4 PUSH2 0x6AF JUMP JUMPDEST POP JUMP JUMPDEST PUSH2 0xA0 PUSH2 0xC3 CALLDATASIZE PUSH1 0x4 PUSH2 0x7BB JUMP JUMPDEST PUSH2 0xA0 PUSH2 0x1B7 JUMP JUMPDEST PUSH2 0xA0 PUSH2 0xC3 CALLDATASIZE PUSH1 0x4 PUSH2 0x63F JUMP JUMPDEST PUSH2 0xFE PUSH2 0xF8 CALLDATASIZE PUSH1 0x4 PUSH2 0x836 JUMP JUMPDEST POP PUSH1 0x60 SWAP1 JUMP JUMPDEST PUSH1 0x40 MLOAD PUSH2 0x10B SWAP2 SWAP1 PUSH2 0x9DC JUMP JUMPDEST PUSH1 0x40 MLOAD DUP1 SWAP2 SUB SWAP1 RETURN JUMPDEST PUSH2 0xA0 PUSH2 0xC3 CALLDATASIZE PUSH1 0x4 PUSH2 0x74D JUMP JUMPDEST PUSH2 0x130 PUSH2 0xF8 CALLDATASIZE PUSH1 0x4 PUSH2 0x8C6 JUMP JUMPDEST PUSH1 0x40 MLOAD PUSH2 0x10B SWAP2 SWAP1 PUSH2 0xA3C JUMP JUMPDEST PUSH1 0x40 DUP1 MLOAD PUSH1 0x60 DUP2 ADD DUP3 MSTORE PUSH1 0x6 DUP2 MSTORE PUSH1 0x7 PUSH1 0x20 DUP3 ADD MSTORE PUSH1 0x8 DUP2 DUP4 ADD MSTORE DUP2 MLOAD PUSH1 0x3 DUP1 DUP3 MSTORE PUSH1 0x80 DUP3 ADD SWAP1 SWAP4 MSTORE SWAP1 SWAP2 PUSH1 0x0 SWAP2 SWAP1 DUP2 PUSH1 0x20 ADD PUSH1 0x20 DUP3 MUL DUP1 CALLDATASIZE DUP4 CALLDATACOPY POP POP DUP2 MLOAD PUSH2 0x18D SWAP3 PUSH1 0x4 SWAP3 POP PUSH1 0x20 ADD SWAP1 PUSH2 0x397 JUMP JUMPDEST POP PUSH2 0x19B PUSH1 0x4 DUP4 PUSH1 0x3 PUSH2 0x397 JUMP JUMPDEST POP POP POP JUMP JUMPDEST DUP1 MLOAD PUSH2 0x1B3 SWAP1 PUSH1 0x4 SWAP1 PUSH1 0x20 DUP5 ADD SWAP1 PUSH2 0x397 JUMP JUMPDEST POP POP JUMP JUMPDEST PUSH1 0x40 DUP1 MLOAD PUSH1 0x80 DUP2 ADD DUP3 MSTORE PUSH1 0x6 DUP2 MSTORE PUSH1 0x7 PUSH1 0x20 DUP3 ADD MSTORE PUSH1 0x8 SWAP2 DUP2 ADD SWAP2 SWAP1 SWAP2 MSTORE PUSH1 0x9 PUSH1 0x60 DUP3 ADD MSTORE PUSH2 0x1E9 PUSH1 0x0 DUP3 PUSH1 0x4 PUSH2 0x397 JUMP JUMPDEST POP PUSH1 0x40 DUP1 MLOAD PUSH1 0x4 DUP1 DUP3 MSTORE PUSH1 0xA0 DUP3 ADD SWAP1 SWAP3 MSTORE SWAP1 PUSH1 0x20 DUP3 ADD PUSH1 0x80 DUP1 CALLDATASIZE DUP4 CALLDATACOPY POP POP DUP2 MLOAD PUSH2 0x21A SWAP3 PUSH1 0x1 SWAP3 POP PUSH1 0x20 ADD SWAP1 PUSH2 0x397 JUMP JUMPDEST POP PUSH1 0x40 DUP1 MLOAD PUSH1 0xA0 DUP2 ADD DUP3 MSTORE PUSH1 0x1 DUP2 MSTORE PUSH1 0x2 PUSH1 0x20 DUP3 ADD DUP2 SWAP1 MSTORE PUSH1 0x3 SWAP3 DUP3 ADD SWAP3 SWAP1 SWAP3 MSTORE PUSH1 0x4 PUSH1 0x60 DUP3 ADD MSTORE PUSH1 0x5 PUSH1 0x80 DUP3 ADD DUP2 SWAP1 MSTORE PUSH2 0x256 SWAP3 SWAP2 SWAP1 PUSH2 0x3E2 JUMP JUMPDEST POP PUSH1 0x40 DUP1 MLOAD PUSH1 0x3 DUP1 DUP3 MSTORE PUSH1 0x80 DUP3 ADD SWAP1 SWAP3 MSTORE SWAP1 DUP2 PUSH1 0x20 ADD JUMPDEST PUSH2 0x275 PUSH2 0x422 JUMP JUMPDEST DUP2 MSTORE PUSH1 0x20 ADD SWAP1 PUSH1 0x1 SWAP1 SUB SWAP1 DUP2 PUSH2 0x26D JUMPI POP POP DUP1 MLOAD PUSH2 0x29B SWAP2 PUSH1 0x3 SWAP2 PUSH1 0x20 SWAP1 SWAP2 ADD SWAP1 PUSH2 0x440 JUMP JUMPDEST POP PUSH1 0x40 DUP1 MLOAD DUP1 DUP3 ADD SWAP1 SWAP2 MSTORE PUSH1 0x1 DUP2 MSTORE PUSH1 0x2 PUSH1 0x20 DUP3 ADD MSTORE PUSH1 0x3 DUP1 SLOAD PUSH1 0x0 SWAP1 PUSH2 0x2D2 JUMPI PUSH4 0x4E487B71 PUSH1 0xE0 SHL PUSH1 0x0 MSTORE PUSH1 0x32 PUSH1 0x4 MSTORE PUSH1 0x24 PUSH1 0x0 REVERT JUMPDEST SWAP1 PUSH1 0x0 MSTORE PUSH1 0x20 PUSH1 0x0 KECCAK256 SWAP1 PUSH1 0x2 MUL ADD SWAP1 PUSH1 0x2 PUSH2 0x2EE SWAP3 SWAP2 SWAP1 PUSH2 0x496 JUMP JUMPDEST POP PUSH1 0x40 DUP1 MLOAD DUP1 DUP3 ADD SWAP1 SWAP2 MSTORE PUSH1 0x3 DUP1 DUP3 MSTORE PUSH1 0x4 PUSH1 0x20 DUP4 ADD MSTORE DUP1 SLOAD PUSH1 0x1 SWAP1 DUP2 LT PUSH2 0x326 JUMPI PUSH4 0x4E487B71 PUSH1 0xE0 SHL PUSH1 0x0 MSTORE PUSH1 0x32 PUSH1 0x4 MSTORE PUSH1 0x24 PUSH1 0x0 REVERT JUMPDEST SWAP1 PUSH1 0x0 MSTORE PUSH1 0x20 PUSH1 0x0 KECCAK256 SWAP1 PUSH1 0x2 MUL ADD SWAP1 PUSH1 0x2 PUSH2 0x342 SWAP3 SWAP2 SWAP1 PUSH2 0x496 JUMP JUMPDEST POP PUSH1 0x40 DUP1 MLOAD DUP1 DUP3 ADD SWAP1 SWAP2 MSTORE PUSH1 0x5 DUP2 MSTORE PUSH1 0x6 PUSH1 0x20 DUP3 ADD MSTORE PUSH1 0x3 DUP1 SLOAD PUSH1 0x2 SWAP1 DUP2 LT PUSH2 0x37B JUMPI PUSH4 0x4E487B71 PUSH1 0xE0 SHL PUSH1 0x0 MSTORE PUSH1 0x32 PUSH1 0x4 MSTORE PUSH1 0x24 PUSH1 0x0 REVERT JUMPDEST SWAP1 PUSH1 0x0 MSTORE PUSH1 0x20 PUSH1 0x0 KECCAK256 SWAP1 PUSH1 0x2 MUL ADD SWAP1 PUSH1 0x2 PUSH2 0x1B3 SWAP3 SWAP2 SWAP1 PUSH2 0x496 JUMP JUMPDEST DUP3 DUP1 SLOAD DUP3 DUP3 SSTORE SWAP1 PUSH1 0x0 MSTORE PUSH1 0x20 PUSH1 0x0 KECCAK256 SWAP1 DUP2 ADD SWAP3 DUP3 ISZERO PUSH2 0x3D2 JUMPI SWAP2 PUSH1 0x20 MUL DUP3 ADD JUMPDEST DUP3 DUP2 GT ISZERO PUSH2 0x3D2 JUMPI DUP3 MLOAD DUP3 SSTORE SWAP2 PUSH1 0x20 ADD SWAP2 SWAP1 PUSH1 0x1 ADD SWAP1 PUSH2 0x3B7 JUMP JUMPDEST POP PUSH2 0x3DE SWAP3 SWAP2 POP PUSH2 0x4C8 JUMP JUMPDEST POP SWAP1 JUMP JUMPDEST DUP3 DUP1 SLOAD DUP3 DUP3 SSTORE SWAP1 PUSH1 0x0 MSTORE PUSH1 0x20 PUSH1 0x0 KECCAK256 SWAP1 DUP2 ADD SWAP3 DUP3 ISZERO PUSH2 0x3D2 JUMPI SWAP2 PUSH1 0x20 MUL DUP3 ADD JUMPDEST DUP3 DUP2 GT ISZERO PUSH2 0x3D2 JUMPI DUP3 MLOAD DUP3 SWAP1 PUSH1 0xFF AND SWAP1 SSTORE SWAP2 PUSH1 0x20 ADD SWAP2 SWAP1 PUSH1 0x1 ADD SWAP1 PUSH2 0x402 JUMP JUMPDEST PUSH1 0x40 MLOAD DUP1 PUSH1 0x40 ADD PUSH1 0x40 MSTORE DUP1 PUSH1 0x2 SWAP1 PUSH1 0x20 DUP3 MUL DUP1 CALLDATASIZE DUP4 CALLDATACOPY POP SWAP2 SWAP3 SWAP2 POP POP JUMP JUMPDEST DUP3 DUP1 SLOAD DUP3 DUP3 SSTORE SWAP1 PUSH1 0x0 MSTORE PUSH1 0x20 PUSH1 0x0 KECCAK256 SWAP1 PUSH1 0x2 MUL DUP2 ADD SWAP3 DUP3 ISZERO PUSH2 0x48A JUMPI SWAP2 PUSH1 0x20 MUL DUP3 ADD JUMPDEST DUP3 DUP2 GT ISZERO PUSH2 0x48A JUMPI DUP3 MLOAD PUSH2 0x47A SWAP1 DUP4 SWAP1 PUSH1 0x2 PUSH2 0x4DD JUMP JUMPDEST POP SWAP2 PUSH1 0x20 ADD SWAP2 SWAP1 PUSH1 0x2 ADD SWAP1 PUSH2 0x463 JUMP JUMPDEST POP PUSH2 0x3DE SWAP3 SWAP2 POP PUSH2 0x50A JUMP JUMPDEST DUP3 PUSH1 0x2 DUP2 ADD SWAP3 DUP3 ISZERO PUSH2 0x3D2 JUMPI SWAP2 PUSH1 0x20 MUL DUP3 ADD DUP3 DUP2 GT ISZERO PUSH2 0x3D2 JUMPI DUP3 MLOAD DUP3 SWAP1 PUSH1 0xFF AND SWAP1 SSTORE SWAP2 PUSH1 0x20 ADD SWAP2 SWAP1 PUSH1 0x1 ADD SWAP1 PUSH2 0x402 JUMP JUMPDEST JUMPDEST DUP1 DUP3 GT ISZERO PUSH2 0x3DE JUMPI PUSH1 0x0 DUP2 SSTORE PUSH1 0x1 ADD PUSH2 0x4C9 JUMP JUMPDEST DUP3 PUSH1 0x2 DUP2 ADD SWAP3 DUP3 ISZERO PUSH2 0x3D2 JUMPI SWAP2 PUSH1 0x20 MUL DUP3 ADD DUP3 DUP2 GT ISZERO PUSH2 0x3D2 JUMPI DUP3 MLOAD DUP3 SSTORE SWAP2 PUSH1 0x20 ADD SWAP2 SWAP1 PUSH1 0x1 ADD SWAP1 PUSH2 0x3B7 JUMP JUMPDEST DUP1 DUP3 GT ISZERO PUSH2 0x3DE JUMPI PUSH1 0x0 DUP1 DUP3 SSTORE PUSH1 0x1 DUP3 ADD SSTORE PUSH1 0x2 ADD PUSH2 0x50A JUMP JUMPDEST PUSH1 0x0 PUSH8 0xFFFFFFFFFFFFFFFF DUP4 GT ISZERO PUSH2 0x53E JUMPI PUSH2 0x53E PUSH2 0xAE4 JUMP JUMPDEST PUSH2 0x551 PUSH1 0x1F DUP5 ADD PUSH1 0x1F NOT AND PUSH1 0x20 ADD PUSH2 0xA8F JUMP JUMPDEST SWAP1 POP DUP3 DUP2 MSTORE DUP4 DUP4 DUP4 ADD GT ISZERO PUSH2 0x565 JUMPI PUSH1 0x0 DUP1 REVERT JUMPDEST DUP3 DUP3 PUSH1 0x20 DUP4 ADD CALLDATACOPY PUSH1 0x0 PUSH1 0x20 DUP5 DUP4 ADD ADD MSTORE SWAP4 SWAP3 POP POP POP JUMP JUMPDEST PUSH1 0x0 DUP3 PUSH1 0x1F DUP4 ADD SLT PUSH2 0x58C JUMPI DUP1 DUP2 REVERT JUMPDEST PUSH2 0x596 PUSH1 0x40 PUSH2 0xA8F JUMP JUMPDEST DUP1 DUP4 DUP6 PUSH1 0x40 DUP7 ADD GT ISZERO PUSH2 0x5A7 JUMPI DUP4 DUP5 REVERT JUMPDEST DUP4 JUMPDEST PUSH1 0x2 DUP2 LT ISZERO PUSH2 0x5C8 JUMPI DUP2 CALLDATALOAD DUP5 MSTORE PUSH1 0x20 SWAP4 DUP5 ADD SWAP4 SWAP1 SWAP2 ADD SWAP1 PUSH1 0x1 ADD PUSH2 0x5A9 JUMP JUMPDEST POP SWAP1 SWAP6 SWAP5 POP POP POP POP POP JUMP JUMPDEST PUSH1 0x0 DUP3 PUSH1 0x1F DUP4 ADD SLT PUSH2 0x5E3 JUMPI DUP1 DUP2 REVERT JUMPDEST DUP2 CALLDATALOAD PUSH1 0x20 PUSH2 0x5F8 PUSH2 0x5F3 DUP4 PUSH2 0xAC0 JUMP JUMPDEST PUSH2 0xA8F JUMP JUMPDEST DUP3 DUP2 MSTORE DUP2 DUP2 ADD SWAP1 DUP6 DUP4 ADD DUP4 DUP6 MUL DUP8 ADD DUP5 ADD DUP9 LT ISZERO PUSH2 0x614 JUMPI DUP6 DUP7 REVERT JUMPDEST DUP6 JUMPDEST DUP6 DUP2 LT ISZERO PUSH2 0x632 JUMPI DUP2 CALLDATALOAD DUP5 MSTORE SWAP3 DUP5 ADD SWAP3 SWAP1 DUP5 ADD SWAP1 PUSH1 0x1 ADD PUSH2 0x616 JUMP JUMPDEST POP SWAP1 SWAP8 SWAP7 POP POP POP POP POP POP POP JUMP JUMPDEST PUSH1 0x0 PUSH1 0x80 DUP3 DUP5 SUB SLT ISZERO PUSH2 0x650 JUMPI DUP1 DUP2 REVERT JUMPDEST DUP3 PUSH1 0x1F DUP4 ADD SLT PUSH2 0x65E JUMPI DUP1 DUP2 REVERT JUMPDEST PUSH1 0x40 PUSH2 0x669 DUP2 PUSH2 0xA8F JUMP JUMPDEST DUP1 DUP5 DUP7 PUSH1 0x80 DUP8 ADD GT ISZERO PUSH2 0x67A JUMPI DUP5 DUP6 REVERT JUMPDEST DUP5 JUMPDEST PUSH1 0x2 DUP2 LT ISZERO PUSH2 0x6A3 JUMPI PUSH2 0x68F DUP9 DUP4 PUSH2 0x57C JUMP JUMPDEST DUP5 MSTORE PUSH1 0x20 SWAP1 SWAP4 ADD SWAP3 SWAP1 DUP5 ADD SWAP1 PUSH1 0x1 ADD PUSH2 0x67C JUMP JUMPDEST POP SWAP1 SWAP7 SWAP6 POP POP POP POP POP POP JUMP JUMPDEST PUSH1 0x0 PUSH1 0x20 DUP1 DUP4 DUP6 SUB SLT ISZERO PUSH2 0x6C1 JUMPI DUP2 DUP3 REVERT JUMPDEST DUP3 CALLDATALOAD PUSH8 0xFFFFFFFFFFFFFFFF DUP2 GT ISZERO PUSH2 0x6D7 JUMPI DUP3 DUP4 REVERT JUMPDEST DUP4 ADD PUSH1 0x1F DUP2 ADD DUP6 SGT PUSH2 0x6E7 JUMPI DUP3 DUP4 REVERT JUMPDEST DUP1 CALLDATALOAD PUSH2 0x6F5 PUSH2 0x5F3 DUP3 PUSH2 0xAC0 JUMP JUMPDEST DUP2 DUP2 MSTORE DUP4 DUP2 ADD SWAP1 DUP4 DUP6 ADD PUSH1 0x40 DUP1 DUP6 MUL DUP7 ADD DUP8 ADD DUP11 LT ISZERO PUSH2 0x713 JUMPI DUP8 DUP9 REVERT JUMPDEST DUP8 SWAP6 POP JUMPDEST DUP5 DUP7 LT ISZERO PUSH2 0x73F JUMPI PUSH2 0x729 DUP11 DUP4 PUSH2 0x57C JUMP JUMPDEST DUP5 MSTORE PUSH1 0x1 SWAP6 SWAP1 SWAP6 ADD SWAP5 SWAP3 DUP7 ADD SWAP3 SWAP1 DUP2 ADD SWAP1 PUSH2 0x717 JUMP JUMPDEST POP SWAP1 SWAP9 SWAP8 POP POP POP POP POP POP POP POP JUMP JUMPDEST PUSH1 0x0 PUSH1 0x20 DUP1 DUP4 DUP6 SUB SLT ISZERO PUSH2 0x75F JUMPI DUP2 DUP3 REVERT JUMPDEST DUP3 CALLDATALOAD PUSH8 0xFFFFFFFFFFFFFFFF DUP2 GT ISZERO PUSH2 0x775 JUMPI DUP3 DUP4 REVERT JUMPDEST DUP4 ADD PUSH1 0x1F DUP2 ADD DUP6 SGT PUSH2 0x785 JUMPI DUP3 DUP4 REVERT JUMPDEST PUSH2 0x78F PUSH1 0x40 PUSH2 0xA8F JUMP JUMPDEST DUP1 DUP3 DUP6 JUMPDEST PUSH1 0x2 DUP2 LT ISZERO PUSH2 0x632 JUMPI PUSH2 0x7A9 DUP10 DUP4 CALLDATALOAD DUP8 ADD PUSH2 0x5D3 JUMP JUMPDEST DUP5 MSTORE SWAP3 DUP6 ADD SWAP3 SWAP1 DUP6 ADD SWAP1 PUSH1 0x1 ADD PUSH2 0x793 JUMP JUMPDEST PUSH1 0x0 PUSH1 0x20 DUP1 DUP4 DUP6 SUB SLT ISZERO PUSH2 0x7CD JUMPI DUP2 DUP3 REVERT JUMPDEST DUP3 CALLDATALOAD PUSH8 0xFFFFFFFFFFFFFFFF DUP2 GT ISZERO PUSH2 0x7E3 JUMPI DUP3 DUP4 REVERT JUMPDEST DUP4 ADD PUSH1 0x1F DUP2 ADD DUP6 SGT PUSH2 0x7F3 JUMPI DUP3 DUP4 REVERT JUMPDEST DUP1 CALLDATALOAD PUSH2 0x801 PUSH2 0x5F3 DUP3 PUSH2 0xAC0 JUMP JUMPDEST DUP2 DUP2 MSTORE DUP4 DUP2 ADD SWAP1 DUP4 DUP6 ADD DUP7 JUMPDEST DUP5 DUP2 LT ISZERO PUSH2 0x73F JUMPI PUSH2 0x824 DUP11 DUP9 DUP5 CALLDATALOAD DUP10 ADD ADD PUSH2 0x5D3 JUMP JUMPDEST DUP5 MSTORE SWAP3 DUP7 ADD SWAP3 SWAP1 DUP7 ADD SWAP1 PUSH1 0x1 ADD PUSH2 0x80D JUMP JUMPDEST PUSH1 0x0 PUSH1 0x20 DUP1 DUP4 DUP6 SUB SLT ISZERO PUSH2 0x848 JUMPI DUP2 DUP3 REVERT JUMPDEST DUP3 CALLDATALOAD PUSH8 0xFFFFFFFFFFFFFFFF DUP2 GT ISZERO PUSH2 0x85E JUMPI DUP3 DUP4 REVERT JUMPDEST DUP4 ADD PUSH1 0x1F DUP2 ADD DUP6 SGT PUSH2 0x86E JUMPI DUP3 DUP4 REVERT JUMPDEST DUP1 CALLDATALOAD PUSH2 0x87C PUSH2 0x5F3 DUP3 PUSH2 0xAC0 JUMP JUMPDEST DUP2 DUP2 MSTORE DUP4 DUP2 ADD SWAP1 DUP4 DUP6 ADD DUP7 JUMPDEST DUP5 DUP2 LT ISZERO PUSH2 0x73F JUMPI DUP2 CALLDATALOAD DUP7 ADD DUP11 PUSH1 0x3F DUP3 ADD SLT PUSH2 0x8A2 JUMPI DUP9 DUP10 REVERT JUMPDEST PUSH2 0x8B3 DUP12 DUP10 DUP4 ADD CALLDATALOAD PUSH1 0x40 DUP5 ADD PUSH2 0x524 JUMP JUMPDEST DUP6 MSTORE POP SWAP3 DUP7 ADD SWAP3 SWAP1 DUP7 ADD SWAP1 PUSH1 0x1 ADD PUSH2 0x888 JUMP JUMPDEST PUSH1 0x0 PUSH1 0x20 DUP1 DUP4 DUP6 SUB SLT ISZERO PUSH2 0x8D8 JUMPI DUP2 DUP3 REVERT JUMPDEST DUP3 CALLDATALOAD PUSH8 0xFFFFFFFFFFFFFFFF DUP2 GT ISZERO PUSH2 0x8EE JUMPI DUP3 DUP4 REVERT JUMPDEST DUP4 ADD PUSH1 0x1F DUP2 ADD DUP6 SGT PUSH2 0x8FE JUMPI DUP3 DUP4 REVERT JUMPDEST DUP1 CALLDATALOAD PUSH2 0x90C PUSH2 0x5F3 DUP3 PUSH2 0xAC0 JUMP JUMPDEST DUP2 DUP2 MSTORE DUP4 DUP2 ADD SWAP1 DUP4 DUP6 ADD DUP7 JUMPDEST DUP5 DUP2 LT ISZERO PUSH2 0x73F JUMPI DUP2 CALLDATALOAD DUP7 ADD DUP11 PUSH1 0x3F DUP3 ADD SLT PUSH2 0x932 JUMPI DUP9 DUP10 REVERT JUMPDEST PUSH2 0x943 DUP12 DUP10 DUP4 ADD CALLDATALOAD PUSH1 0x40 DUP5 ADD PUSH2 0x524 JUMP JUMPDEST DUP6 MSTORE POP SWAP3 DUP7 ADD SWAP3 SWAP1 DUP7 ADD SWAP1 PUSH1 0x1 ADD PUSH2 0x918 JUMP JUMPDEST PUSH1 0x0 PUSH1 0x20 DUP3 DUP5 SUB SLT ISZERO PUSH2 0x967 JUMPI DUP1 DUP2 REVERT JUMPDEST DUP2 CALLDATALOAD PUSH8 0xFFFFFFFFFFFFFFFF DUP2 GT ISZERO PUSH2 0x97D JUMPI DUP2 DUP3 REVERT JUMPDEST PUSH2 0x989 DUP5 DUP3 DUP6 ADD PUSH2 0x5D3 JUMP JUMPDEST SWAP5 SWAP4 POP POP POP POP JUMP JUMPDEST PUSH1 0x0 DUP2 MLOAD DUP1 DUP5 MSTORE DUP2 JUMPDEST DUP2 DUP2 LT ISZERO PUSH2 0x9B6 JUMPI PUSH1 0x20 DUP2 DUP6 ADD DUP2 ADD MLOAD DUP7 DUP4 ADD DUP3 ADD MSTORE ADD PUSH2 0x99A JUMP JUMPDEST DUP2 DUP2 GT ISZERO PUSH2 0x9C7 JUMPI DUP3 PUSH1 0x20 DUP4 DUP8 ADD ADD MSTORE JUMPDEST POP PUSH1 0x1F ADD PUSH1 0x1F NOT AND SWAP3 SWAP1 SWAP3 ADD PUSH1 0x20 ADD SWAP3 SWAP2 POP POP JUMP JUMPDEST PUSH1 0x0 PUSH1 0x20 DUP1 DUP4 ADD DUP2 DUP5 MSTORE DUP1 DUP6 MLOAD DUP1 DUP4 MSTORE PUSH1 0x40 DUP7 ADD SWAP2 POP PUSH1 0x40 DUP5 DUP3 MUL DUP8 ADD ADD SWAP3 POP DUP4 DUP8 ADD DUP6 JUMPDEST DUP3 DUP2 LT ISZERO PUSH2 0xA2F JUMPI PUSH1 0x3F NOT DUP9 DUP7 SUB ADD DUP5 MSTORE PUSH2 0xA1D DUP6 DUP4 MLOAD PUSH2 0x991 JUMP JUMPDEST SWAP5 POP SWAP3 DUP6 ADD SWAP3 SWAP1 DUP6 ADD SWAP1 PUSH1 0x1 ADD PUSH2 0xA01 JUMP JUMPDEST POP SWAP3 SWAP8 SWAP7 POP POP POP POP POP POP POP JUMP JUMPDEST PUSH1 0x0 PUSH1 0x20 DUP1 DUP4 ADD DUP2 DUP5 MSTORE DUP1 DUP6 MLOAD DUP1 DUP4 MSTORE PUSH1 0x40 DUP7 ADD SWAP2 POP PUSH1 0x40 DUP5 DUP3 MUL DUP8 ADD ADD SWAP3 POP DUP4 DUP8 ADD DUP6 JUMPDEST DUP3 DUP2 LT ISZERO PUSH2 0xA2F JUMPI PUSH1 0x3F NOT DUP9 DUP7 SUB ADD DUP5 MSTORE PUSH2 0xA7D DUP6 DUP4 MLOAD PUSH2 0x991 JUMP JUMPDEST SWAP5 POP SWAP3 DUP6 ADD SWAP3 SWAP1 DUP6 ADD SWAP1 PUSH1 0x1 ADD PUSH2 0xA61 JUMP JUMPDEST PUSH1 0x40 MLOAD PUSH1 0x1F DUP3 ADD PUSH1 0x1F NOT AND DUP2 ADD PUSH8 0xFFFFFFFFFFFFFFFF DUP2 GT DUP3 DUP3 LT OR ISZERO PUSH2 0xAB8 JUMPI PUSH2 0xAB8 PUSH2 0xAE4 JUMP JUMPDEST PUSH1 0x40 MSTORE SWAP2 SWAP1 POP JUMP JUMPDEST PUSH1 0x0 PUSH8 0xFFFFFFFFFFFFFFFF DUP3 GT ISZERO PUSH2 0xADA JUMPI PUSH2 0xADA PUSH2 0xAE4 JUMP JUMPDEST POP PUSH1 0x20 SWAP1 DUP2 MUL ADD SWAP1 JUMP JUMPDEST PUSH4 0x4E487B71 PUSH1 0xE0 SHL PUSH1 0x0 MSTORE PUSH1 0x41 PUSH1 0x4 MSTORE PUSH1 0x24 PUSH1 0x0 REVERT INVALID LOG2 PUSH5 0x6970667358 0x22 SLT KECCAK256 NUMBER PUSH19 0x95962D10CBD2BA807990C0002E20BDD1F6502A ADDMOD GASPRICE 0xBF DUP14 PUSH14 0x29C6221B326364736F6C63430008 MUL STOP CALLER "
		},
		"gasEstimates": {
			"creation": {
				"codeDepositCost": "572800",
				"executionCost": "606",
				"totalCost": "573406"
			},
			"external": {
				"conv()": "infinite",
				"multidimensional()": "infinite",
				"mutliParams1(uint256[2][2])": "infinite",
				"mutliParams1(uint256[2][])": "infinite",
				"mutliParams1(uint256[][2])": "infinite",
				"mutliParams1(uint256[][])": "infinite",
				"params(uint256[])": "infinite",
				"retBytes(bytes[])": "infinite",
				"retString(string[])": "infinite"
			}
		},
		"methodIdentifiers": {
			"conv()": "08b36870",
			"multidimensional()": "6fc64e13",
			"mutliParams1(uint256[2][2])": "794c0c84",
			"mutliParams1(uint256[2][])": "102c74d1",
			"mutliParams1(uint256[][2])": "b5e01cc6",
			"mutliParams1(uint256[][])": "243a383b",
			"params(uint256[])": "0a4f34f3",
			"retBytes(bytes[])": "98e2563d",
			"retString(string[])": "b9dc8292"
		}
	},
	"abi": [
		{
			"inputs": [],
			"name": "conv",
			"outputs": [],
			"stateMutability": "nonpayable",
			"type": "function"
		},
		{
			"inputs": [],
			"name": "multidimensional",
			"outputs": [],
			"stateMutability": "nonpayable",
			"type": "function"
		},
		{
			"inputs": [
				{
					"internalType": "uint256[2][]",
					"name": "paramsArray",
					"type": "uint256[2][]"
				}
			],
			"name": "mutliParams1",
			"outputs": [],
			"stateMutability": "nonpayable",
			"type": "function"
		},
		{
			"inputs": [
				{
					"internalType": "uint256[][]",
					"name": "paramsArray",
					"type": "uint256[][]"
				}
			],
			"name": "mutliParams1",
			"outputs": [],
			"stateMutability": "nonpayable",
			"type": "function"
		},
		{
			"inputs": [
				{
					"internalType": "uint256[2][2]",
					"name": "paramsArray",
					"type": "uint256[2][2]"
				}
			],
			"name": "mutliParams1",
			"outputs": [],
			"stateMutability": "nonpayable",
			"type": "function"
		},
		{
			"inputs": [
				{
					"internalType": "uint256[][2]",
					"name": "paramsArray",
					"type": "uint256[][2]"
				}
			],
			"name": "mutliParams1",
			"outputs": [],
			"stateMutability": "nonpayable",
			"type": "function"
		},
		{
			"inputs": [
				{
					"internalType": "uint256[]",
					"name": "paramsArray",
					"type": "uint256[]"
				}
			],
			"name": "params",
			"outputs": [],
			"stateMutability": "nonpayable",
			"type": "function"
		},
		{
			"inputs": [
				{
					"internalType": "bytes[]",
					"name": "s",
					"type": "bytes[]"
				}
			],
			"name": "retBytes",
			"outputs": [
				{
					"internalType": "bytes[]",
					"name": "",
					"type": "bytes[]"
				}
			],
			"stateMutability": "nonpayable",
			"type": "function"
		},
		{
			"inputs": [
				{
					"internalType": "string[]",
					"name": "s",
					"type": "string[]"
				}
			],
			"name": "retString",
			"outputs": [
				{
					"internalType": "string[]",
					"name": "",
					"type": "string[]"
				}
			],
			"stateMutability": "nonpayable",
			"type": "function"
		}
	]
}