{
	"data": {
		"bytecode": {
			"linkReferences": {},
			"object": "608060405234801561001057600080fd5b5061085f806100206000396000f3fe608060405234801561001057600080fd5b506004361061007d5760003560e01c8063243a383b1161005b578063243a383b146100b05780636fc64e13146100be578063794c0c84146100c6578063b5e01cc6146100d45761007d565b806308b36870146100825780630a4f34f31461008c578063102c74d11461009f575b600080fd5b61008a6100e2565b005b61008a61009a366004610783565b610145565b61008a6100ad3660046105fc565b50565b61008a6100ad366004610708565b61008a61015c565b61008a6100ad36600461058c565b61008a6100ad36600461069a565b60408051606081018252600681526007602082015260088183015281516003808252608082019093529091600091908160200160208202803683375050815161013292600492506020019061033c565b50610140600483600361033c565b505050565b805161015890600490602084019061033c565b5050565b6040805160808101825260068152600760208201526008918101919091526009606082015261018e600082600461033c565b5060408051600480825260a082019092529060208201608080368337505081516101bf92600192506020019061033c565b506040805160a08101825260018152600260208201819052600392820192909252600460608201526005608082018190526101fb929190610387565b506040805160038082526080820190925290816020015b61021a6103c7565b8152602001906001900390816102125750508051610240916003916020909101906103e5565b506040805180820190915260018152600260208201526003805460009061027757634e487b7160e01b600052603260045260246000fd5b906000526020600020906002020190600261029392919061043b565b5060408051808201909152600380825260046020830152805460019081106102cb57634e487b7160e01b600052603260045260246000fd5b90600052602060002090600202019060026102e792919061043b565b5060408051808201909152600581526006602082015260038054600290811061032057634e487b7160e01b600052603260045260246000fd5b906000526020600020906002020190600261015892919061043b565b828054828255906000526020600020908101928215610377579160200282015b8281111561037757825182559160200191906001019061035c565b5061038392915061046d565b5090565b828054828255906000526020600020908101928215610377579160200282015b82811115610377578251829060ff169055916020019190600101906103a7565b60405180604001604052806002906020820280368337509192915050565b82805482825590600052602060002090600202810192821561042f579160200282015b8281111561042f57825161041f9083906002610482565b5091602001919060020190610408565b506103839291506104af565b82600281019282156103775791602002820182811115610377578251829060ff169055916020019190600101906103a7565b5b80821115610383576000815560010161046e565b8260028101928215610377579160200282018281111561037757825182559160200191906001019061035c565b8082111561038357600080825560018201556002016104af565b600082601f8301126104d9578081fd5b6104e360406107be565b8083856040860111156104f4578384fd5b835b60028110156105155781358452602093840193909101906001016104f6565b509095945050505050565b600082601f830112610530578081fd5b81356020610545610540836107ef565b6107be565b8281528181019085830183850287018401881015610561578586fd5b855b8581101561057f57813584529284019290840190600101610563565b5090979650505050505050565b60006080828403121561059d578081fd5b82601f8301126105ab578081fd5b60406105b6816107be565b8084866080870111156105c7578485fd5b845b60028110156105f0576105dc88836104c9565b8452602090930192908401906001016105c9565b50909695505050505050565b6000602080838503121561060e578182fd5b823567ffffffffffffffff811115610624578283fd5b8301601f81018513610634578283fd5b8035610642610540826107ef565b818152838101908385016040808502860187018a1015610660578788fd5b8795505b8486101561068c576106768a836104c9565b8452600195909501949286019290810190610664565b509098975050505050505050565b600060208083850312156106ac578182fd5b823567ffffffffffffffff8111156106c2578283fd5b8301601f810185136106d2578283fd5b6106dc60406107be565b8082855b600281101561057f576106f68983358701610520565b845292850192908501906001016106e0565b6000602080838503121561071a578182fd5b823567ffffffffffffffff811115610730578283fd5b8301601f81018513610740578283fd5b803561074e610540826107ef565b81815283810190838501865b8481101561068c576107718a888435890101610520565b8452928601929086019060010161075a565b600060208284031215610794578081fd5b813567ffffffffffffffff8111156107aa578182fd5b6107b684828501610520565b949350505050565b604051601f8201601f1916810167ffffffffffffffff811182821017156107e7576107e7610813565b604052919050565b600067ffffffffffffffff82111561080957610809610813565b5060209081020190565b634e487b7160e01b600052604160045260246000fdfea2646970667358221220e449bb48f6e2c1faa4a84590c37de4f6f8e2996f66dac3e8fbc67370ecf6dba064736f6c63430008020033",
			"opcodes": "PUSH1 0x80 PUSH1 0x40 MSTORE CALLVALUE DUP1 ISZERO PUSH2 0x10 JUMPI PUSH1 0x0 DUP1 REVERT JUMPDEST POP PUSH2 0x85F DUP1 PUSH2 0x20 PUSH1 0x0 CODECOPY PUSH1 0x0 RETURN INVALID PUSH1 0x80 PUSH1 0x40 MSTORE CALLVALUE DUP1 ISZERO PUSH2 0x10 JUMPI PUSH1 0x0 DUP1 REVERT JUMPDEST POP PUSH1 0x4 CALLDATASIZE LT PUSH2 0x7D JUMPI PUSH1 0x0 CALLDATALOAD PUSH1 0xE0 SHR DUP1 PUSH4 0x243A383B GT PUSH2 0x5B JUMPI DUP1 PUSH4 0x243A383B EQ PUSH2 0xB0 JUMPI DUP1 PUSH4 0x6FC64E13 EQ PUSH2 0xBE JUMPI DUP1 PUSH4 0x794C0C84 EQ PUSH2 0xC6 JUMPI DUP1 PUSH4 0xB5E01CC6 EQ PUSH2 0xD4 JUMPI PUSH2 0x7D JUMP JUMPDEST DUP1 PUSH4 0x8B36870 EQ PUSH2 0x82 JUMPI DUP1 PUSH4 0xA4F34F3 EQ PUSH2 0x8C JUMPI DUP1 PUSH4 0x102C74D1 EQ PUSH2 0x9F JUMPI JUMPDEST PUSH1 0x0 DUP1 REVERT JUMPDEST PUSH2 0x8A PUSH2 0xE2 JUMP JUMPDEST STOP JUMPDEST PUSH2 0x8A PUSH2 0x9A CALLDATASIZE PUSH1 0x4 PUSH2 0x783 JUMP JUMPDEST PUSH2 0x145 JUMP JUMPDEST PUSH2 0x8A PUSH2 0xAD CALLDATASIZE PUSH1 0x4 PUSH2 0x5FC JUMP JUMPDEST POP JUMP JUMPDEST PUSH2 0x8A PUSH2 0xAD CALLDATASIZE PUSH1 0x4 PUSH2 0x708 JUMP JUMPDEST PUSH2 0x8A PUSH2 0x15C JUMP JUMPDEST PUSH2 0x8A PUSH2 0xAD CALLDATASIZE PUSH1 0x4 PUSH2 0x58C JUMP JUMPDEST PUSH2 0x8A PUSH2 0xAD CALLDATASIZE PUSH1 0x4 PUSH2 0x69A JUMP JUMPDEST PUSH1 0x40 DUP1 MLOAD PUSH1 0x60 DUP2 ADD DUP3 MSTORE PUSH1 0x6 DUP2 MSTORE PUSH1 0x7 PUSH1 0x20 DUP3 ADD MSTORE PUSH1 0x8 DUP2 DUP4 ADD MSTORE DUP2 MLOAD PUSH1 0x3 DUP1 DUP3 MSTORE PUSH1 0x80 DUP3 ADD SWAP1 SWAP4 MSTORE SWAP1 SWAP2 PUSH1 0x0 SWAP2 SWAP1 DUP2 PUSH1 0x20 ADD PUSH1 0x20 DUP3 MUL DUP1 CALLDATASIZE DUP4 CALLDATACOPY POP POP DUP2 MLOAD PUSH2 0x132 SWAP3 PUSH1 0x4 SWAP3 POP PUSH1 0x20 ADD SWAP1 PUSH2 0x33C JUMP JUMPDEST POP PUSH2 0x140 PUSH1 0x4 DUP4 PUSH1 0x3 PUSH2 0x33C JUMP JUMPDEST POP POP POP JUMP JUMPDEST DUP1 MLOAD PUSH2 0x158 SWAP1 PUSH1 0x4 SWAP1 PUSH1 0x20 DUP5 ADD SWAP1 PUSH2 0x33C JUMP JUMPDEST POP POP JUMP JUMPDEST PUSH1 0x40 DUP1 MLOAD PUSH1 0x80 DUP2 ADD DUP3 MSTORE PUSH1 0x6 DUP2 MSTORE PUSH1 0x7 PUSH1 0x20 DUP3 ADD MSTORE PUSH1 0x8 SWAP2 DUP2 ADD SWAP2 SWAP1 SWAP2 MSTORE PUSH1 0x9 PUSH1 0x60 DUP3 ADD MSTORE PUSH2 0x18E PUSH1 0x0 DUP3 PUSH1 0x4 PUSH2 0x33C JUMP JUMPDEST POP PUSH1 0x40 DUP1 MLOAD PUSH1 0x4 DUP1 DUP3 MSTORE PUSH1 0xA0 DUP3 ADD SWAP1 SWAP3 MSTORE SWAP1 PUSH1 0x20 DUP3 ADD PUSH1 0x80 DUP1 CALLDATASIZE DUP4 CALLDATACOPY POP POP DUP2 MLOAD PUSH2 0x1BF SWAP3 PUSH1 0x1 SWAP3 POP PUSH1 0x20 ADD SWAP1 PUSH2 0x33C JUMP JUMPDEST POP PUSH1 0x40 DUP1 MLOAD PUSH1 0xA0 DUP2 ADD DUP3 MSTORE PUSH1 0x1 DUP2 MSTORE PUSH1 0x2 PUSH1 0x20 DUP3 ADD DUP2 SWAP1 MSTORE PUSH1 0x3 SWAP3 DUP3 ADD SWAP3 SWAP1 SWAP3 MSTORE PUSH1 0x4 PUSH1 0x60 DUP3 ADD MSTORE PUSH1 0x5 PUSH1 0x80 DUP3 ADD DUP2 SWAP1 MSTORE PUSH2 0x1FB SWAP3 SWAP2 SWAP1 PUSH2 0x387 JUMP JUMPDEST POP PUSH1 0x40 DUP1 MLOAD PUSH1 0x3 DUP1 DUP3 MSTORE PUSH1 0x80 DUP3 ADD SWAP1 SWAP3 MSTORE SWAP1 DUP2 PUSH1 0x20 ADD JUMPDEST PUSH2 0x21A PUSH2 0x3C7 JUMP JUMPDEST DUP2 MSTORE PUSH1 0x20 ADD SWAP1 PUSH1 0x1 SWAP1 SUB SWAP1 DUP2 PUSH2 0x212 JUMPI POP POP DUP1 MLOAD PUSH2 0x240 SWAP2 PUSH1 0x3 SWAP2 PUSH1 0x20 SWAP1 SWAP2 ADD SWAP1 PUSH2 0x3E5 JUMP JUMPDEST POP PUSH1 0x40 DUP1 MLOAD DUP1 DUP3 ADD SWAP1 SWAP2 MSTORE PUSH1 0x1 DUP2 MSTORE PUSH1 0x2 PUSH1 0x20 DUP3 ADD MSTORE PUSH1 0x3 DUP1 SLOAD PUSH1 0x0 SWAP1 PUSH2 0x277 JUMPI PUSH4 0x4E487B71 PUSH1 0xE0 SHL PUSH1 0x0 MSTORE PUSH1 0x32 PUSH1 0x4 MSTORE PUSH1 0x24 PUSH1 0x0 REVERT JUMPDEST SWAP1 PUSH1 0x0 MSTORE PUSH1 0x20 PUSH1 0x0 KECCAK256 SWAP1 PUSH1 0x2 MUL ADD SWAP1 PUSH1 0x2 PUSH2 0x293 SWAP3 SWAP2 SWAP1 PUSH2 0x43B JUMP JUMPDEST POP PUSH1 0x40 DUP1 MLOAD DUP1 DUP3 ADD SWAP1 SWAP2 MSTORE PUSH1 0x3 DUP1 DUP3 MSTORE PUSH1 0x4 PUSH1 0x20 DUP4 ADD MSTORE DUP1 SLOAD PUSH1 0x1 SWAP1 DUP2 LT PUSH2 0x2CB JUMPI PUSH4 0x4E487B71 PUSH1 0xE0 SHL PUSH1 0x0 MSTORE PUSH1 0x32 PUSH1 0x4 MSTORE PUSH1 0x24 PUSH1 0x0 REVERT JUMPDEST SWAP1 PUSH1 0x0 MSTORE PUSH1 0x20 PUSH1 0x0 KECCAK256 SWAP1 PUSH1 0x2 MUL ADD SWAP1 PUSH1 0x2 PUSH2 0x2E7 SWAP3 SWAP2 SWAP1 PUSH2 0x43B JUMP JUMPDEST POP PUSH1 0x40 DUP1 MLOAD DUP1 DUP3 ADD SWAP1 SWAP2 MSTORE PUSH1 0x5 DUP2 MSTORE PUSH1 0x6 PUSH1 0x20 DUP3 ADD MSTORE PUSH1 0x3 DUP1 SLOAD PUSH1 0x2 SWAP1 DUP2 LT PUSH2 0x320 JUMPI PUSH4 0x4E487B71 PUSH1 0xE0 SHL PUSH1 0x0 MSTORE PUSH1 0x32 PUSH1 0x4 MSTORE PUSH1 0x24 PUSH1 0x0 REVERT JUMPDEST SWAP1 PUSH1 0x0 MSTORE PUSH1 0x20 PUSH1 0x0 KECCAK256 SWAP1 PUSH1 0x2 MUL ADD SWAP1 PUSH1 0x2 PUSH2 0x158 SWAP3 SWAP2 SWAP1 PUSH2 0x43B JUMP JUMPDEST DUP3 DUP1 SLOAD DUP3 DUP3 SSTORE SWAP1 PUSH1 0x0 MSTORE PUSH1 0x20 PUSH1 0x0 KECCAK256 SWAP1 DUP2 ADD SWAP3 DUP3 ISZERO PUSH2 0x377 JUMPI SWAP2 PUSH1 0x20 MUL DUP3 ADD JUMPDEST DUP3 DUP2 GT ISZERO PUSH2 0x377 JUMPI DUP3 MLOAD DUP3 SSTORE SWAP2 PUSH1 0x20 ADD SWAP2 SWAP1 PUSH1 0x1 ADD SWAP1 PUSH2 0x35C JUMP JUMPDEST POP PUSH2 0x383 SWAP3 SWAP2 POP PUSH2 0x46D JUMP JUMPDEST POP SWAP1 JUMP JUMPDEST DUP3 DUP1 SLOAD DUP3 DUP3 SSTORE SWAP1 PUSH1 0x0 MSTORE PUSH1 0x20 PUSH1 0x0 KECCAK256 SWAP1 DUP2 ADD SWAP3 DUP3 ISZERO PUSH2 0x377 JUMPI SWAP2 PUSH1 0x20 MUL DUP3 ADD JUMPDEST DUP3 DUP2 GT ISZERO PUSH2 0x377 JUMPI DUP3 MLOAD DUP3 SWAP1 PUSH1 0xFF AND SWAP1 SSTORE SWAP2 PUSH1 0x20 ADD SWAP2 SWAP1 PUSH1 0x1 ADD SWAP1 PUSH2 0x3A7 JUMP JUMPDEST PUSH1 0x40 MLOAD DUP1 PUSH1 0x40 ADD PUSH1 0x40 MSTORE DUP1 PUSH1 0x2 SWAP1 PUSH1 0x20 DUP3 MUL DUP1 CALLDATASIZE DUP4 CALLDATACOPY POP SWAP2 SWAP3 SWAP2 POP POP JUMP JUMPDEST DUP3 DUP1 SLOAD DUP3 DUP3 SSTORE SWAP1 PUSH1 0x0 MSTORE PUSH1 0x20 PUSH1 0x0 KECCAK256 SWAP1 PUSH1 0x2 MUL DUP2 ADD SWAP3 DUP3 ISZERO PUSH2 0x42F JUMPI SWAP2 PUSH1 0x20 MUL DUP3 ADD JUMPDEST DUP3 DUP2 GT ISZERO PUSH2 0x42F JUMPI DUP3 MLOAD PUSH2 0x41F SWAP1 DUP4 SWAP1 PUSH1 0x2 PUSH2 0x482 JUMP JUMPDEST POP SWAP2 PUSH1 0x20 ADD SWAP2 SWAP1 PUSH1 0x2 ADD SWAP1 PUSH2 0x408 JUMP JUMPDEST POP PUSH2 0x383 SWAP3 SWAP2 POP PUSH2 0x4AF JUMP JUMPDEST DUP3 PUSH1 0x2 DUP2 ADD SWAP3 DUP3 ISZERO PUSH2 0x377 JUMPI SWAP2 PUSH1 0x20 MUL DUP3 ADD DUP3 DUP2 GT ISZERO PUSH2 0x377 JUMPI DUP3 MLOAD DUP3 SWAP1 PUSH1 0xFF AND SWAP1 SSTORE SWAP2 PUSH1 0x20 ADD SWAP2 SWAP1 PUSH1 0x1 ADD SWAP1 PUSH2 0x3A7 JUMP JUMPDEST JUMPDEST DUP1 DUP3 GT ISZERO PUSH2 0x383 JUMPI PUSH1 0x0 DUP2 SSTORE PUSH1 0x1 ADD PUSH2 0x46E JUMP JUMPDEST DUP3 PUSH1 0x2 DUP2 ADD SWAP3 DUP3 ISZERO PUSH2 0x377 JUMPI SWAP2 PUSH1 0x20 MUL DUP3 ADD DUP3 DUP2 GT ISZERO PUSH2 0x377 JUMPI DUP3 MLOAD DUP3 SSTORE SWAP2 PUSH1 0x20 ADD SWAP2 SWAP1 PUSH1 0x1 ADD SWAP1 PUSH2 0x35C JUMP JUMPDEST DUP1 DUP3 GT ISZERO PUSH2 0x383 JUMPI PUSH1 0x0 DUP1 DUP3 SSTORE PUSH1 0x1 DUP3 ADD SSTORE PUSH1 0x2 ADD PUSH2 0x4AF JUMP JUMPDEST PUSH1 0x0 DUP3 PUSH1 0x1F DUP4 ADD SLT PUSH2 0x4D9 JUMPI DUP1 DUP2 REVERT JUMPDEST PUSH2 0x4E3 PUSH1 0x40 PUSH2 0x7BE JUMP JUMPDEST DUP1 DUP4 DUP6 PUSH1 0x40 DUP7 ADD GT ISZERO PUSH2 0x4F4 JUMPI DUP4 DUP5 REVERT JUMPDEST DUP4 JUMPDEST PUSH1 0x2 DUP2 LT ISZERO PUSH2 0x515 JUMPI DUP2 CALLDATALOAD DUP5 MSTORE PUSH1 0x20 SWAP4 DUP5 ADD SWAP4 SWAP1 SWAP2 ADD SWAP1 PUSH1 0x1 ADD PUSH2 0x4F6 JUMP JUMPDEST POP SWAP1 SWAP6 SWAP5 POP POP POP POP POP JUMP JUMPDEST PUSH1 0x0 DUP3 PUSH1 0x1F DUP4 ADD SLT PUSH2 0x530 JUMPI DUP1 DUP2 REVERT JUMPDEST DUP2 CALLDATALOAD PUSH1 0x20 PUSH2 0x545 PUSH2 0x540 DUP4 PUSH2 0x7EF JUMP JUMPDEST PUSH2 0x7BE JUMP JUMPDEST DUP3 DUP2 MSTORE DUP2 DUP2 ADD SWAP1 DUP6 DUP4 ADD DUP4 DUP6 MUL DUP8 ADD DUP5 ADD DUP9 LT ISZERO PUSH2 0x561 JUMPI DUP6 DUP7 REVERT JUMPDEST DUP6 JUMPDEST DUP6 DUP2 LT ISZERO PUSH2 0x57F JUMPI DUP2 CALLDATALOAD DUP5 MSTORE SWAP3 DUP5 ADD SWAP3 SWAP1 DUP5 ADD SWAP1 PUSH1 0x1 ADD PUSH2 0x563 JUMP JUMPDEST POP SWAP1 SWAP8 SWAP7 POP POP POP POP POP POP POP JUMP JUMPDEST PUSH1 0x0 PUSH1 0x80 DUP3 DUP5 SUB SLT ISZERO PUSH2 0x59D JUMPI DUP1 DUP2 REVERT JUMPDEST DUP3 PUSH1 0x1F DUP4 ADD SLT PUSH2 0x5AB JUMPI DUP1 DUP2 REVERT JUMPDEST PUSH1 0x40 PUSH2 0x5B6 DUP2 PUSH2 0x7BE JUMP JUMPDEST DUP1 DUP5 DUP7 PUSH1 0x80 DUP8 ADD GT ISZERO PUSH2 0x5C7 JUMPI DUP5 DUP6 REVERT JUMPDEST DUP5 JUMPDEST PUSH1 0x2 DUP2 LT ISZERO PUSH2 0x5F0 JUMPI PUSH2 0x5DC DUP9 DUP4 PUSH2 0x4C9 JUMP JUMPDEST DUP5 MSTORE PUSH1 0x20 SWAP1 SWAP4 ADD SWAP3 SWAP1 DUP5 ADD SWAP1 PUSH1 0x1 ADD PUSH2 0x5C9 JUMP JUMPDEST POP SWAP1 SWAP7 SWAP6 POP POP POP POP POP POP JUMP JUMPDEST PUSH1 0x0 PUSH1 0x20 DUP1 DUP4 DUP6 SUB SLT ISZERO PUSH2 0x60E JUMPI DUP2 DUP3 REVERT JUMPDEST DUP3 CALLDATALOAD PUSH8 0xFFFFFFFFFFFFFFFF DUP2 GT ISZERO PUSH2 0x624 JUMPI DUP3 DUP4 REVERT JUMPDEST DUP4 ADD PUSH1 0x1F DUP2 ADD DUP6 SGT PUSH2 0x634 JUMPI DUP3 DUP4 REVERT JUMPDEST DUP1 CALLDATALOAD PUSH2 0x642 PUSH2 0x540 DUP3 PUSH2 0x7EF JUMP JUMPDEST DUP2 DUP2 MSTORE DUP4 DUP2 ADD SWAP1 DUP4 DUP6 ADD PUSH1 0x40 DUP1 DUP6 MUL DUP7 ADD DUP8 ADD DUP11 LT ISZERO PUSH2 0x660 JUMPI DUP8 DUP9 REVERT JUMPDEST DUP8 SWAP6 POP JUMPDEST DUP5 DUP7 LT ISZERO PUSH2 0x68C JUMPI PUSH2 0x676 DUP11 DUP4 PUSH2 0x4C9 JUMP JUMPDEST DUP5 MSTORE PUSH1 0x1 SWAP6 SWAP1 SWAP6 ADD SWAP5 SWAP3 DUP7 ADD SWAP3 SWAP1 DUP2 ADD SWAP1 PUSH2 0x664 JUMP JUMPDEST POP SWAP1 SWAP9 SWAP8 POP POP POP POP POP POP POP POP JUMP JUMPDEST PUSH1 0x0 PUSH1 0x20 DUP1 DUP4 DUP6 SUB SLT ISZERO PUSH2 0x6AC JUMPI DUP2 DUP3 REVERT JUMPDEST DUP3 CALLDATALOAD PUSH8 0xFFFFFFFFFFFFFFFF DUP2 GT ISZERO PUSH2 0x6C2 JUMPI DUP3 DUP4 REVERT JUMPDEST DUP4 ADD PUSH1 0x1F DUP2 ADD DUP6 SGT PUSH2 0x6D2 JUMPI DUP3 DUP4 REVERT JUMPDEST PUSH2 0x6DC PUSH1 0x40 PUSH2 0x7BE JUMP JUMPDEST DUP1 DUP3 DUP6 JUMPDEST PUSH1 0x2 DUP2 LT ISZERO PUSH2 0x57F JUMPI PUSH2 0x6F6 DUP10 DUP4 CALLDATALOAD DUP8 ADD PUSH2 0x520 JUMP JUMPDEST DUP5 MSTORE SWAP3 DUP6 ADD SWAP3 SWAP1 DUP6 ADD SWAP1 PUSH1 0x1 ADD PUSH2 0x6E0 JUMP JUMPDEST PUSH1 0x0 PUSH1 0x20 DUP1 DUP4 DUP6 SUB SLT ISZERO PUSH2 0x71A JUMPI DUP2 DUP3 REVERT JUMPDEST DUP3 CALLDATALOAD PUSH8 0xFFFFFFFFFFFFFFFF DUP2 GT ISZERO PUSH2 0x730 JUMPI DUP3 DUP4 REVERT JUMPDEST DUP4 ADD PUSH1 0x1F DUP2 ADD DUP6 SGT PUSH2 0x740 JUMPI DUP3 DUP4 REVERT JUMPDEST DUP1 CALLDATALOAD PUSH2 0x74E PUSH2 0x540 DUP3 PUSH2 0x7EF JUMP JUMPDEST DUP2 DUP2 MSTORE DUP4 DUP2 ADD SWAP1 DUP4 DUP6 ADD DUP7 JUMPDEST DUP5 DUP2 LT ISZERO PUSH2 0x68C JUMPI PUSH2 0x771 DUP11 DUP9 DUP5 CALLDATALOAD DUP10 ADD ADD PUSH2 0x520 JUMP JUMPDEST DUP5 MSTORE SWAP3 DUP7 ADD SWAP3 SWAP1 DUP7 ADD SWAP1 PUSH1 0x1 ADD PUSH2 0x75A JUMP JUMPDEST PUSH1 0x0 PUSH1 0x20 DUP3 DUP5 SUB SLT ISZERO PUSH2 0x794 JUMPI DUP1 DUP2 REVERT JUMPDEST DUP2 CALLDATALOAD PUSH8 0xFFFFFFFFFFFFFFFF DUP2 GT ISZERO PUSH2 0x7AA JUMPI DUP2 DUP3 REVERT JUMPDEST PUSH2 0x7B6 DUP5 DUP3 DUP6 ADD PUSH2 0x520 JUMP JUMPDEST SWAP5 SWAP4 POP POP POP POP JUMP JUMPDEST PUSH1 0x40 MLOAD PUSH1 0x1F DUP3 ADD PUSH1 0x1F NOT AND DUP2 ADD PUSH8 0xFFFFFFFFFFFFFFFF DUP2 GT DUP3 DUP3 LT OR ISZERO PUSH2 0x7E7 JUMPI PUSH2 0x7E7 PUSH2 0x813 JUMP JUMPDEST PUSH1 0x40 MSTORE SWAP2 SWAP1 POP JUMP JUMPDEST PUSH1 0x0 PUSH8 0xFFFFFFFFFFFFFFFF DUP3 GT ISZERO PUSH2 0x809 JUMPI PUSH2 0x809 PUSH2 0x813 JUMP JUMPDEST POP PUSH1 0x20 SWAP1 DUP2 MUL ADD SWAP1 JUMP JUMPDEST PUSH4 0x4E487B71 PUSH1 0xE0 SHL PUSH1 0x0 MSTORE PUSH1 0x41 PUSH1 0x4 MSTORE PUSH1 0x24 PUSH1 0x0 REVERT INVALID LOG2 PUSH5 0x6970667358 0x22 SLT KECCAK256 0xE4 0x49 0xBB 0x48 0xF6 0xE2 0xC1 STATICCALL LOG4 0xA8 GASLIMIT SWAP1 0xC3 PUSH30 0xE4F6F8E2996F66DAC3E8FBC67370ECF6DBA064736F6C6343000802003300 "
		},
		"gasEstimates": {
			"creation": {
				"codeDepositCost": "428600",
				"executionCost": "461",
				"totalCost": "429061"
			},
			"external": {
				"conv()": "infinite",
				"multidimensional()": "infinite",
				"mutliParams1(uint256[2][2])": "infinite",
				"mutliParams1(uint256[2][])": "infinite",
				"mutliParams1(uint256[][2])": "infinite",
				"mutliParams1(uint256[][])": "infinite",
				"params(uint256[])": "infinite"
			}
		},
		"methodIdentifiers": {
			"conv()": "08b36870",
			"multidimensional()": "6fc64e13",
			"mutliParams1(uint256[2][2])": "794c0c84",
			"mutliParams1(uint256[2][])": "102c74d1",
			"mutliParams1(uint256[][2])": "b5e01cc6",
			"mutliParams1(uint256[][])": "243a383b",
			"params(uint256[])": "0a4f34f3"
		}
	},
	"abi": [
		{
			"inputs": [],
			"name": "conv",
			"outputs": [],
			"stateMutability": "nonpayable",
			"type": "function"
		},
		{
			"inputs": [],
			"name": "multidimensional",
			"outputs": [],
			"stateMutability": "nonpayable",
			"type": "function"
		},
		{
			"inputs": [
				{
					"internalType": "uint256[2][]",
					"name": "paramsArray",
					"type": "uint256[2][]"
				}
			],
			"name": "mutliParams1",
			"outputs": [],
			"stateMutability": "nonpayable",
			"type": "function"
		},
		{
			"inputs": [
				{
					"internalType": "uint256[][]",
					"name": "paramsArray",
					"type": "uint256[][]"
				}
			],
			"name": "mutliParams1",
			"outputs": [],
			"stateMutability": "nonpayable",
			"type": "function"
		},
		{
			"inputs": [
				{
					"internalType": "uint256[2][2]",
					"name": "paramsArray",
					"type": "uint256[2][2]"
				}
			],
			"name": "mutliParams1",
			"outputs": [],
			"stateMutability": "nonpayable",
			"type": "function"
		},
		{
			"inputs": [
				{
					"internalType": "uint256[][2]",
					"name": "paramsArray",
					"type": "uint256[][2]"
				}
			],
			"name": "mutliParams1",
			"outputs": [],
			"stateMutability": "nonpayable",
			"type": "function"
		},
		{
			"inputs": [
				{
					"internalType": "uint256[]",
					"name": "paramsArray",
					"type": "uint256[]"
				}
			],
			"name": "params",
			"outputs": [],
			"stateMutability": "nonpayable",
			"type": "function"
		}
	]
}