{
	"data": {
		"bytecode": {
			"linkReferences": {},
			"object": "608060405234801561001057600080fd5b50610181806100206000396000f3fe608060405234801561001057600080fd5b50600436106100365760003560e01c806397f101451461003b578063beecb8cf14610060575b600080fd5b61004e610049366004610106565b610073565b60405190815260200160405180910390f35b61004e61006e366004610106565b6100aa565b600061007f8284610127565b61009957634e487b7160e01b600052600160045260246000fd5b6100a38284610127565b9392505050565b60006100b68284610127565b6100995760405162461bcd60e51b815260206004820152601f60248201527f4920647565206e756d65726920736f6d6d6174692066616e6e6f207a65726f00604482015260640160405180910390fd5b60008060408385031215610118578182fd5b50508035926020909101359150565b6000821982111561014657634e487b7160e01b81526011600452602481fd5b50019056fea2646970667358221220daa23681ebf5a2f608240d01ea07e8a277eabcbefa606faa811116c4658b0e6064736f6c63430008020033",
			"opcodes": "PUSH1 0x80 PUSH1 0x40 MSTORE CALLVALUE DUP1 ISZERO PUSH2 0x10 JUMPI PUSH1 0x0 DUP1 REVERT JUMPDEST POP PUSH2 0x181 DUP1 PUSH2 0x20 PUSH1 0x0 CODECOPY PUSH1 0x0 RETURN INVALID PUSH1 0x80 PUSH1 0x40 MSTORE CALLVALUE DUP1 ISZERO PUSH2 0x10 JUMPI PUSH1 0x0 DUP1 REVERT JUMPDEST POP PUSH1 0x4 CALLDATASIZE LT PUSH2 0x36 JUMPI PUSH1 0x0 CALLDATALOAD PUSH1 0xE0 SHR DUP1 PUSH4 0x97F10145 EQ PUSH2 0x3B JUMPI DUP1 PUSH4 0xBEECB8CF EQ PUSH2 0x60 JUMPI JUMPDEST PUSH1 0x0 DUP1 REVERT JUMPDEST PUSH2 0x4E PUSH2 0x49 CALLDATASIZE PUSH1 0x4 PUSH2 0x106 JUMP JUMPDEST PUSH2 0x73 JUMP JUMPDEST PUSH1 0x40 MLOAD SWAP1 DUP2 MSTORE PUSH1 0x20 ADD PUSH1 0x40 MLOAD DUP1 SWAP2 SUB SWAP1 RETURN JUMPDEST PUSH2 0x4E PUSH2 0x6E CALLDATASIZE PUSH1 0x4 PUSH2 0x106 JUMP JUMPDEST PUSH2 0xAA JUMP JUMPDEST PUSH1 0x0 PUSH2 0x7F DUP3 DUP5 PUSH2 0x127 JUMP JUMPDEST PUSH2 0x99 JUMPI PUSH4 0x4E487B71 PUSH1 0xE0 SHL PUSH1 0x0 MSTORE PUSH1 0x1 PUSH1 0x4 MSTORE PUSH1 0x24 PUSH1 0x0 REVERT JUMPDEST PUSH2 0xA3 DUP3 DUP5 PUSH2 0x127 JUMP JUMPDEST SWAP4 SWAP3 POP POP POP JUMP JUMPDEST PUSH1 0x0 PUSH2 0xB6 DUP3 DUP5 PUSH2 0x127 JUMP JUMPDEST PUSH2 0x99 JUMPI PUSH1 0x40 MLOAD PUSH3 0x461BCD PUSH1 0xE5 SHL DUP2 MSTORE PUSH1 0x20 PUSH1 0x4 DUP3 ADD MSTORE PUSH1 0x1F PUSH1 0x24 DUP3 ADD MSTORE PUSH32 0x4920647565206E756D65726920736F6D6D6174692066616E6E6F207A65726F00 PUSH1 0x44 DUP3 ADD MSTORE PUSH1 0x64 ADD PUSH1 0x40 MLOAD DUP1 SWAP2 SUB SWAP1 REVERT JUMPDEST PUSH1 0x0 DUP1 PUSH1 0x40 DUP4 DUP6 SUB SLT ISZERO PUSH2 0x118 JUMPI DUP2 DUP3 REVERT JUMPDEST POP POP DUP1 CALLDATALOAD SWAP3 PUSH1 0x20 SWAP1 SWAP2 ADD CALLDATALOAD SWAP2 POP JUMP JUMPDEST PUSH1 0x0 DUP3 NOT DUP3 GT ISZERO PUSH2 0x146 JUMPI PUSH4 0x4E487B71 PUSH1 0xE0 SHL DUP2 MSTORE PUSH1 0x11 PUSH1 0x4 MSTORE PUSH1 0x24 DUP2 REVERT JUMPDEST POP ADD SWAP1 JUMP INVALID LOG2 PUSH5 0x6970667358 0x22 SLT KECCAK256 0xDA LOG2 CALLDATASIZE DUP2 0xEB CREATE2 LOG2 0xF6 ADDMOD 0x24 0xD ADD 0xEA SMOD 0xE8 LOG2 PUSH24 0xEABCBEFA606FAA811116C4658B0E6064736F6C6343000802 STOP CALLER "
		},
		"gasEstimates": {
			"creation": {
				"codeDepositCost": "77000",
				"executionCost": "129",
				"totalCost": "77129"
			},
			"external": {
				"isAssert(uint256,uint256)": "infinite",
				"isRequire(uint256,uint256)": "infinite"
			}
		},
		"methodIdentifiers": {
			"isAssert(uint256,uint256)": "97f10145",
			"isRequire(uint256,uint256)": "beecb8cf"
		}
	},
	"abi": [
		{
			"inputs": [
				{
					"internalType": "uint256",
					"name": "a",
					"type": "uint256"
				},
				{
					"internalType": "uint256",
					"name": "b",
					"type": "uint256"
				}
			],
			"name": "isAssert",
			"outputs": [
				{
					"internalType": "uint256",
					"name": "c",
					"type": "uint256"
				}
			],
			"stateMutability": "pure",
			"type": "function"
		},
		{
			"inputs": [
				{
					"internalType": "uint256",
					"name": "a",
					"type": "uint256"
				},
				{
					"internalType": "uint256",
					"name": "b",
					"type": "uint256"
				}
			],
			"name": "isRequire",
			"outputs": [
				{
					"internalType": "uint256",
					"name": "c",
					"type": "uint256"
				}
			],
			"stateMutability": "pure",
			"type": "function"
		}
	]
}