{
	"data": {
		"bytecode": {
			"linkReferences": {},
			"object": "608060405234801561001057600080fd5b50610179806100206000396000f3006080604052600436106100405763ffffffff7c0100000000000000000000000000000000000000000000000000000000600035041663ab43f8cd8114610045575b600080fd5b34801561005157600080fd5b5061005a6100aa565b60408051602080825283518183015283519192839290830191858101910280838360005b8381101561009657818101518382015260200161007e565b505050509050019250505060405180910390f35b600080546001818101835582805260aa7f290decd9548b62a8d60345a988386fc84ba6bc95484008f6362f93160ef3e563928301558254808201845560bb908301558254908101835560cc9101558054604080516020838102820181019092528281526060939092909183018282801561014357602002820191906000526020600020905b81548152602001906001019080831161012f575b50505050509050905600a165627a7a72305820b0aab327418781fdc26a09c776d27f9d45dbd7302d1ba645b2b7e7b639e796b10029",
			"opcodes": "PUSH1 0x80 PUSH1 0x40 MSTORE CALLVALUE DUP1 ISZERO PUSH2 0x10 JUMPI PUSH1 0x0 DUP1 REVERT JUMPDEST POP PUSH2 0x179 DUP1 PUSH2 0x20 PUSH1 0x0 CODECOPY PUSH1 0x0 RETURN STOP PUSH1 0x80 PUSH1 0x40 MSTORE PUSH1 0x4 CALLDATASIZE LT PUSH2 0x40 JUMPI PUSH4 0xFFFFFFFF PUSH29 0x100000000000000000000000000000000000000000000000000000000 PUSH1 0x0 CALLDATALOAD DIV AND PUSH4 0xAB43F8CD DUP2 EQ PUSH2 0x45 JUMPI JUMPDEST PUSH1 0x0 DUP1 REVERT JUMPDEST CALLVALUE DUP1 ISZERO PUSH2 0x51 JUMPI PUSH1 0x0 DUP1 REVERT JUMPDEST POP PUSH2 0x5A PUSH2 0xAA JUMP JUMPDEST PUSH1 0x40 DUP1 MLOAD PUSH1 0x20 DUP1 DUP3 MSTORE DUP4 MLOAD DUP2 DUP4 ADD MSTORE DUP4 MLOAD SWAP2 SWAP3 DUP4 SWAP3 SWAP1 DUP4 ADD SWAP2 DUP6 DUP2 ADD SWAP2 MUL DUP1 DUP4 DUP4 PUSH1 0x0 JUMPDEST DUP4 DUP2 LT ISZERO PUSH2 0x96 JUMPI DUP2 DUP2 ADD MLOAD DUP4 DUP3 ADD MSTORE PUSH1 0x20 ADD PUSH2 0x7E JUMP JUMPDEST POP POP POP POP SWAP1 POP ADD SWAP3 POP POP POP PUSH1 0x40 MLOAD DUP1 SWAP2 SUB SWAP1 RETURN JUMPDEST PUSH1 0x0 DUP1 SLOAD PUSH1 0x1 DUP2 DUP2 ADD DUP4 SSTORE DUP3 DUP1 MSTORE PUSH1 0xAA PUSH32 0x290DECD9548B62A8D60345A988386FC84BA6BC95484008F6362F93160EF3E563 SWAP3 DUP4 ADD SSTORE DUP3 SLOAD DUP1 DUP3 ADD DUP5 SSTORE PUSH1 0xBB SWAP1 DUP4 ADD SSTORE DUP3 SLOAD SWAP1 DUP2 ADD DUP4 SSTORE PUSH1 0xCC SWAP2 ADD SSTORE DUP1 SLOAD PUSH1 0x40 DUP1 MLOAD PUSH1 0x20 DUP4 DUP2 MUL DUP3 ADD DUP2 ADD SWAP1 SWAP3 MSTORE DUP3 DUP2 MSTORE PUSH1 0x60 SWAP4 SWAP1 SWAP3 SWAP1 SWAP2 DUP4 ADD DUP3 DUP3 DUP1 ISZERO PUSH2 0x143 JUMPI PUSH1 0x20 MUL DUP3 ADD SWAP2 SWAP1 PUSH1 0x0 MSTORE PUSH1 0x20 PUSH1 0x0 KECCAK256 SWAP1 JUMPDEST DUP2 SLOAD DUP2 MSTORE PUSH1 0x20 ADD SWAP1 PUSH1 0x1 ADD SWAP1 DUP1 DUP4 GT PUSH2 0x12F JUMPI JUMPDEST POP POP POP POP POP SWAP1 POP SWAP1 JUMP STOP LOG1 PUSH6 0x627A7A723058 KECCAK256 0xb0 0xaa 0xb3 0x27 COINBASE DUP8 DUP2 REVERT 0xc2 PUSH11 0x9C776D27F9D45DBD7302D SHL 0xa6 GASLIMIT 0xb2 0xb7 0xe7 0xb6 CODECOPY 0xe7 SWAP7 0xb1 STOP 0x29 "
		},
		"gasEstimates": {
			"creation": {
				"codeDepositCost": "75400",
				"executionCost": "123",
				"totalCost": "75523"
			},
			"external": {
				"ad1()": "infinite"
			}
		},
		"methodIdentifiers": {
			"ad1()": "ab43f8cd"
		}
	},
	"abi": [
		{
			"constant": false,
			"inputs": [],
			"name": "ad1",
			"outputs": [
				{
					"name": "",
					"type": "uint256[]"
				}
			],
			"payable": false,
			"stateMutability": "nonpayable",
			"type": "function"
		}
	]
}