{
	"data": {
		"bytecode": {
			"linkReferences": {},
			"object": "6104b9610053600b82828239805160001a607314610046577f4e487b7100000000000000000000000000000000000000000000000000000000600052600060045260246000fd5b30600052607381538281f3fe730000000000000000000000000000000000000000301460806040526004361061004b5760003560e01c80634d36b7a4146100505780634d83e19714610080578063d62c425d146100b0575b600080fd5b61006a60048036038101906100659190610267565b6100e0565b60405161007791906102b7565b60405180910390f35b61009a60048036038101906100959190610267565b610116565b6040516100a791906102b7565b60405180910390f35b6100ca60048036038101906100c59190610267565b61018c565b6040516100d791906102b7565b60405180910390f35b600080600090505b825181101561011057602081026020840101518201915080610109906103b4565b90506100e8565b50919050565b600080600090505b825181101561018657828181518110610160577f4e487b7100000000000000000000000000000000000000000000000000000000600052603260045260246000fd5b6020026020010151826101739190610323565b91508061017f906103b4565b905061011e565b50919050565b60008151602083016020820281015b808210156101b45781518401935060208201915061019b565b505050919050565b60006101cf6101ca846102f7565b6102d2565b905080838252602082019050828560208602820111156101ee57600080fd5b60005b8581101561021e57816102048882610252565b8452602084019350602083019250506001810190506101f1565b5050509392505050565b600082601f83011261023957600080fd5b81356102498482602086016101bc565b91505092915050565b6000813590506102618161046c565b92915050565b60006020828403121561027957600080fd5b600082013567ffffffffffffffff81111561029357600080fd5b61029f84828501610228565b91505092915050565b6102b181610379565b82525050565b60006020820190506102cc60008301846102a8565b92915050565b60006102dc6102ed565b90506102e88282610383565b919050565b6000604051905090565b600067ffffffffffffffff8211156103125761031161042c565b5b602082029050602081019050919050565b600061032e82610379565b915061033983610379565b9250827fffffffffffffffffffffffffffffffffffffffffffffffffffffffffffffffff0382111561036e5761036d6103fd565b5b828201905092915050565b6000819050919050565b61038c8261045b565b810181811067ffffffffffffffff821117156103ab576103aa61042c565b5b80604052505050565b60006103bf82610379565b91507fffffffffffffffffffffffffffffffffffffffffffffffffffffffffffffffff8214156103f2576103f16103fd565b5b600182019050919050565b7f4e487b7100000000000000000000000000000000000000000000000000000000600052601160045260246000fd5b7f4e487b7100000000000000000000000000000000000000000000000000000000600052604160045260246000fd5b6000601f19601f8301169050919050565b61047581610379565b811461048057600080fd5b5056fea26469706673582212200a8a4be6a1b405d51092c5c592d8acbd450678b0a1f2df47c29dd68ed55bdc5664736f6c63430008010033",
			"opcodes": "PUSH2 0x4B9 PUSH2 0x53 PUSH1 0xB DUP3 DUP3 DUP3 CODECOPY DUP1 MLOAD PUSH1 0x0 BYTE PUSH1 0x73 EQ PUSH2 0x46 JUMPI PUSH32 0x4E487B7100000000000000000000000000000000000000000000000000000000 PUSH1 0x0 MSTORE PUSH1 0x0 PUSH1 0x4 MSTORE PUSH1 0x24 PUSH1 0x0 REVERT JUMPDEST ADDRESS PUSH1 0x0 MSTORE PUSH1 0x73 DUP2 MSTORE8 DUP3 DUP2 RETURN INVALID PUSH20 0x0 ADDRESS EQ PUSH1 0x80 PUSH1 0x40 MSTORE PUSH1 0x4 CALLDATASIZE LT PUSH2 0x4B JUMPI PUSH1 0x0 CALLDATALOAD PUSH1 0xE0 SHR DUP1 PUSH4 0x4D36B7A4 EQ PUSH2 0x50 JUMPI DUP1 PUSH4 0x4D83E197 EQ PUSH2 0x80 JUMPI DUP1 PUSH4 0xD62C425D EQ PUSH2 0xB0 JUMPI JUMPDEST PUSH1 0x0 DUP1 REVERT JUMPDEST PUSH2 0x6A PUSH1 0x4 DUP1 CALLDATASIZE SUB DUP2 ADD SWAP1 PUSH2 0x65 SWAP2 SWAP1 PUSH2 0x267 JUMP JUMPDEST PUSH2 0xE0 JUMP JUMPDEST PUSH1 0x40 MLOAD PUSH2 0x77 SWAP2 SWAP1 PUSH2 0x2B7 JUMP JUMPDEST PUSH1 0x40 MLOAD DUP1 SWAP2 SUB SWAP1 RETURN JUMPDEST PUSH2 0x9A PUSH1 0x4 DUP1 CALLDATASIZE SUB DUP2 ADD SWAP1 PUSH2 0x95 SWAP2 SWAP1 PUSH2 0x267 JUMP JUMPDEST PUSH2 0x116 JUMP JUMPDEST PUSH1 0x40 MLOAD PUSH2 0xA7 SWAP2 SWAP1 PUSH2 0x2B7 JUMP JUMPDEST PUSH1 0x40 MLOAD DUP1 SWAP2 SUB SWAP1 RETURN JUMPDEST PUSH2 0xCA PUSH1 0x4 DUP1 CALLDATASIZE SUB DUP2 ADD SWAP1 PUSH2 0xC5 SWAP2 SWAP1 PUSH2 0x267 JUMP JUMPDEST PUSH2 0x18C JUMP JUMPDEST PUSH1 0x40 MLOAD PUSH2 0xD7 SWAP2 SWAP1 PUSH2 0x2B7 JUMP JUMPDEST PUSH1 0x40 MLOAD DUP1 SWAP2 SUB SWAP1 RETURN JUMPDEST PUSH1 0x0 DUP1 PUSH1 0x0 SWAP1 POP JUMPDEST DUP3 MLOAD DUP2 LT ISZERO PUSH2 0x110 JUMPI PUSH1 0x20 DUP2 MUL PUSH1 0x20 DUP5 ADD ADD MLOAD DUP3 ADD SWAP2 POP DUP1 PUSH2 0x109 SWAP1 PUSH2 0x3B4 JUMP JUMPDEST SWAP1 POP PUSH2 0xE8 JUMP JUMPDEST POP SWAP2 SWAP1 POP JUMP JUMPDEST PUSH1 0x0 DUP1 PUSH1 0x0 SWAP1 POP JUMPDEST DUP3 MLOAD DUP2 LT ISZERO PUSH2 0x186 JUMPI DUP3 DUP2 DUP2 MLOAD DUP2 LT PUSH2 0x160 JUMPI PUSH32 0x4E487B7100000000000000000000000000000000000000000000000000000000 PUSH1 0x0 MSTORE PUSH1 0x32 PUSH1 0x4 MSTORE PUSH1 0x24 PUSH1 0x0 REVERT JUMPDEST PUSH1 0x20 MUL PUSH1 0x20 ADD ADD MLOAD DUP3 PUSH2 0x173 SWAP2 SWAP1 PUSH2 0x323 JUMP JUMPDEST SWAP2 POP DUP1 PUSH2 0x17F SWAP1 PUSH2 0x3B4 JUMP JUMPDEST SWAP1 POP PUSH2 0x11E JUMP JUMPDEST POP SWAP2 SWAP1 POP JUMP JUMPDEST PUSH1 0x0 DUP2 MLOAD PUSH1 0x20 DUP4 ADD PUSH1 0x20 DUP3 MUL DUP2 ADD JUMPDEST DUP1 DUP3 LT ISZERO PUSH2 0x1B4 JUMPI DUP2 MLOAD DUP5 ADD SWAP4 POP PUSH1 0x20 DUP3 ADD SWAP2 POP PUSH2 0x19B JUMP JUMPDEST POP POP POP SWAP2 SWAP1 POP JUMP JUMPDEST PUSH1 0x0 PUSH2 0x1CF PUSH2 0x1CA DUP5 PUSH2 0x2F7 JUMP JUMPDEST PUSH2 0x2D2 JUMP JUMPDEST SWAP1 POP DUP1 DUP4 DUP3 MSTORE PUSH1 0x20 DUP3 ADD SWAP1 POP DUP3 DUP6 PUSH1 0x20 DUP7 MUL DUP3 ADD GT ISZERO PUSH2 0x1EE JUMPI PUSH1 0x0 DUP1 REVERT JUMPDEST PUSH1 0x0 JUMPDEST DUP6 DUP2 LT ISZERO PUSH2 0x21E JUMPI DUP2 PUSH2 0x204 DUP9 DUP3 PUSH2 0x252 JUMP JUMPDEST DUP5 MSTORE PUSH1 0x20 DUP5 ADD SWAP4 POP PUSH1 0x20 DUP4 ADD SWAP3 POP POP PUSH1 0x1 DUP2 ADD SWAP1 POP PUSH2 0x1F1 JUMP JUMPDEST POP POP POP SWAP4 SWAP3 POP POP POP JUMP JUMPDEST PUSH1 0x0 DUP3 PUSH1 0x1F DUP4 ADD SLT PUSH2 0x239 JUMPI PUSH1 0x0 DUP1 REVERT JUMPDEST DUP2 CALLDATALOAD PUSH2 0x249 DUP5 DUP3 PUSH1 0x20 DUP7 ADD PUSH2 0x1BC JUMP JUMPDEST SWAP2 POP POP SWAP3 SWAP2 POP POP JUMP JUMPDEST PUSH1 0x0 DUP2 CALLDATALOAD SWAP1 POP PUSH2 0x261 DUP2 PUSH2 0x46C JUMP JUMPDEST SWAP3 SWAP2 POP POP JUMP JUMPDEST PUSH1 0x0 PUSH1 0x20 DUP3 DUP5 SUB SLT ISZERO PUSH2 0x279 JUMPI PUSH1 0x0 DUP1 REVERT JUMPDEST PUSH1 0x0 DUP3 ADD CALLDATALOAD PUSH8 0xFFFFFFFFFFFFFFFF DUP2 GT ISZERO PUSH2 0x293 JUMPI PUSH1 0x0 DUP1 REVERT JUMPDEST PUSH2 0x29F DUP5 DUP3 DUP6 ADD PUSH2 0x228 JUMP JUMPDEST SWAP2 POP POP SWAP3 SWAP2 POP POP JUMP JUMPDEST PUSH2 0x2B1 DUP2 PUSH2 0x379 JUMP JUMPDEST DUP3 MSTORE POP POP JUMP JUMPDEST PUSH1 0x0 PUSH1 0x20 DUP3 ADD SWAP1 POP PUSH2 0x2CC PUSH1 0x0 DUP4 ADD DUP5 PUSH2 0x2A8 JUMP JUMPDEST SWAP3 SWAP2 POP POP JUMP JUMPDEST PUSH1 0x0 PUSH2 0x2DC PUSH2 0x2ED JUMP JUMPDEST SWAP1 POP PUSH2 0x2E8 DUP3 DUP3 PUSH2 0x383 JUMP JUMPDEST SWAP2 SWAP1 POP JUMP JUMPDEST PUSH1 0x0 PUSH1 0x40 MLOAD SWAP1 POP SWAP1 JUMP JUMPDEST PUSH1 0x0 PUSH8 0xFFFFFFFFFFFFFFFF DUP3 GT ISZERO PUSH2 0x312 JUMPI PUSH2 0x311 PUSH2 0x42C JUMP JUMPDEST JUMPDEST PUSH1 0x20 DUP3 MUL SWAP1 POP PUSH1 0x20 DUP2 ADD SWAP1 POP SWAP2 SWAP1 POP JUMP JUMPDEST PUSH1 0x0 PUSH2 0x32E DUP3 PUSH2 0x379 JUMP JUMPDEST SWAP2 POP PUSH2 0x339 DUP4 PUSH2 0x379 JUMP JUMPDEST SWAP3 POP DUP3 PUSH32 0xFFFFFFFFFFFFFFFFFFFFFFFFFFFFFFFFFFFFFFFFFFFFFFFFFFFFFFFFFFFFFFFF SUB DUP3 GT ISZERO PUSH2 0x36E JUMPI PUSH2 0x36D PUSH2 0x3FD JUMP JUMPDEST JUMPDEST DUP3 DUP3 ADD SWAP1 POP SWAP3 SWAP2 POP POP JUMP JUMPDEST PUSH1 0x0 DUP2 SWAP1 POP SWAP2 SWAP1 POP JUMP JUMPDEST PUSH2 0x38C DUP3 PUSH2 0x45B JUMP JUMPDEST DUP2 ADD DUP2 DUP2 LT PUSH8 0xFFFFFFFFFFFFFFFF DUP3 GT OR ISZERO PUSH2 0x3AB JUMPI PUSH2 0x3AA PUSH2 0x42C JUMP JUMPDEST JUMPDEST DUP1 PUSH1 0x40 MSTORE POP POP POP JUMP JUMPDEST PUSH1 0x0 PUSH2 0x3BF DUP3 PUSH2 0x379 JUMP JUMPDEST SWAP2 POP PUSH32 0xFFFFFFFFFFFFFFFFFFFFFFFFFFFFFFFFFFFFFFFFFFFFFFFFFFFFFFFFFFFFFFFF DUP3 EQ ISZERO PUSH2 0x3F2 JUMPI PUSH2 0x3F1 PUSH2 0x3FD JUMP JUMPDEST JUMPDEST PUSH1 0x1 DUP3 ADD SWAP1 POP SWAP2 SWAP1 POP JUMP JUMPDEST PUSH32 0x4E487B7100000000000000000000000000000000000000000000000000000000 PUSH1 0x0 MSTORE PUSH1 0x11 PUSH1 0x4 MSTORE PUSH1 0x24 PUSH1 0x0 REVERT JUMPDEST PUSH32 0x4E487B7100000000000000000000000000000000000000000000000000000000 PUSH1 0x0 MSTORE PUSH1 0x41 PUSH1 0x4 MSTORE PUSH1 0x24 PUSH1 0x0 REVERT JUMPDEST PUSH1 0x0 PUSH1 0x1F NOT PUSH1 0x1F DUP4 ADD AND SWAP1 POP SWAP2 SWAP1 POP JUMP JUMPDEST PUSH2 0x475 DUP2 PUSH2 0x379 JUMP JUMPDEST DUP2 EQ PUSH2 0x480 JUMPI PUSH1 0x0 DUP1 REVERT JUMPDEST POP JUMP INVALID LOG2 PUSH5 0x6970667358 0x22 SLT KECCAK256 EXP DUP11 0x4B 0xE6 LOG1 0xB4 SDIV 0xD5 LT SWAP3 0xC5 0xC5 SWAP3 0xD8 0xAC 0xBD GASLIMIT MOD PUSH25 0xB0A1F2DF47C29DD68ED55BDC5664736F6C6343000801003300 "
		},
		"gasEstimates": {
			"creation": {
				"codeDepositCost": "241800",
				"executionCost": "309",
				"totalCost": "242109"
			},
			"external": {
				"sumAsm(uint256[])": "infinite",
				"sumPureAsm(uint256[])": "infinite",
				"sumSolidity(uint256[])": "infinite"
			}
		},
		"methodIdentifiers": {
			"sumAsm(uint256[])": "4d36b7a4",
			"sumPureAsm(uint256[])": "d62c425d",
			"sumSolidity(uint256[])": "4d83e197"
		}
	},
	"abi": [
		{
			"inputs": [
				{
					"internalType": "uint256[]",
					"name": "_data",
					"type": "uint256[]"
				}
			],
			"name": "sumAsm",
			"outputs": [
				{
					"internalType": "uint256",
					"name": "sum",
					"type": "uint256"
				}
			],
			"stateMutability": "pure",
			"type": "function"
		},
		{
			"inputs": [
				{
					"internalType": "uint256[]",
					"name": "_data",
					"type": "uint256[]"
				}
			],
			"name": "sumPureAsm",
			"outputs": [
				{
					"internalType": "uint256",
					"name": "sum",
					"type": "uint256"
				}
			],
			"stateMutability": "pure",
			"type": "function"
		},
		{
			"inputs": [
				{
					"internalType": "uint256[]",
					"name": "_data",
					"type": "uint256[]"
				}
			],
			"name": "sumSolidity",
			"outputs": [
				{
					"internalType": "uint256",
					"name": "sum",
					"type": "uint256"
				}
			],
			"stateMutability": "pure",
			"type": "function"
		}
	]
}