{
	"data": {
		"bytecode": {
			"linkReferences": {},
			"object": "608060405234801561001057600080fd5b50610150806100206000396000f3fe608060405234801561001057600080fd5b506004361061002b5760003560e01c80637bfaabcf14610030575b600080fd5b61004a60048036038101906100459190610093565b610060565b60405161005791906100de565b60405180910390f35b60008260005281602052604060002060038155805491505092915050565b60008135905061008d81610103565b92915050565b600080604083850312156100a657600080fd5b60006100b48582860161007e565b92505060206100c58582860161007e565b9150509250929050565b6100d8816100f9565b82525050565b60006020820190506100f360008301846100cf565b92915050565b6000819050919050565b61010c816100f9565b811461011757600080fd5b5056fea26469706673582212202315b166b97359b982c951d0b644eb29318f8c88ee82c9a513e0f85ef35a73a564736f6c63430008010033",
			"opcodes": "PUSH1 0x80 PUSH1 0x40 MSTORE CALLVALUE DUP1 ISZERO PUSH2 0x10 JUMPI PUSH1 0x0 DUP1 REVERT JUMPDEST POP PUSH2 0x150 DUP1 PUSH2 0x20 PUSH1 0x0 CODECOPY PUSH1 0x0 RETURN INVALID PUSH1 0x80 PUSH1 0x40 MSTORE CALLVALUE DUP1 ISZERO PUSH2 0x10 JUMPI PUSH1 0x0 DUP1 REVERT JUMPDEST POP PUSH1 0x4 CALLDATASIZE LT PUSH2 0x2B JUMPI PUSH1 0x0 CALLDATALOAD PUSH1 0xE0 SHR DUP1 PUSH4 0x7BFAABCF EQ PUSH2 0x30 JUMPI JUMPDEST PUSH1 0x0 DUP1 REVERT JUMPDEST PUSH2 0x4A PUSH1 0x4 DUP1 CALLDATASIZE SUB DUP2 ADD SWAP1 PUSH2 0x45 SWAP2 SWAP1 PUSH2 0x93 JUMP JUMPDEST PUSH2 0x60 JUMP JUMPDEST PUSH1 0x40 MLOAD PUSH2 0x57 SWAP2 SWAP1 PUSH2 0xDE JUMP JUMPDEST PUSH1 0x40 MLOAD DUP1 SWAP2 SUB SWAP1 RETURN JUMPDEST PUSH1 0x0 DUP3 PUSH1 0x0 MSTORE DUP2 PUSH1 0x20 MSTORE PUSH1 0x40 PUSH1 0x0 KECCAK256 PUSH1 0x3 DUP2 SSTORE DUP1 SLOAD SWAP2 POP POP SWAP3 SWAP2 POP POP JUMP JUMPDEST PUSH1 0x0 DUP2 CALLDATALOAD SWAP1 POP PUSH2 0x8D DUP2 PUSH2 0x103 JUMP JUMPDEST SWAP3 SWAP2 POP POP JUMP JUMPDEST PUSH1 0x0 DUP1 PUSH1 0x40 DUP4 DUP6 SUB SLT ISZERO PUSH2 0xA6 JUMPI PUSH1 0x0 DUP1 REVERT JUMPDEST PUSH1 0x0 PUSH2 0xB4 DUP6 DUP3 DUP7 ADD PUSH2 0x7E JUMP JUMPDEST SWAP3 POP POP PUSH1 0x20 PUSH2 0xC5 DUP6 DUP3 DUP7 ADD PUSH2 0x7E JUMP JUMPDEST SWAP2 POP POP SWAP3 POP SWAP3 SWAP1 POP JUMP JUMPDEST PUSH2 0xD8 DUP2 PUSH2 0xF9 JUMP JUMPDEST DUP3 MSTORE POP POP JUMP JUMPDEST PUSH1 0x0 PUSH1 0x20 DUP3 ADD SWAP1 POP PUSH2 0xF3 PUSH1 0x0 DUP4 ADD DUP5 PUSH2 0xCF JUMP JUMPDEST SWAP3 SWAP2 POP POP JUMP JUMPDEST PUSH1 0x0 DUP2 SWAP1 POP SWAP2 SWAP1 POP JUMP JUMPDEST PUSH2 0x10C DUP2 PUSH2 0xF9 JUMP JUMPDEST DUP2 EQ PUSH2 0x117 JUMPI PUSH1 0x0 DUP1 REVERT JUMPDEST POP JUMP INVALID LOG2 PUSH5 0x6970667358 0x22 SLT KECCAK256 0x23 ISZERO 0xB1 PUSH7 0xB97359B982C951 0xD0 0xB6 DIFFICULTY 0xEB 0x29 BALANCE DUP16 DUP13 DUP9 0xEE DUP3 0xC9 0xA5 SGT 0xE0 0xF8 0x5E RETURN GAS PUSH20 0xA564736F6C634300080100330000000000000000 "
		},
		"gasEstimates": {
			"creation": {
				"codeDepositCost": "67200",
				"executionCost": "117",
				"totalCost": "67317"
			},
			"external": {
				"getStorageValue(uint256,uint256)": "infinite"
			}
		},
		"methodIdentifiers": {
			"getStorageValue(uint256,uint256)": "7bfaabcf"
		}
	},
	"abi": [
		{
			"inputs": [
				{
					"internalType": "uint256",
					"name": "key",
					"type": "uint256"
				},
				{
					"internalType": "uint256",
					"name": "pslot",
					"type": "uint256"
				}
			],
			"name": "getStorageValue",
			"outputs": [
				{
					"internalType": "uint256",
					"name": "result",
					"type": "uint256"
				}
			],
			"stateMutability": "nonpayable",
			"type": "function"
		}
	]
}