{
	"data": {
		"bytecode": {
			"linkReferences": {},
			"object": "608060405234801561001057600080fd5b5060d48061001f6000396000f3fe6080604052348015600f57600080fd5b506004361060325760003560e01c8063a2dbab40146037578063f8cac342146058575b600080fd5b604660423660046087565b6067565b60405190815260200160405180910390f35b604660633660046087565b606f565b60005b919050565b60006001821015606a576002821115606a575080606a565b6000602082840312156097578081fd5b503591905056fea26469706673582212205e881094277e0c887c40f4a67bef707cc7fab772b97561eff69178a5e634ac2a64736f6c63430008020033",
			"opcodes": "PUSH1 0x80 PUSH1 0x40 MSTORE CALLVALUE DUP1 ISZERO PUSH2 0x10 JUMPI PUSH1 0x0 DUP1 REVERT JUMPDEST POP PUSH1 0xD4 DUP1 PUSH2 0x1F PUSH1 0x0 CODECOPY PUSH1 0x0 RETURN INVALID PUSH1 0x80 PUSH1 0x40 MSTORE CALLVALUE DUP1 ISZERO PUSH1 0xF JUMPI PUSH1 0x0 DUP1 REVERT JUMPDEST POP PUSH1 0x4 CALLDATASIZE LT PUSH1 0x32 JUMPI PUSH1 0x0 CALLDATALOAD PUSH1 0xE0 SHR DUP1 PUSH4 0xA2DBAB40 EQ PUSH1 0x37 JUMPI DUP1 PUSH4 0xF8CAC342 EQ PUSH1 0x58 JUMPI JUMPDEST PUSH1 0x0 DUP1 REVERT JUMPDEST PUSH1 0x46 PUSH1 0x42 CALLDATASIZE PUSH1 0x4 PUSH1 0x87 JUMP JUMPDEST PUSH1 0x67 JUMP JUMPDEST PUSH1 0x40 MLOAD SWAP1 DUP2 MSTORE PUSH1 0x20 ADD PUSH1 0x40 MLOAD DUP1 SWAP2 SUB SWAP1 RETURN JUMPDEST PUSH1 0x46 PUSH1 0x63 CALLDATASIZE PUSH1 0x4 PUSH1 0x87 JUMP JUMPDEST PUSH1 0x6F JUMP JUMPDEST PUSH1 0x0 JUMPDEST SWAP2 SWAP1 POP JUMP JUMPDEST PUSH1 0x0 PUSH1 0x1 DUP3 LT ISZERO PUSH1 0x6A JUMPI PUSH1 0x2 DUP3 GT ISZERO PUSH1 0x6A JUMPI POP DUP1 PUSH1 0x6A JUMP JUMPDEST PUSH1 0x0 PUSH1 0x20 DUP3 DUP5 SUB SLT ISZERO PUSH1 0x97 JUMPI DUP1 DUP2 REVERT JUMPDEST POP CALLDATALOAD SWAP2 SWAP1 POP JUMP INVALID LOG2 PUSH5 0x6970667358 0x22 SLT KECCAK256 0x5E DUP9 LT SWAP5 0x27 PUSH31 0xC887C40F4A67BEF707CC7FAB772B97561EFF69178A5E634AC2A64736F6C63 NUMBER STOP ADDMOD MUL STOP CALLER "
		},
		"gasEstimates": {
			"creation": {
				"codeDepositCost": "42400",
				"executionCost": "93",
				"totalCost": "42493"
			},
			"external": {
				"deadCode(uint256)": "344",
				"opaquePredicate(uint256)": "256"
			}
		},
		"methodIdentifiers": {
			"deadCode(uint256)": "f8cac342",
			"opaquePredicate(uint256)": "a2dbab40"
		}
	},
	"abi": [
		{
			"inputs": [
				{
					"internalType": "uint256",
					"name": "x",
					"type": "uint256"
				}
			],
			"name": "deadCode",
			"outputs": [
				{
					"internalType": "uint256",
					"name": "out",
					"type": "uint256"
				}
			],
			"stateMutability": "pure",
			"type": "function"
		},
		{
			"inputs": [
				{
					"internalType": "uint256",
					"name": "x",
					"type": "uint256"
				}
			],
			"name": "opaquePredicate",
			"outputs": [
				{
					"internalType": "uint256",
					"name": "out",
					"type": "uint256"
				}
			],
			"stateMutability": "pure",
			"type": "function"
		}
	]
}