{
	"data": {
		"bytecode": {
			"linkReferences": {},
			"object": "608060405234801561001057600080fd5b5060bc8061001f6000396000f3fe6080604052348015600f57600080fd5b506004361060285760003560e01c8063f8cac34214602d575b600080fd5b603c6038366004606f565b604e565b60405190815260200160405180910390f35b6000600182101560665760028211156066575080606a565b5060005b919050565b600060208284031215607f578081fd5b503591905056fea264697066735822122034c3afda06c36e3c9a8aab5175ad9322c10618203514511ac16252dc7631434864736f6c63430008020033",
			"opcodes": "PUSH1 0x80 PUSH1 0x40 MSTORE CALLVALUE DUP1 ISZERO PUSH2 0x10 JUMPI PUSH1 0x0 DUP1 REVERT JUMPDEST POP PUSH1 0xBC DUP1 PUSH2 0x1F PUSH1 0x0 CODECOPY PUSH1 0x0 RETURN INVALID PUSH1 0x80 PUSH1 0x40 MSTORE CALLVALUE DUP1 ISZERO PUSH1 0xF JUMPI PUSH1 0x0 DUP1 REVERT JUMPDEST POP PUSH1 0x4 CALLDATASIZE LT PUSH1 0x28 JUMPI PUSH1 0x0 CALLDATALOAD PUSH1 0xE0 SHR DUP1 PUSH4 0xF8CAC342 EQ PUSH1 0x2D JUMPI JUMPDEST PUSH1 0x0 DUP1 REVERT JUMPDEST PUSH1 0x3C PUSH1 0x38 CALLDATASIZE PUSH1 0x4 PUSH1 0x6F JUMP JUMPDEST PUSH1 0x4E JUMP JUMPDEST PUSH1 0x40 MLOAD SWAP1 DUP2 MSTORE PUSH1 0x20 ADD PUSH1 0x40 MLOAD DUP1 SWAP2 SUB SWAP1 RETURN JUMPDEST PUSH1 0x0 PUSH1 0x1 DUP3 LT ISZERO PUSH1 0x66 JUMPI PUSH1 0x2 DUP3 GT ISZERO PUSH1 0x66 JUMPI POP DUP1 PUSH1 0x6A JUMP JUMPDEST POP PUSH1 0x0 JUMPDEST SWAP2 SWAP1 POP JUMP JUMPDEST PUSH1 0x0 PUSH1 0x20 DUP3 DUP5 SUB SLT ISZERO PUSH1 0x7F JUMPI DUP1 DUP2 REVERT JUMPDEST POP CALLDATALOAD SWAP2 SWAP1 POP JUMP INVALID LOG2 PUSH5 0x6970667358 0x22 SLT KECCAK256 CALLVALUE 0xC3 0xAF 0xDA MOD 0xC3 PUSH15 0x3C9A8AAB5175AD9322C10618203514 MLOAD BYTE 0xC1 PUSH3 0x52DC76 BALANCE NUMBER 0x48 PUSH5 0x736F6C6343 STOP ADDMOD MUL STOP CALLER "
		},
		"gasEstimates": {
			"creation": {
				"codeDepositCost": "37600",
				"executionCost": "87",
				"totalCost": "37687"
			},
			"external": {
				"deadCode(uint256)": "322"
			}
		},
		"methodIdentifiers": {
			"deadCode(uint256)": "f8cac342"
		}
	},
	"abi": [
		{
			"inputs": [
				{
					"internalType": "uint256",
					"name": "x",
					"type": "uint256"
				}
			],
			"name": "deadCode",
			"outputs": [
				{
					"internalType": "uint256",
					"name": "out",
					"type": "uint256"
				}
			],
			"stateMutability": "pure",
			"type": "function"
		}
	]
}