{
	"data": {
		"bytecode": {
			"linkReferences": {},
			"object": "6000608081905260a0604081905261001891908161002b565b5034801561002557600080fd5b5061008b565b828054828255906000526020600020908101928215610066579160200282015b8281111561006657825182559160200191906001019061004b565b50610072929150610076565b5090565b5b808211156100725760008155600101610077565b6101678061009a6000396000f3fe608060405234801561001057600080fd5b506004361061002b5760003560e01c80633e530e5b14610030575b600080fd5b61004361003e3660046100f2565b610057565b604051901515815260200160405180910390f35b600080805b6000548110156100b6576000818154811061008757634e487b7160e01b600052603260045260246000fd5b90600052602060002001548414156100a4576001925050506100ed565b806100ae8161010a565b91505061005c565b5050600080546001810182558180527f290decd9548b62a8d60345a988386fc84ba6bc95484008f6362f93160ef3e5630183905590505b919050565b600060208284031215610103578081fd5b5035919050565b600060001982141561012a57634e487b7160e01b81526011600452602481fd5b506001019056fea26469706673582212202c3a49fdfbbdc606c71bad8b57806e0e87bda7815080a4b0ebf24556a375b27d64736f6c63430008020033",
			"opcodes": "PUSH1 0x0 PUSH1 0x80 DUP2 SWAP1 MSTORE PUSH1 0xA0 PUSH1 0x40 DUP2 SWAP1 MSTORE PUSH2 0x18 SWAP2 SWAP1 DUP2 PUSH2 0x2B JUMP JUMPDEST POP CALLVALUE DUP1 ISZERO PUSH2 0x25 JUMPI PUSH1 0x0 DUP1 REVERT JUMPDEST POP PUSH2 0x8B JUMP JUMPDEST DUP3 DUP1 SLOAD DUP3 DUP3 SSTORE SWAP1 PUSH1 0x0 MSTORE PUSH1 0x20 PUSH1 0x0 KECCAK256 SWAP1 DUP2 ADD SWAP3 DUP3 ISZERO PUSH2 0x66 JUMPI SWAP2 PUSH1 0x20 MUL DUP3 ADD JUMPDEST DUP3 DUP2 GT ISZERO PUSH2 0x66 JUMPI DUP3 MLOAD DUP3 SSTORE SWAP2 PUSH1 0x20 ADD SWAP2 SWAP1 PUSH1 0x1 ADD SWAP1 PUSH2 0x4B JUMP JUMPDEST POP PUSH2 0x72 SWAP3 SWAP2 POP PUSH2 0x76 JUMP JUMPDEST POP SWAP1 JUMP JUMPDEST JUMPDEST DUP1 DUP3 GT ISZERO PUSH2 0x72 JUMPI PUSH1 0x0 DUP2 SSTORE PUSH1 0x1 ADD PUSH2 0x77 JUMP JUMPDEST PUSH2 0x167 DUP1 PUSH2 0x9A PUSH1 0x0 CODECOPY PUSH1 0x0 RETURN INVALID PUSH1 0x80 PUSH1 0x40 MSTORE CALLVALUE DUP1 ISZERO PUSH2 0x10 JUMPI PUSH1 0x0 DUP1 REVERT JUMPDEST POP PUSH1 0x4 CALLDATASIZE LT PUSH2 0x2B JUMPI PUSH1 0x0 CALLDATALOAD PUSH1 0xE0 SHR DUP1 PUSH4 0x3E530E5B EQ PUSH2 0x30 JUMPI JUMPDEST PUSH1 0x0 DUP1 REVERT JUMPDEST PUSH2 0x43 PUSH2 0x3E CALLDATASIZE PUSH1 0x4 PUSH2 0xF2 JUMP JUMPDEST PUSH2 0x57 JUMP JUMPDEST PUSH1 0x40 MLOAD SWAP1 ISZERO ISZERO DUP2 MSTORE PUSH1 0x20 ADD PUSH1 0x40 MLOAD DUP1 SWAP2 SUB SWAP1 RETURN JUMPDEST PUSH1 0x0 DUP1 DUP1 JUMPDEST PUSH1 0x0 SLOAD DUP2 LT ISZERO PUSH2 0xB6 JUMPI PUSH1 0x0 DUP2 DUP2 SLOAD DUP2 LT PUSH2 0x87 JUMPI PUSH4 0x4E487B71 PUSH1 0xE0 SHL PUSH1 0x0 MSTORE PUSH1 0x32 PUSH1 0x4 MSTORE PUSH1 0x24 PUSH1 0x0 REVERT JUMPDEST SWAP1 PUSH1 0x0 MSTORE PUSH1 0x20 PUSH1 0x0 KECCAK256 ADD SLOAD DUP5 EQ ISZERO PUSH2 0xA4 JUMPI PUSH1 0x1 SWAP3 POP POP POP PUSH2 0xED JUMP JUMPDEST DUP1 PUSH2 0xAE DUP2 PUSH2 0x10A JUMP JUMPDEST SWAP2 POP POP PUSH2 0x5C JUMP JUMPDEST POP POP PUSH1 0x0 DUP1 SLOAD PUSH1 0x1 DUP2 ADD DUP3 SSTORE DUP2 DUP1 MSTORE PUSH32 0x290DECD9548B62A8D60345A988386FC84BA6BC95484008F6362F93160EF3E563 ADD DUP4 SWAP1 SSTORE SWAP1 POP JUMPDEST SWAP2 SWAP1 POP JUMP JUMPDEST PUSH1 0x0 PUSH1 0x20 DUP3 DUP5 SUB SLT ISZERO PUSH2 0x103 JUMPI DUP1 DUP2 REVERT JUMPDEST POP CALLDATALOAD SWAP2 SWAP1 POP JUMP JUMPDEST PUSH1 0x0 PUSH1 0x0 NOT DUP3 EQ ISZERO PUSH2 0x12A JUMPI PUSH4 0x4E487B71 PUSH1 0xE0 SHL DUP2 MSTORE PUSH1 0x11 PUSH1 0x4 MSTORE PUSH1 0x24 DUP2 REVERT JUMPDEST POP PUSH1 0x1 ADD SWAP1 JUMP INVALID LOG2 PUSH5 0x6970667358 0x22 SLT KECCAK256 0x2C GASPRICE 0x49 REVERT 0xFB 0xBD 0xC6 MOD 0xC7 SHL 0xAD DUP12 JUMPI DUP1 PUSH15 0xE87BDA7815080A4B0EBF24556A375 0xB2 PUSH30 0x64736F6C6343000802003300000000000000000000000000000000000000 "
		},
		"gasEstimates": {
			"creation": {
				"codeDepositCost": "71800",
				"executionCost": "infinite",
				"totalCost": "infinite"
			},
			"external": {
				"find(uint256)": "infinite"
			}
		},
		"methodIdentifiers": {
			"find(uint256)": "3e530e5b"
		}
	},
	"abi": [
		{
			"inputs": [
				{
					"internalType": "uint256",
					"name": "x",
					"type": "uint256"
				}
			],
			"name": "find",
			"outputs": [
				{
					"internalType": "bool",
					"name": "",
					"type": "bool"
				}
			],
			"stateMutability": "nonpayable",
			"type": "function"
		}
	]
}