{
	"data": {
		"bytecode": {
			"linkReferences": {},
			"object": "608060405234801561001057600080fd5b50610319806100206000396000f3fe608060405234801561001057600080fd5b50600436106100365760003560e01c8063094f7a711461003b5780637b0c22eb14610057575b600080fd5b6100556004803603810190610050919061012d565b610073565b005b610071600480360381019061006c919061012d565b6100b6565b005b60008060005b838110156100b057808361008d9190610156565b9250808261009b91906101ac565b915080806100a890610254565b915050610079565b50505050565b60008060005b838110156100e55780836100d09190610156565b925080806100dd90610254565b9150506100bc565b5060005b838110156101125780826100fd91906101ac565b9150808061010a90610254565b9150506100e9565b50505050565b600081359050610127816102cc565b92915050565b60006020828403121561013f57600080fd5b600061014d84828501610118565b91505092915050565b60006101618261024a565b915061016c8361024a565b9250827fffffffffffffffffffffffffffffffffffffffffffffffffffffffffffffffff038211156101a1576101a061029d565b5b828201905092915050565b60006101b782610240565b91506101c283610240565b9250827f8000000000000000000000000000000000000000000000000000000000000000018212600084121516156101fd576101fc61029d565b5b827f7fffffffffffffffffffffffffffffffffffffffffffffffffffffffffffffff0182136000841216156102355761023461029d565b5b828203905092915050565b6000819050919050565b6000819050919050565b600061025f8261024a565b91507fffffffffffffffffffffffffffffffffffffffffffffffffffffffffffffffff8214156102925761029161029d565b5b600182019050919050565b7f4e487b7100000000000000000000000000000000000000000000000000000000600052601160045260246000fd5b6102d58161024a565b81146102e057600080fd5b5056fea26469706673582212206bfa40156a19458ea7220fbb32d3e9e312f4bdd9cce815346676bff6882424a964736f6c63430008010033",
			"opcodes": "PUSH1 0x80 PUSH1 0x40 MSTORE CALLVALUE DUP1 ISZERO PUSH2 0x10 JUMPI PUSH1 0x0 DUP1 REVERT JUMPDEST POP PUSH2 0x319 DUP1 PUSH2 0x20 PUSH1 0x0 CODECOPY PUSH1 0x0 RETURN INVALID PUSH1 0x80 PUSH1 0x40 MSTORE CALLVALUE DUP1 ISZERO PUSH2 0x10 JUMPI PUSH1 0x0 DUP1 REVERT JUMPDEST POP PUSH1 0x4 CALLDATASIZE LT PUSH2 0x36 JUMPI PUSH1 0x0 CALLDATALOAD PUSH1 0xE0 SHR DUP1 PUSH4 0x94F7A71 EQ PUSH2 0x3B JUMPI DUP1 PUSH4 0x7B0C22EB EQ PUSH2 0x57 JUMPI JUMPDEST PUSH1 0x0 DUP1 REVERT JUMPDEST PUSH2 0x55 PUSH1 0x4 DUP1 CALLDATASIZE SUB DUP2 ADD SWAP1 PUSH2 0x50 SWAP2 SWAP1 PUSH2 0x12D JUMP JUMPDEST PUSH2 0x73 JUMP JUMPDEST STOP JUMPDEST PUSH2 0x71 PUSH1 0x4 DUP1 CALLDATASIZE SUB DUP2 ADD SWAP1 PUSH2 0x6C SWAP2 SWAP1 PUSH2 0x12D JUMP JUMPDEST PUSH2 0xB6 JUMP JUMPDEST STOP JUMPDEST PUSH1 0x0 DUP1 PUSH1 0x0 JUMPDEST DUP4 DUP2 LT ISZERO PUSH2 0xB0 JUMPI DUP1 DUP4 PUSH2 0x8D SWAP2 SWAP1 PUSH2 0x156 JUMP JUMPDEST SWAP3 POP DUP1 DUP3 PUSH2 0x9B SWAP2 SWAP1 PUSH2 0x1AC JUMP JUMPDEST SWAP2 POP DUP1 DUP1 PUSH2 0xA8 SWAP1 PUSH2 0x254 JUMP JUMPDEST SWAP2 POP POP PUSH2 0x79 JUMP JUMPDEST POP POP POP POP JUMP JUMPDEST PUSH1 0x0 DUP1 PUSH1 0x0 JUMPDEST DUP4 DUP2 LT ISZERO PUSH2 0xE5 JUMPI DUP1 DUP4 PUSH2 0xD0 SWAP2 SWAP1 PUSH2 0x156 JUMP JUMPDEST SWAP3 POP DUP1 DUP1 PUSH2 0xDD SWAP1 PUSH2 0x254 JUMP JUMPDEST SWAP2 POP POP PUSH2 0xBC JUMP JUMPDEST POP PUSH1 0x0 JUMPDEST DUP4 DUP2 LT ISZERO PUSH2 0x112 JUMPI DUP1 DUP3 PUSH2 0xFD SWAP2 SWAP1 PUSH2 0x1AC JUMP JUMPDEST SWAP2 POP DUP1 DUP1 PUSH2 0x10A SWAP1 PUSH2 0x254 JUMP JUMPDEST SWAP2 POP POP PUSH2 0xE9 JUMP JUMPDEST POP POP POP POP JUMP JUMPDEST PUSH1 0x0 DUP2 CALLDATALOAD SWAP1 POP PUSH2 0x127 DUP2 PUSH2 0x2CC JUMP JUMPDEST SWAP3 SWAP2 POP POP JUMP JUMPDEST PUSH1 0x0 PUSH1 0x20 DUP3 DUP5 SUB SLT ISZERO PUSH2 0x13F JUMPI PUSH1 0x0 DUP1 REVERT JUMPDEST PUSH1 0x0 PUSH2 0x14D DUP5 DUP3 DUP6 ADD PUSH2 0x118 JUMP JUMPDEST SWAP2 POP POP SWAP3 SWAP2 POP POP JUMP JUMPDEST PUSH1 0x0 PUSH2 0x161 DUP3 PUSH2 0x24A JUMP JUMPDEST SWAP2 POP PUSH2 0x16C DUP4 PUSH2 0x24A JUMP JUMPDEST SWAP3 POP DUP3 PUSH32 0xFFFFFFFFFFFFFFFFFFFFFFFFFFFFFFFFFFFFFFFFFFFFFFFFFFFFFFFFFFFFFFFF SUB DUP3 GT ISZERO PUSH2 0x1A1 JUMPI PUSH2 0x1A0 PUSH2 0x29D JUMP JUMPDEST JUMPDEST DUP3 DUP3 ADD SWAP1 POP SWAP3 SWAP2 POP POP JUMP JUMPDEST PUSH1 0x0 PUSH2 0x1B7 DUP3 PUSH2 0x240 JUMP JUMPDEST SWAP2 POP PUSH2 0x1C2 DUP4 PUSH2 0x240 JUMP JUMPDEST SWAP3 POP DUP3 PUSH32 0x8000000000000000000000000000000000000000000000000000000000000000 ADD DUP3 SLT PUSH1 0x0 DUP5 SLT ISZERO AND ISZERO PUSH2 0x1FD JUMPI PUSH2 0x1FC PUSH2 0x29D JUMP JUMPDEST JUMPDEST DUP3 PUSH32 0x7FFFFFFFFFFFFFFFFFFFFFFFFFFFFFFFFFFFFFFFFFFFFFFFFFFFFFFFFFFFFFFF ADD DUP3 SGT PUSH1 0x0 DUP5 SLT AND ISZERO PUSH2 0x235 JUMPI PUSH2 0x234 PUSH2 0x29D JUMP JUMPDEST JUMPDEST DUP3 DUP3 SUB SWAP1 POP SWAP3 SWAP2 POP POP JUMP JUMPDEST PUSH1 0x0 DUP2 SWAP1 POP SWAP2 SWAP1 POP JUMP JUMPDEST PUSH1 0x0 DUP2 SWAP1 POP SWAP2 SWAP1 POP JUMP JUMPDEST PUSH1 0x0 PUSH2 0x25F DUP3 PUSH2 0x24A JUMP JUMPDEST SWAP2 POP PUSH32 0xFFFFFFFFFFFFFFFFFFFFFFFFFFFFFFFFFFFFFFFFFFFFFFFFFFFFFFFFFFFFFFFF DUP3 EQ ISZERO PUSH2 0x292 JUMPI PUSH2 0x291 PUSH2 0x29D JUMP JUMPDEST JUMPDEST PUSH1 0x1 DUP3 ADD SWAP1 POP SWAP2 SWAP1 POP JUMP JUMPDEST PUSH32 0x4E487B7100000000000000000000000000000000000000000000000000000000 PUSH1 0x0 MSTORE PUSH1 0x11 PUSH1 0x4 MSTORE PUSH1 0x24 PUSH1 0x0 REVERT JUMPDEST PUSH2 0x2D5 DUP2 PUSH2 0x24A JUMP JUMPDEST DUP2 EQ PUSH2 0x2E0 JUMPI PUSH1 0x0 DUP1 REVERT JUMPDEST POP JUMP INVALID LOG2 PUSH5 0x6970667358 0x22 SLT KECCAK256 PUSH12 0xFA40156A19458EA7220FBB32 0xD3 0xE9 0xE3 SLT DELEGATECALL 0xBD 0xD9 0xCC 0xE8 ISZERO CALLVALUE PUSH7 0x76BFF6882424A9 PUSH5 0x736F6C6343 STOP ADDMOD ADD STOP CALLER "
		},
		"gasEstimates": {
			"creation": {
				"codeDepositCost": "158600",
				"executionCost": "202",
				"totalCost": "158802"
			},
			"external": {
				"combinedLoop(uint256)": "infinite",
				"dividedLoops(uint256)": "infinite"
			}
		},
		"methodIdentifiers": {
			"combinedLoop(uint256)": "094f7a71",
			"dividedLoops(uint256)": "7b0c22eb"
		}
	},
	"abi": [
		{
			"inputs": [
				{
					"internalType": "uint256",
					"name": "x",
					"type": "uint256"
				}
			],
			"name": "combinedLoop",
			"outputs": [],
			"stateMutability": "nonpayable",
			"type": "function"
		},
		{
			"inputs": [
				{
					"internalType": "uint256",
					"name": "x",
					"type": "uint256"
				}
			],
			"name": "dividedLoops",
			"outputs": [],
			"stateMutability": "nonpayable",
			"type": "function"
		}
	]
}