{
	"data": {
		"bytecode": {
			"linkReferences": {},
			"object": "608060405234801561001057600080fd5b5060cf8061001f6000396000f3fe6080604052348015600f57600080fd5b506004361060285760003560e01c80630ff7f9f314602d575b600080fd5b6097600060208190527f3e9abaca0aad9ede81f4474766c846d8539f70688e1c8f521bbe1597874e3dc4805460ff1990811660aa17909155600b9091527f9115655cbcdb654012cf1b2f7e5dbf11c9ef14e152a19d5f8ea75a329092d5a6805490911660bb179055565b00fea26469706673582212203368b4ffe26d0a68c9db50efee66830877352d81a1ecaecf448d0e6dd12f5be864736f6c63430008020033",
			"opcodes": "PUSH1 0x80 PUSH1 0x40 MSTORE CALLVALUE DUP1 ISZERO PUSH2 0x10 JUMPI PUSH1 0x0 DUP1 REVERT JUMPDEST POP PUSH1 0xCF DUP1 PUSH2 0x1F PUSH1 0x0 CODECOPY PUSH1 0x0 RETURN INVALID PUSH1 0x80 PUSH1 0x40 MSTORE CALLVALUE DUP1 ISZERO PUSH1 0xF JUMPI PUSH1 0x0 DUP1 REVERT JUMPDEST POP PUSH1 0x4 CALLDATASIZE LT PUSH1 0x28 JUMPI PUSH1 0x0 CALLDATALOAD PUSH1 0xE0 SHR DUP1 PUSH4 0xFF7F9F3 EQ PUSH1 0x2D JUMPI JUMPDEST PUSH1 0x0 DUP1 REVERT JUMPDEST PUSH1 0x97 PUSH1 0x0 PUSH1 0x20 DUP2 SWAP1 MSTORE PUSH32 0x3E9ABACA0AAD9EDE81F4474766C846D8539F70688E1C8F521BBE1597874E3DC4 DUP1 SLOAD PUSH1 0xFF NOT SWAP1 DUP2 AND PUSH1 0xAA OR SWAP1 SWAP2 SSTORE PUSH1 0xB SWAP1 SWAP2 MSTORE PUSH32 0x9115655CBCDB654012CF1B2F7E5DBF11C9EF14E152A19D5F8EA75A329092D5A6 DUP1 SLOAD SWAP1 SWAP2 AND PUSH1 0xBB OR SWAP1 SSTORE JUMP JUMPDEST STOP INVALID LOG2 PUSH5 0x6970667358 0x22 SLT KECCAK256 CALLER PUSH9 0xB4FFE26D0A68C9DB50 0xEF 0xEE PUSH7 0x830877352D81A1 0xEC 0xAE 0xCF DIFFICULTY DUP14 0xE PUSH14 0xD12F5BE864736F6C634300080200 CALLER "
		},
		"gasEstimates": {
			"creation": {
				"codeDepositCost": "41400",
				"executionCost": "93",
				"totalCost": "41493"
			},
			"external": {
				"mapNotPack()": "41794"
			}
		},
		"methodIdentifiers": {
			"mapNotPack()": "0ff7f9f3"
		}
	},
	"abi": [
		{
			"inputs": [],
			"name": "mapNotPack",
			"outputs": [],
			"stateMutability": "nonpayable",
			"type": "function"
		}
	]
}