{
	"data": {
		"bytecode": {
			"linkReferences": {},
			"object": "608060405234801561001057600080fd5b5060bd8061001f6000396000f3fe6080604052348015600f57600080fd5b506004361060285760003560e01c80639406a0ad14602d575b600080fd5b608561aaaa7f839613f731613c3a2f728362760f939c8004b5d9066154aab51d6dadf74733f35561bbbb600081905260016020527f34cb23340a4263c995af18b23d9f53b67ff379ccaa3a91b75007b010c489d39555565b00fea2646970667358221220f7f8d2bc96dd7da7ff8330a6672e2848c0e4e3052e0b533ff2842c1b1055ff1c64736f6c63430008020033",
			"opcodes": "PUSH1 0x80 PUSH1 0x40 MSTORE CALLVALUE DUP1 ISZERO PUSH2 0x10 JUMPI PUSH1 0x0 DUP1 REVERT JUMPDEST POP PUSH1 0xBD DUP1 PUSH2 0x1F PUSH1 0x0 CODECOPY PUSH1 0x0 RETURN INVALID PUSH1 0x80 PUSH1 0x40 MSTORE CALLVALUE DUP1 ISZERO PUSH1 0xF JUMPI PUSH1 0x0 DUP1 REVERT JUMPDEST POP PUSH1 0x4 CALLDATASIZE LT PUSH1 0x28 JUMPI PUSH1 0x0 CALLDATALOAD PUSH1 0xE0 SHR DUP1 PUSH4 0x9406A0AD EQ PUSH1 0x2D JUMPI JUMPDEST PUSH1 0x0 DUP1 REVERT JUMPDEST PUSH1 0x85 PUSH2 0xAAAA PUSH32 0x839613F731613C3A2F728362760F939C8004B5D9066154AAB51D6DADF74733F3 SSTORE PUSH2 0xBBBB PUSH1 0x0 DUP2 SWAP1 MSTORE PUSH1 0x1 PUSH1 0x20 MSTORE PUSH32 0x34CB23340A4263C995AF18B23D9F53B67FF379CCAA3A91B75007B010C489D395 SSTORE JUMP JUMPDEST STOP INVALID LOG2 PUSH5 0x6970667358 0x22 SLT KECCAK256 0xF7 0xF8 0xD2 0xBC SWAP7 0xDD PUSH30 0xA7FF8330A6672E2848C0E4E3052E0B533FF2842C1B1055FF1C64736F6C63 NUMBER STOP ADDMOD MUL STOP CALLER "
		},
		"gasEstimates": {
			"creation": {
				"codeDepositCost": "37800",
				"executionCost": "87",
				"totalCost": "37887"
			},
			"external": {
				"map1()": "40143"
			}
		},
		"methodIdentifiers": {
			"map1()": "9406a0ad"
		}
	},
	"abi": [
		{
			"inputs": [],
			"name": "map1",
			"outputs": [],
			"stateMutability": "nonpayable",
			"type": "function"
		}
	]
}