{
	"data": {
		"bytecode": {
			"linkReferences": {},
			"object": "608060405261cccc600155348015601557600080fd5b50607f806100246000396000f3fe6080604052348015600f57600080fd5b506004361060285760003560e01c80636beb1f8014602d575b600080fd5b604760015460009081526020819052604090206177779055565b00fea2646970667358221220517eec23640c1fcc145f51b14fb3a746bc83c41ca56da6ac9cfd2d13a07c6b8764736f6c63430008020033",
			"opcodes": "PUSH1 0x80 PUSH1 0x40 MSTORE PUSH2 0xCCCC PUSH1 0x1 SSTORE CALLVALUE DUP1 ISZERO PUSH1 0x15 JUMPI PUSH1 0x0 DUP1 REVERT JUMPDEST POP PUSH1 0x7F DUP1 PUSH2 0x24 PUSH1 0x0 CODECOPY PUSH1 0x0 RETURN INVALID PUSH1 0x80 PUSH1 0x40 MSTORE CALLVALUE DUP1 ISZERO PUSH1 0xF JUMPI PUSH1 0x0 DUP1 REVERT JUMPDEST POP PUSH1 0x4 CALLDATASIZE LT PUSH1 0x28 JUMPI PUSH1 0x0 CALLDATALOAD PUSH1 0xE0 SHR DUP1 PUSH4 0x6BEB1F80 EQ PUSH1 0x2D JUMPI JUMPDEST PUSH1 0x0 DUP1 REVERT JUMPDEST PUSH1 0x47 PUSH1 0x1 SLOAD PUSH1 0x0 SWAP1 DUP2 MSTORE PUSH1 0x20 DUP2 SWAP1 MSTORE PUSH1 0x40 SWAP1 KECCAK256 PUSH2 0x7777 SWAP1 SSTORE JUMP JUMPDEST STOP INVALID LOG2 PUSH5 0x6970667358 0x22 SLT KECCAK256 MLOAD PUSH31 0xEC23640C1FCC145F51B14FB3A746BC83C41CA56DA6AC9CFD2D13A07C6B8764 PUSH20 0x6F6C634300080200330000000000000000000000 "
		},
		"gasEstimates": {
			"creation": {
				"codeDepositCost": "25400",
				"executionCost": "20081",
				"totalCost": "45481"
			},
			"external": {
				"map2()": "20991"
			}
		},
		"methodIdentifiers": {
			"map2()": "6beb1f80"
		}
	},
	"abi": [
		{
			"inputs": [],
			"name": "map2",
			"outputs": [],
			"stateMutability": "nonpayable",
			"type": "function"
		}
	]
}