{
	"data": {
		"bytecode": {
			"linkReferences": {},
			"object": "6080604052348015600f57600080fd5b5060a48061001e6000396000f3fe6080604052348015600f57600080fd5b506004361060285760003560e01c8063c758118414602d575b600080fd5b60336035565b005b61aaaa60008061aaaa81526020019081526020016000208190555061bbbb6001600061bbbb81526020019081526020016000208190555056fea264697066735822122099d3047c9db7a65810555d2a2729ba801b4a0b55dff4b15bbba4ed461e9ea24164736f6c63430008010033",
			"opcodes": "PUSH1 0x80 PUSH1 0x40 MSTORE CALLVALUE DUP1 ISZERO PUSH1 0xF JUMPI PUSH1 0x0 DUP1 REVERT JUMPDEST POP PUSH1 0xA4 DUP1 PUSH2 0x1E PUSH1 0x0 CODECOPY PUSH1 0x0 RETURN INVALID PUSH1 0x80 PUSH1 0x40 MSTORE CALLVALUE DUP1 ISZERO PUSH1 0xF JUMPI PUSH1 0x0 DUP1 REVERT JUMPDEST POP PUSH1 0x4 CALLDATASIZE LT PUSH1 0x28 JUMPI PUSH1 0x0 CALLDATALOAD PUSH1 0xE0 SHR DUP1 PUSH4 0xC7581184 EQ PUSH1 0x2D JUMPI JUMPDEST PUSH1 0x0 DUP1 REVERT JUMPDEST PUSH1 0x33 PUSH1 0x35 JUMP JUMPDEST STOP JUMPDEST PUSH2 0xAAAA PUSH1 0x0 DUP1 PUSH2 0xAAAA DUP2 MSTORE PUSH1 0x20 ADD SWAP1 DUP2 MSTORE PUSH1 0x20 ADD PUSH1 0x0 KECCAK256 DUP2 SWAP1 SSTORE POP PUSH2 0xBBBB PUSH1 0x1 PUSH1 0x0 PUSH2 0xBBBB DUP2 MSTORE PUSH1 0x20 ADD SWAP1 DUP2 MSTORE PUSH1 0x20 ADD PUSH1 0x0 KECCAK256 DUP2 SWAP1 SSTORE POP JUMP INVALID LOG2 PUSH5 0x6970667358 0x22 SLT KECCAK256 SWAP10 0xD3 DIV PUSH29 0x9DB7A65810555D2A2729BA801B4A0B55DFF4B15BBBA4ED461E9EA24164 PUSH20 0x6F6C634300080100330000000000000000000000 "
		},
		"gasEstimates": {
			"creation": {
				"codeDepositCost": "32800",
				"executionCost": "87",
				"totalCost": "32887"
			},
			"external": {
				"map()": "40306"
			}
		},
		"methodIdentifiers": {
			"map()": "c7581184"
		}
	},
	"abi": [
		{
			"inputs": [],
			"name": "map",
			"outputs": [],
			"stateMutability": "nonpayable",
			"type": "function"
		}
	]
}