{
	"data": {
		"bytecode": {
			"linkReferences": {},
			"object": "608060405234801561001057600080fd5b5060df8061001f6000396000f3fe6080604052348015600f57600080fd5b506004361060285760003560e01c8063167a1bca14602d575b600080fd5b60a760016000908152602052601a7fada5013122d395ba3c54772283fb069b10426056ef8ca54750cb9bb552a59e7d55601b7fada5013122d395ba3c54772283fb069b10426056ef8ca54750cb9bb552a59e7e55601c7fada5013122d395ba3c54772283fb069b10426056ef8ca54750cb9bb552a59e7f55565b00fea26469706673582212205bb109401fe11331a56032fe070d67b088e816d4688b866365a9e981e60fc64764736f6c63430008020033",
			"opcodes": "PUSH1 0x80 PUSH1 0x40 MSTORE CALLVALUE DUP1 ISZERO PUSH2 0x10 JUMPI PUSH1 0x0 DUP1 REVERT JUMPDEST POP PUSH1 0xDF DUP1 PUSH2 0x1F PUSH1 0x0 CODECOPY PUSH1 0x0 RETURN INVALID PUSH1 0x80 PUSH1 0x40 MSTORE CALLVALUE DUP1 ISZERO PUSH1 0xF JUMPI PUSH1 0x0 DUP1 REVERT JUMPDEST POP PUSH1 0x4 CALLDATASIZE LT PUSH1 0x28 JUMPI PUSH1 0x0 CALLDATALOAD PUSH1 0xE0 SHR DUP1 PUSH4 0x167A1BCA EQ PUSH1 0x2D JUMPI JUMPDEST PUSH1 0x0 DUP1 REVERT JUMPDEST PUSH1 0xA7 PUSH1 0x1 PUSH1 0x0 SWAP1 DUP2 MSTORE PUSH1 0x20 MSTORE PUSH1 0x1A PUSH32 0xADA5013122D395BA3C54772283FB069B10426056EF8CA54750CB9BB552A59E7D SSTORE PUSH1 0x1B PUSH32 0xADA5013122D395BA3C54772283FB069B10426056EF8CA54750CB9BB552A59E7E SSTORE PUSH1 0x1C PUSH32 0xADA5013122D395BA3C54772283FB069B10426056EF8CA54750CB9BB552A59E7F SSTORE JUMP JUMPDEST STOP INVALID LOG2 PUSH5 0x6970667358 0x22 SLT KECCAK256 JUMPDEST 0xB1 MULMOD BLOCKHASH 0x1F 0xE1 SGT BALANCE 0xA5 PUSH1 0x32 INVALID SMOD 0xD PUSH8 0xB088E816D4688B86 PUSH4 0x65A9E981 0xE6 0xF 0xC6 SELFBALANCE PUSH5 0x736F6C6343 STOP ADDMOD MUL STOP CALLER "
		},
		"gasEstimates": {
			"creation": {
				"codeDepositCost": "44600",
				"executionCost": "93",
				"totalCost": "44693"
			},
			"external": {
				"mapStruct()": "60149"
			}
		},
		"methodIdentifiers": {
			"mapStruct()": "167a1bca"
		}
	},
	"abi": [
		{
			"inputs": [],
			"name": "mapStruct",
			"outputs": [],
			"stateMutability": "nonpayable",
			"type": "function"
		}
	]
}