{
	"data": {
		"bytecode": {
			"linkReferences": {},
			"object": "6080604052348015600f57600080fd5b506101368061001f6000396000f300608060405260043610610041576000357c0100000000000000000000000000000000000000000000000000000000900463ffffffff16806351fe58b814610046575b600080fd5b34801561005257600080fd5b5061005b61005d565b005b61aaaa6000806101000a81548167ffffffffffffffff021916908367ffffffffffffffff16021790555061bbbb600060086101000a81548167ffffffffffffffff021916908367ffffffffffffffff16021790555061cccc600060106101000a81548167ffffffffffffffff021916908367ffffffffffffffff16021790555061dddd600060186101000a81548167ffffffffffffffff021916908367ffffffffffffffff1602179055505600a165627a7a72305820bd0e6fab982221da40236267b06ae3c9e51f27ab8e85e6c8a9b9af9a903592b00029",
			"opcodes": "PUSH1 0x80 PUSH1 0x40 MSTORE CALLVALUE DUP1 ISZERO PUSH1 0xF JUMPI PUSH1 0x0 DUP1 REVERT JUMPDEST POP PUSH2 0x136 DUP1 PUSH2 0x1F PUSH1 0x0 CODECOPY PUSH1 0x0 RETURN STOP PUSH1 0x80 PUSH1 0x40 MSTORE PUSH1 0x4 CALLDATASIZE LT PUSH2 0x41 JUMPI PUSH1 0x0 CALLDATALOAD PUSH29 0x100000000000000000000000000000000000000000000000000000000 SWAP1 DIV PUSH4 0xFFFFFFFF AND DUP1 PUSH4 0x51FE58B8 EQ PUSH2 0x46 JUMPI JUMPDEST PUSH1 0x0 DUP1 REVERT JUMPDEST CALLVALUE DUP1 ISZERO PUSH2 0x52 JUMPI PUSH1 0x0 DUP1 REVERT JUMPDEST POP PUSH2 0x5B PUSH2 0x5D JUMP JUMPDEST STOP JUMPDEST PUSH2 0xAAAA PUSH1 0x0 DUP1 PUSH2 0x100 EXP DUP2 SLOAD DUP2 PUSH8 0xFFFFFFFFFFFFFFFF MUL NOT AND SWAP1 DUP4 PUSH8 0xFFFFFFFFFFFFFFFF AND MUL OR SWAP1 SSTORE POP PUSH2 0xBBBB PUSH1 0x0 PUSH1 0x8 PUSH2 0x100 EXP DUP2 SLOAD DUP2 PUSH8 0xFFFFFFFFFFFFFFFF MUL NOT AND SWAP1 DUP4 PUSH8 0xFFFFFFFFFFFFFFFF AND MUL OR SWAP1 SSTORE POP PUSH2 0xCCCC PUSH1 0x0 PUSH1 0x10 PUSH2 0x100 EXP DUP2 SLOAD DUP2 PUSH8 0xFFFFFFFFFFFFFFFF MUL NOT AND SWAP1 DUP4 PUSH8 0xFFFFFFFFFFFFFFFF AND MUL OR SWAP1 SSTORE POP PUSH2 0xDDDD PUSH1 0x0 PUSH1 0x18 PUSH2 0x100 EXP DUP2 SLOAD DUP2 PUSH8 0xFFFFFFFFFFFFFFFF MUL NOT AND SWAP1 DUP4 PUSH8 0xFFFFFFFFFFFFFFFF AND MUL OR SWAP1 SSTORE POP JUMP STOP LOG1 PUSH6 0x627A7A723058 KECCAK256 0xbd 0xe PUSH16 0xAB982221DA40236267B06AE3C9E51F27 0xab DUP15 DUP6 0xe6 0xc8 0xa9 0xb9 0xaf SWAP11 SWAP1 CALLDATALOAD SWAP3 0xb0 STOP 0x29 "
		},
		"gasEstimates": {
			"creation": {
				"codeDepositCost": "62000",
				"executionCost": "111",
				"totalCost": "62111"
			},
			"external": {
				"Pack1()": "81351"
			}
		},
		"methodIdentifiers": {
			"Pack1()": "51fe58b8"
		}
	},
	"abi": [
		{
			"constant": false,
			"inputs": [],
			"name": "Pack1",
			"outputs": [],
			"payable": false,
			"stateMutability": "nonpayable",
			"type": "function"
		}
	]
}