{
	"data": {
		"bytecode": {
			"linkReferences": {},
			"object": "608060405234801561001057600080fd5b5060ca8061001f6000396000f3fe6080604052348015600f57600080fd5b506004361060285760003560e01c8063a88d19b414602d575b600080fd5b60926000805461aaaa67ffffffffffffffff19909116176fffffffffffffffff0000000000000000191669bbbb00000000000000001790556000805467ffffffffffffffff60801b191661333360821b176001600160c01b031661dddd60c01b179055565b00fea26469706673582212202335106fb8518e4dec9b954b242eb2e359da5f8e847e72392312397096cda31c64736f6c63430008020033",
			"opcodes": "PUSH1 0x80 PUSH1 0x40 MSTORE CALLVALUE DUP1 ISZERO PUSH2 0x10 JUMPI PUSH1 0x0 DUP1 REVERT JUMPDEST POP PUSH1 0xCA DUP1 PUSH2 0x1F PUSH1 0x0 CODECOPY PUSH1 0x0 RETURN INVALID PUSH1 0x80 PUSH1 0x40 MSTORE CALLVALUE DUP1 ISZERO PUSH1 0xF JUMPI PUSH1 0x0 DUP1 REVERT JUMPDEST POP PUSH1 0x4 CALLDATASIZE LT PUSH1 0x28 JUMPI PUSH1 0x0 CALLDATALOAD PUSH1 0xE0 SHR DUP1 PUSH4 0xA88D19B4 EQ PUSH1 0x2D JUMPI JUMPDEST PUSH1 0x0 DUP1 REVERT JUMPDEST PUSH1 0x92 PUSH1 0x0 DUP1 SLOAD PUSH2 0xAAAA PUSH8 0xFFFFFFFFFFFFFFFF NOT SWAP1 SWAP2 AND OR PUSH16 0xFFFFFFFFFFFFFFFF0000000000000000 NOT AND PUSH10 0xBBBB0000000000000000 OR SWAP1 SSTORE PUSH1 0x0 DUP1 SLOAD PUSH8 0xFFFFFFFFFFFFFFFF PUSH1 0x80 SHL NOT AND PUSH2 0x3333 PUSH1 0x82 SHL OR PUSH1 0x1 PUSH1 0x1 PUSH1 0xC0 SHL SUB AND PUSH2 0xDDDD PUSH1 0xC0 SHL OR SWAP1 SSTORE JUMP JUMPDEST STOP INVALID LOG2 PUSH5 0x6970667358 0x22 SLT KECCAK256 0x23 CALLDATALOAD LT PUSH16 0xB8518E4DEC9B954B242EB2E359DA5F8E DUP5 PUSH31 0x72392312397096CDA31C64736F6C6343000802003300000000000000000000 "
		},
		"gasEstimates": {
			"creation": {
				"codeDepositCost": "40400",
				"executionCost": "93",
				"totalCost": "40493"
			},
			"external": {
				"Pack222()": "41821"
			},
			"internal": {
				"setAB()": "infinite",
				"setCD()": "infinite"
			}
		},
		"methodIdentifiers": {
			"Pack222()": "a88d19b4"
		}
	},
	"abi": [
		{
			"inputs": [],
			"name": "Pack222",
			"outputs": [],
			"stateMutability": "nonpayable",
			"type": "function"
		}
	]
}