{
	"data": {
		"bytecode": {
			"linkReferences": {},
			"object": "608060405234801561001057600080fd5b506102cc806100206000396000f3fe608060405234801561001057600080fd5b50600436106100365760003560e01c8063246982c41461003b578063bda2a6a314610149575b600080fd5b6100e4610049366004610224565b6040805160a0810182526000808252602082018190529181018290526060810182905260808101919091525060009081526020818152604091829020825160a08101845281546001600160a01b038116825267ffffffffffffffff600160a01b8204169382019390935261ffff600160e01b8404811694820194909452600160f01b9092049092166060820152600190910154608082015290565b604051610140919081516001600160a01b0316815260208083015167ffffffffffffffff169082015260408083015161ffff90811691830191909152606080840151909116908201526080918201519181019190915260a00190565b60405180910390f35b61022261015736600461023c565b6040805160a0810182526001600160a01b03968716815267ffffffffffffffff958616602080830191825261ffff968716838501908152958716606084019081526080840195865260009a8b52908a905292909820905181549851945192516001600160a01b031990991697169690961767ffffffffffffffff60a01b1916600160a01b93909516929092029390931761ffff60e01b1916600160e01b91831691909102176001600160f01b0316600160f01b94909116939093029290921781559051600190910155565b005b600060208284031215610235578081fd5b5035919050565b60008060008060008060c08789031215610254578182fd5b8635955060208701356001600160a01b0381168114610271578283fd5b95989597505050506040840135936060810135936080820135935060a090910135915056fea26469706673582212202715f093024f3b8be7e3eba835fbdc56e298729a80eb7f53732d25195bf1f72f64736f6c63430008020033",
			"opcodes": "PUSH1 0x80 PUSH1 0x40 MSTORE CALLVALUE DUP1 ISZERO PUSH2 0x10 JUMPI PUSH1 0x0 DUP1 REVERT JUMPDEST POP PUSH2 0x2CC DUP1 PUSH2 0x20 PUSH1 0x0 CODECOPY PUSH1 0x0 RETURN INVALID PUSH1 0x80 PUSH1 0x40 MSTORE CALLVALUE DUP1 ISZERO PUSH2 0x10 JUMPI PUSH1 0x0 DUP1 REVERT JUMPDEST POP PUSH1 0x4 CALLDATASIZE LT PUSH2 0x36 JUMPI PUSH1 0x0 CALLDATALOAD PUSH1 0xE0 SHR DUP1 PUSH4 0x246982C4 EQ PUSH2 0x3B JUMPI DUP1 PUSH4 0xBDA2A6A3 EQ PUSH2 0x149 JUMPI JUMPDEST PUSH1 0x0 DUP1 REVERT JUMPDEST PUSH2 0xE4 PUSH2 0x49 CALLDATASIZE PUSH1 0x4 PUSH2 0x224 JUMP JUMPDEST PUSH1 0x40 DUP1 MLOAD PUSH1 0xA0 DUP2 ADD DUP3 MSTORE PUSH1 0x0 DUP1 DUP3 MSTORE PUSH1 0x20 DUP3 ADD DUP2 SWAP1 MSTORE SWAP2 DUP2 ADD DUP3 SWAP1 MSTORE PUSH1 0x60 DUP2 ADD DUP3 SWAP1 MSTORE PUSH1 0x80 DUP2 ADD SWAP2 SWAP1 SWAP2 MSTORE POP PUSH1 0x0 SWAP1 DUP2 MSTORE PUSH1 0x20 DUP2 DUP2 MSTORE PUSH1 0x40 SWAP2 DUP3 SWAP1 KECCAK256 DUP3 MLOAD PUSH1 0xA0 DUP2 ADD DUP5 MSTORE DUP2 SLOAD PUSH1 0x1 PUSH1 0x1 PUSH1 0xA0 SHL SUB DUP2 AND DUP3 MSTORE PUSH8 0xFFFFFFFFFFFFFFFF PUSH1 0x1 PUSH1 0xA0 SHL DUP3 DIV AND SWAP4 DUP3 ADD SWAP4 SWAP1 SWAP4 MSTORE PUSH2 0xFFFF PUSH1 0x1 PUSH1 0xE0 SHL DUP5 DIV DUP2 AND SWAP5 DUP3 ADD SWAP5 SWAP1 SWAP5 MSTORE PUSH1 0x1 PUSH1 0xF0 SHL SWAP1 SWAP3 DIV SWAP1 SWAP3 AND PUSH1 0x60 DUP3 ADD MSTORE PUSH1 0x1 SWAP1 SWAP2 ADD SLOAD PUSH1 0x80 DUP3 ADD MSTORE SWAP1 JUMP JUMPDEST PUSH1 0x40 MLOAD PUSH2 0x140 SWAP2 SWAP1 DUP2 MLOAD PUSH1 0x1 PUSH1 0x1 PUSH1 0xA0 SHL SUB AND DUP2 MSTORE PUSH1 0x20 DUP1 DUP4 ADD MLOAD PUSH8 0xFFFFFFFFFFFFFFFF AND SWAP1 DUP3 ADD MSTORE PUSH1 0x40 DUP1 DUP4 ADD MLOAD PUSH2 0xFFFF SWAP1 DUP2 AND SWAP2 DUP4 ADD SWAP2 SWAP1 SWAP2 MSTORE PUSH1 0x60 DUP1 DUP5 ADD MLOAD SWAP1 SWAP2 AND SWAP1 DUP3 ADD MSTORE PUSH1 0x80 SWAP2 DUP3 ADD MLOAD SWAP2 DUP2 ADD SWAP2 SWAP1 SWAP2 MSTORE PUSH1 0xA0 ADD SWAP1 JUMP JUMPDEST PUSH1 0x40 MLOAD DUP1 SWAP2 SUB SWAP1 RETURN JUMPDEST PUSH2 0x222 PUSH2 0x157 CALLDATASIZE PUSH1 0x4 PUSH2 0x23C JUMP JUMPDEST PUSH1 0x40 DUP1 MLOAD PUSH1 0xA0 DUP2 ADD DUP3 MSTORE PUSH1 0x1 PUSH1 0x1 PUSH1 0xA0 SHL SUB SWAP7 DUP8 AND DUP2 MSTORE PUSH8 0xFFFFFFFFFFFFFFFF SWAP6 DUP7 AND PUSH1 0x20 DUP1 DUP4 ADD SWAP2 DUP3 MSTORE PUSH2 0xFFFF SWAP7 DUP8 AND DUP4 DUP6 ADD SWAP1 DUP2 MSTORE SWAP6 DUP8 AND PUSH1 0x60 DUP5 ADD SWAP1 DUP2 MSTORE PUSH1 0x80 DUP5 ADD SWAP6 DUP7 MSTORE PUSH1 0x0 SWAP11 DUP12 MSTORE SWAP1 DUP11 SWAP1 MSTORE SWAP3 SWAP1 SWAP9 KECCAK256 SWAP1 MLOAD DUP2 SLOAD SWAP9 MLOAD SWAP5 MLOAD SWAP3 MLOAD PUSH1 0x1 PUSH1 0x1 PUSH1 0xA0 SHL SUB NOT SWAP1 SWAP10 AND SWAP8 AND SWAP7 SWAP1 SWAP7 OR PUSH8 0xFFFFFFFFFFFFFFFF PUSH1 0xA0 SHL NOT AND PUSH1 0x1 PUSH1 0xA0 SHL SWAP4 SWAP1 SWAP6 AND SWAP3 SWAP1 SWAP3 MUL SWAP4 SWAP1 SWAP4 OR PUSH2 0xFFFF PUSH1 0xE0 SHL NOT AND PUSH1 0x1 PUSH1 0xE0 SHL SWAP2 DUP4 AND SWAP2 SWAP1 SWAP2 MUL OR PUSH1 0x1 PUSH1 0x1 PUSH1 0xF0 SHL SUB AND PUSH1 0x1 PUSH1 0xF0 SHL SWAP5 SWAP1 SWAP2 AND SWAP4 SWAP1 SWAP4 MUL SWAP3 SWAP1 SWAP3 OR DUP2 SSTORE SWAP1 MLOAD PUSH1 0x1 SWAP1 SWAP2 ADD SSTORE JUMP JUMPDEST STOP JUMPDEST PUSH1 0x0 PUSH1 0x20 DUP3 DUP5 SUB SLT ISZERO PUSH2 0x235 JUMPI DUP1 DUP2 REVERT JUMPDEST POP CALLDATALOAD SWAP2 SWAP1 POP JUMP JUMPDEST PUSH1 0x0 DUP1 PUSH1 0x0 DUP1 PUSH1 0x0 DUP1 PUSH1 0xC0 DUP8 DUP10 SUB SLT ISZERO PUSH2 0x254 JUMPI DUP2 DUP3 REVERT JUMPDEST DUP7 CALLDATALOAD SWAP6 POP PUSH1 0x20 DUP8 ADD CALLDATALOAD PUSH1 0x1 PUSH1 0x1 PUSH1 0xA0 SHL SUB DUP2 AND DUP2 EQ PUSH2 0x271 JUMPI DUP3 DUP4 REVERT JUMPDEST SWAP6 SWAP9 SWAP6 SWAP8 POP POP POP POP PUSH1 0x40 DUP5 ADD CALLDATALOAD SWAP4 PUSH1 0x60 DUP2 ADD CALLDATALOAD SWAP4 PUSH1 0x80 DUP3 ADD CALLDATALOAD SWAP4 POP PUSH1 0xA0 SWAP1 SWAP2 ADD CALLDATALOAD SWAP2 POP JUMP INVALID LOG2 PUSH5 0x6970667358 0x22 SLT KECCAK256 0x27 ISZERO CREATE SWAP4 MUL 0x4F EXTCODESIZE DUP12 0xE7 0xE3 0xEB 0xA8 CALLDATALOAD 0xFB 0xDC JUMP 0xE2 SWAP9 PUSH19 0x9A80EB7F53732D25195BF1F72F64736F6C6343 STOP ADDMOD MUL STOP CALLER "
		},
		"gasEstimates": {
			"creation": {
				"codeDepositCost": "143200",
				"executionCost": "190",
				"totalCost": "143390"
			},
			"external": {
				"getPerson(uint256)": "2470",
				"setPerson(uint256,address,uint256,uint256,uint256,uint256)": "41687"
			}
		},
		"methodIdentifiers": {
			"getPerson(uint256)": "246982c4",
			"setPerson(uint256,address,uint256,uint256,uint256,uint256)": "bda2a6a3"
		}
	},
	"abi": [
		{
			"inputs": [
				{
					"internalType": "uint256",
					"name": "_id",
					"type": "uint256"
				}
			],
			"name": "getPerson",
			"outputs": [
				{
					"components": [
						{
							"internalType": "address",
							"name": "owner",
							"type": "address"
						},
						{
							"internalType": "uint64",
							"name": "creationTime",
							"type": "uint64"
						},
						{
							"internalType": "uint16",
							"name": "height",
							"type": "uint16"
						},
						{
							"internalType": "uint16",
							"name": "weight",
							"type": "uint16"
						},
						{
							"internalType": "uint256",
							"name": "dna",
							"type": "uint256"
						}
					],
					"internalType": "struct PackStructs1.Person",
					"name": "_person",
					"type": "tuple"
				}
			],
			"stateMutability": "view",
			"type": "function"
		},
		{
			"inputs": [
				{
					"internalType": "uint256",
					"name": "_id",
					"type": "uint256"
				},
				{
					"internalType": "address",
					"name": "_owner",
					"type": "address"
				},
				{
					"internalType": "uint256",
					"name": "_creationTime",
					"type": "uint256"
				},
				{
					"internalType": "uint256",
					"name": "_height",
					"type": "uint256"
				},
				{
					"internalType": "uint256",
					"name": "_weight",
					"type": "uint256"
				},
				{
					"internalType": "uint256",
					"name": "_dna",
					"type": "uint256"
				}
			],
			"name": "setPerson",
			"outputs": [],
			"stateMutability": "nonpayable",
			"type": "function"
		}
	]
}