{
	"data": {
		"bytecode": {
			"linkReferences": {},
			"object": "608060405234801561001057600080fd5b50610121806100206000396000f3fe6080604052348015600f57600080fd5b506004361060285760003560e01c8063fe7fb65d14602d575b600080fd5b60a76004803603610120811015604257600080fd5b8101908080359060200190929190803590602001909291908035906020019092919080359060200190929190803590602001909291908035906020019092919080359060200190929190803590602001909291908035906020019092919050505060bd565b6040518082815260200191505060405180910390f35b6000806000905086888a8c8e010101019050828486888401010101905080915050999850505050505050505056fea2646970667358221220abf290a25020177dbb424b8e54175aa8acf6bf919f041c621130d8c331f2b0d464736f6c63430007040033",
			"opcodes": "PUSH1 0x80 PUSH1 0x40 MSTORE CALLVALUE DUP1 ISZERO PUSH2 0x10 JUMPI PUSH1 0x0 DUP1 REVERT JUMPDEST POP PUSH2 0x121 DUP1 PUSH2 0x20 PUSH1 0x0 CODECOPY PUSH1 0x0 RETURN INVALID PUSH1 0x80 PUSH1 0x40 MSTORE CALLVALUE DUP1 ISZERO PUSH1 0xF JUMPI PUSH1 0x0 DUP1 REVERT JUMPDEST POP PUSH1 0x4 CALLDATASIZE LT PUSH1 0x28 JUMPI PUSH1 0x0 CALLDATALOAD PUSH1 0xE0 SHR DUP1 PUSH4 0xFE7FB65D EQ PUSH1 0x2D JUMPI JUMPDEST PUSH1 0x0 DUP1 REVERT JUMPDEST PUSH1 0xA7 PUSH1 0x4 DUP1 CALLDATASIZE SUB PUSH2 0x120 DUP2 LT ISZERO PUSH1 0x42 JUMPI PUSH1 0x0 DUP1 REVERT JUMPDEST DUP2 ADD SWAP1 DUP1 DUP1 CALLDATALOAD SWAP1 PUSH1 0x20 ADD SWAP1 SWAP3 SWAP2 SWAP1 DUP1 CALLDATALOAD SWAP1 PUSH1 0x20 ADD SWAP1 SWAP3 SWAP2 SWAP1 DUP1 CALLDATALOAD SWAP1 PUSH1 0x20 ADD SWAP1 SWAP3 SWAP2 SWAP1 DUP1 CALLDATALOAD SWAP1 PUSH1 0x20 ADD SWAP1 SWAP3 SWAP2 SWAP1 DUP1 CALLDATALOAD SWAP1 PUSH1 0x20 ADD SWAP1 SWAP3 SWAP2 SWAP1 DUP1 CALLDATALOAD SWAP1 PUSH1 0x20 ADD SWAP1 SWAP3 SWAP2 SWAP1 DUP1 CALLDATALOAD SWAP1 PUSH1 0x20 ADD SWAP1 SWAP3 SWAP2 SWAP1 DUP1 CALLDATALOAD SWAP1 PUSH1 0x20 ADD SWAP1 SWAP3 SWAP2 SWAP1 DUP1 CALLDATALOAD SWAP1 PUSH1 0x20 ADD SWAP1 SWAP3 SWAP2 SWAP1 POP POP POP PUSH1 0xBD JUMP JUMPDEST PUSH1 0x40 MLOAD DUP1 DUP3 DUP2 MSTORE PUSH1 0x20 ADD SWAP2 POP POP PUSH1 0x40 MLOAD DUP1 SWAP2 SUB SWAP1 RETURN JUMPDEST PUSH1 0x0 DUP1 PUSH1 0x0 SWAP1 POP DUP7 DUP9 DUP11 DUP13 DUP15 ADD ADD ADD ADD SWAP1 POP DUP3 DUP5 DUP7 DUP9 DUP5 ADD ADD ADD ADD SWAP1 POP DUP1 SWAP2 POP POP SWAP10 SWAP9 POP POP POP POP POP POP POP POP POP JUMP INVALID LOG2 PUSH5 0x6970667358 0x22 SLT KECCAK256 0xAB CALLCODE SWAP1 LOG2 POP KECCAK256 OR PUSH30 0xBB424B8E54175AA8ACF6BF919F041C621130D8C331F2B0D464736F6C6343 STOP SMOD DIV STOP CALLER "
		},
		"gasEstimates": {
			"creation": {
				"codeDepositCost": "57800",
				"executionCost": "111",
				"totalCost": "57911"
			},
			"external": {
				"functionStack(uint256,uint256,uint256,uint256,uint256,uint256,uint256,uint256,uint256)": "587"
			}
		},
		"methodIdentifiers": {
			"functionStack(uint256,uint256,uint256,uint256,uint256,uint256,uint256,uint256,uint256)": "fe7fb65d"
		}
	},
	"abi": [
		{
			"inputs": [
				{
					"internalType": "uint256",
					"name": "X1",
					"type": "uint256"
				},
				{
					"internalType": "uint256",
					"name": "X2",
					"type": "uint256"
				},
				{
					"internalType": "uint256",
					"name": "X3",
					"type": "uint256"
				},
				{
					"internalType": "uint256",
					"name": "X4",
					"type": "uint256"
				},
				{
					"internalType": "uint256",
					"name": "X5",
					"type": "uint256"
				},
				{
					"internalType": "uint256",
					"name": "X6",
					"type": "uint256"
				},
				{
					"internalType": "uint256",
					"name": "X7",
					"type": "uint256"
				},
				{
					"internalType": "uint256",
					"name": "X8",
					"type": "uint256"
				},
				{
					"internalType": "uint256",
					"name": "X9",
					"type": "uint256"
				}
			],
			"name": "functionStack",
			"outputs": [
				{
					"internalType": "uint256",
					"name": "result",
					"type": "uint256"
				}
			],
			"stateMutability": "pure",
			"type": "function"
		}
	]
}